:020000040800F2
:1000000080F800204D010008F13500082F29000874
:10001000ED350008D5060008F14800080000000092
:100020000000000000000000000000000F45000874
:10003000D906000800000000F335000867450008F5
:1000400067010008670100086701000867010008F0
:1000500067010008670100086701000867010008E0
:1000600067010008670100086701000867010008D0
:1000700067010008670100086701000867010008C0
:1000800067010008670100086701000867010008B0
:1000900067010008670100086701000867010008A0
:1000A0006701000867010008670100086701000890
:1000B0006701000867010008670100086701000880
:1000C0006701000867010008670100086701000870
:1000D00067010008CD4800086701000867010008B3
:1000E0006701000867010008670100086701000850
:1000F0006701000867010008670100086701000840
:10010000670100086701000867010008670100082F
:10011000670100086701000867010008670100081F
:10012000670100086701000867010008670100080F
:10013000DFF80CD000F0BCFA004800474974000812
:1001400080F8002080F30888704700000648804748
:1001500006480047FEE7FEE7FEE7FEE7FEE7FEE7AC
:10016000FEE7FEE7FEE7FEE7714500083101000803
:100170002DE9F05F0546002092469B4688460646DC
:10018000814640241BE0284641464746224600F06F
:1001900020F853465A46C01A914110D311461846CA
:1001A000224600F07FF92D1A67EB01084F462246E0
:1001B0000120002100F076F917EB00094E41201EC6
:1001C000A4F10104DFDC484631462A464346BDE837
:1001D000F09F202A04DB203A21FA02F00021704728
:1001E00021FA02F3D040C2F120029140084319469F
:1001F000704730B505462A460B4612F8010B13F836
:10020000014B08B1A042F8D01CB1002802D06D1CEF
:10021000F1E7284630BD2DE9FE4F804681EA030014
:10022000C00F0C46009021F0004123F00045B8EBD0
:100230000200A94105D24046214690461C460B4685
:10024000024623F00040104347D0270DC7F30A00B1
:10025000C3F30A510290401A019040286BDAC3F3AD
:10026000130040F4801B0098924620B10023D2EB8B
:10027000030A63EB0B0B01985946C0F1400250464C
:1002800000F010F906460D4650465946019A00F016
:1002900018F910EB08006141002487EA115284EA42
:1002A000E7731A4340D0009A62B3019A012A4FEAD9
:1002B000075215DC001B61EB02014FF0004202EA1D
:1002C0000752CDE90042001C41F5801132462B4611
:1002D00000F018F903B0BDE8F08F40462146F9E779
:1002E000001B61EB0201001C41F5801300185B410B
:1002F0002018A2F5001747EB030140EAD570B619A4
:100300006D4111E06D084FEA360645EAC0754FEAC7
:100310000752001B61EB0201001C41F580114908E6
:100320004FEA30000019514132462B4603B0BDE878
:10033000F04F00F0D8B80098012240000023D0EB25
:10034000020263EBE073009821464FEAE074B8EBD9
:10035000000061EB0401E9E783F000435BE781F013
:10036000004158E72DE9FE4F81EA030404F0004400
:1003700021F0004100944FF0000B23F0004350EABD
:1003800001045ED052EA03045BD0C3F30A54C1F304
:100390000A552C44A4F2F3340194A0FB0254C1F397
:1003A000130141F48011C3F3130343F4801301FBE1
:1003B000024400FB034E840A970A44EA815447EA48
:1003C0008357A4FB076802958D0A05FB07854FEA52
:1003D000932C04FB0C542705029D4FEA065847EA6C
:1003E0001637B5EB08056EEB070C870E920E47EA41
:1003F000811742EA8312A7FB0201B6EB0B0164EB03
:1004000000042B0D43EA0C335E1844EB1C50DA4613
:100410005146E7FB0201C5F313044FEA0B3343EAED
:1004200014534FEA0432019C43EA0603A4F10C047E
:100430000294009CCDE900B400F064F803B0BDE87C
:10044000F08F00200146F9E730B5041E71F1000479
:1004500004DB4FF00044404264EB0101141E73F1D1
:10046000000405DB1C464FF00043524263EB0403DB
:10047000994208BF904230BD30B50B46014600207E
:100480002022012409E021FA02F59D4205D303FA56
:1004900002F5491B04FA02F52844151EA2F10102D7
:1004A000F1DC30BD202A04DB203A00FA02F1002002
:1004B00070479140C2F1200320FA03F319439040A2
:1004C0007047202A06DBCB17203A41FA02F043EAB4
:1004D000E07306E041FA02F3D040C2F120029140FD
:1004E00008431946704710B5141E73F1000408DA6A
:1004F000401C41F1000192185B411A4301D120F0E8
:10050000010010BD2DE9F04D92469B4611B1B1FAA4
:1005100081F202E0B0FA80F220329046FFF7C2FF8B
:1005200004460F4640EA0A0041EA0B0153465A4688
:10053000084313D0114653EA010019D0C8F1400214
:100540005046FFF746FE05460E465046594642467F
:10055000FFF7A8FF084305D0012004E020463946F4
:10056000BDE8F08D0020054346EAE0762C43374392
:100570000A986305E40AA0EB08000022FD0A44EA99
:1005800047540A3002D500200146E9E70105101959
:100590006941DDE9084500196941BDE8F04DA2E770
:1005A0002DE9F04D81EA030404F0004B21F00045F1
:1005B00014464FF0000A23F0004150EA050220D013
:1005C00054EA01021DD0C5F30A570246C5F31303CE
:1005D000C1F31300C1F30A5640F4801543F48013AD
:1005E000A7EB0608101BD64608F2FD3873EB050092
:1005F00002D308F1010801E092185B41B8F1000F45
:1006000003DA00200146BDE8F08D00204FF4801190
:10061000064684460EE0171B73EB050705D3121B35
:1006200063EB050306434CEA010C49084FEA30002E
:1006300092185B4150EA0107EDD152EA030012D053
:1006400082EA040083EA0501084305D0101BAB4190
:1006500006D20122002306E000224FF0004302E010
:100660006FF0010253101AEB06004CEB085110EB2F
:100670000A0041EB0B01BDE8F04DFFF734BFC1F3B9
:100680000A52C1F3130140F2FF3341F480119A4240
:1006900002DA00200146704740F233439A42A2F248
:1006A000334202DC5242FFF794BDFFF7FBBE00006D
:1006B000064C074D06E0E06840F0010394E80700AF
:1006C00098471034AC42F6D3FFF736FDF4C8000863
:1006D00014C9000800BFFEE7704700000021074A68
:1006E000D1610749096941F00401054A11611146C8
:1006F000096941F04001116170470000700000205D
:10070000002002400021074AD1610749096941F0F0
:100710000201054A116111464861096941F0400131
:100720001161704770000020002002400022054B3C
:10073000DA61054A126942F00102034B1A61018035
:1007400070470000700000200020024000201E4979
:10075000C96801F0100139B11C49C96941F00201B1
:100760001A4AD16140F010001749C96801F004012C
:1007700039B11649C96941F00101144AD16140F00B
:1007800004001149C96901F0010169B10F49C96942
:1007900041F004010D4AD16100BF0B49C96921F044
:1007A0000101094AD16100BF00BF40F20111884236
:1007B00006D10549C96921F00101034AD16101E06F
:1007C0000149C86000BF704700200240700000204F
:1007D00070B5044600F012FC054609E0601C38B113
:1007E00024B100F00BFC401BA04201D9032070BDD6
:1007F0001248C06800F001000028EFD10F48C0681F
:1008000000F0200020B100BF20200C49C86000BFCC
:100810000A48C06800F0100048B90848C06900F0F4
:10082000010020B90548C06800F0040018B1FFF7C6
:100830008DFF0120DBE70020D9E700000020024007
:1008400070B50446B3F5804F13D1D1E9000540EAF5
:1008500005108D6840EA05208D6928438D8940EA9E
:10086000054054F82250064E3540284344F82200F3
:1008700003E06FF0704044F82200002070BD0000DB
:100880000000F0CF30B50246086852F8200020F092
:1008900001000C6842F824008868082801D1402330
:1008A00000E00023486818438C682043CC6820434C
:1008B0000C6920434C6920438C692043CC69204358
:1008C0000C6A20434C6A20438C6A2043CC6A204344
:1008D0000C6B20434C6B20430C6852F82440044DB1
:1008E0002C4020430C6842F82400002030BD00005A
:1008F0008000F0FF10B50346D1E9000440EA04107F
:100900008C6840EA04208C8940EA0444088A401E2E
:1009100044EA0054087D801E44EA00608C6920434C
:10092000541C53F8244004F040442043541C43F822
:100930002400002010BD000070B50446002594F886
:100940002100022803D00420A0630125C1E0206813
:10095000006820F00E00216808602068006820F020
:100960000100216808605C492068884252D95A49D0
:1009700078392068884201D1012047E0564964391E
:100980002068884201D1102040E053495039206846
:10099000884201D1801539E04F493C3920688842AE
:1009A00001D1801432E04C4928392068884202D1B4
:1009B0004FF480302AE0484914392068884202D137
:1009C0004FF4801022E044492068884201D140045D
:1009D0001CE042492068884201D1012016E03F49CD
:1009E00014312068884201D110200FE03B492831A2
:1009F0002068884201D1801508E038493C312068E0
:100A0000884201D1801401E04FF480303349091F3E
:100A1000086051E0304978392068884201D10120CE
:100A200047E02D4964392068884201D1102040E018
:100A3000294950392068884201D1801539E026497A
:100A40003C392068884201D1801432E0224928399B
:100A50002068884202D14FF480302AE01E491439C0
:100A60002068884202D14FF4801022E01A492068A1
:100A7000884201D140041CE018492068884201D115
:100A8000012016E0154914312068884201D1102058
:100A90000FE0124928312068884201D1801508E012
:100AA0000E493C312068884201D1801401E04FF4A6
:100AB0008030094980394860012084F8210000BF56
:100AC000002084F8200000BF606B10B12046616BED
:100AD0008847284670BD000080000240080402409C
:100AE00070B5044600F08AFA06462546681C10B127
:100AF00004480078054400BF00F080FA801BA8423B
:100B0000FAD370BD0C0000202DE9F04104460E46DA
:100B10000127002500BF2648007E012802D10220BF
:100B2000BDE8F08101202249087600BF2068022834
:100B300013D14CF25030FFF74BFE90BB0120FFF772
:100B4000CDFD4CF25030FFF743FE074619480069CF
:100B500020F004001749086123E04CF25030FFF701
:100B600037FEF0B94FF0FF303060A56812E028463C
:100B7000FFF7C8FD4CF25030FFF72AFE07460D483C
:100B8000006920F002000B4908610FB1356007E0F1
:100B900005F50065D4E9021001EBC020A842E6D8B3
:100BA00000BF00BF00200249087600BF3846B7E703
:100BB00070000020002002400348006940F08000DF
:100BC0000149086100207047002002402DE9FE4FD6
:100BD00005468B46174698460126002400200290C1
:100BE00000BF2448007E012802D10220BDE8FE8F0C
:100BF00001202049087600BF4CF25030FFF7E8FD95
:100C0000064686BB012D02D10120029006E0022D8E
:100C100002D10220029001E00420029000241EE094
:100C20002201B946C24648465146FFF7D2FA80B281
:100C30000190022000FB04B000900199FFF776FDBF
:100C40004CF25030FFF7C4FD06460B48006920F017
:100C500001000949086106B104E0601CC4B20298B1
:100C60008442DDDB00BF00BF00200249087600BFE0
:100C70003046BBE7700000200020024000200849F9
:100C8000096901F0800151B10649054A51600649E0
:100C900051601146096901F0800101B101207047DE
:100CA0000020024023016745AB89EFCD2DE9F847CD
:100CB000024600239C467BE14FF0010808FA03F44A
:100CC000D1F8008008EA0400A0427DD1DFF8F4A248
:100CD000D1F80480A8EB0A09D0453AD014DCB8F169
:100CE000030F50D009DCB8F1000F31D0B8F1010F7B
:100CF0001CD0B8F1020F49D120E0B8F1110F18D083
:100D0000B8F1120F42D11EE0B9F5881F25D006DCDC
:100D1000B9F5803F20D0B9F5801F37D11AE0B9F579
:100D2000001F18D0B9F5041F30D117E0D1F80CC05E
:100D30002DE0D1F80C8008F1040C28E0D1F80C80EB
:100D400008F1080C23E0D1F80C8008F10C0C1EE02F
:100D500000BF00BF00BF00BF00BF00BFD1F80880C8
:100D6000B8F1000F02D14FF0040C0BE0D1F808806D
:100D7000B8F1010F03D14FF0080C146102E04FF0FD
:100D8000080C546103E04FF0000C00E000BF00BF0E
:100D9000FF2801D8904601E002F104084646FF28EA
:100DA00002D84FEA830803E0A3F108084FEA880855
:100DB0004746D6F800804FF00F0909FA07F928EAEC
:100DC00009080CFA07F900E07AE048EA0908C6F8D1
:100DD0000080D1F8048008F08058B8F1805F6FD1AE
:100DE00000BFDFF8E481D8F8188048F00108DFF888
:100DF000D891C9F81880C846D8F8188008F00108BA
:100E0000CDF8008000BF00BF4FEAB9384FEA930920
:100E100058F829504FEA83784FEA18794FF00F08B5
:100E200008FA09F825EA0805DFF8A081424502D151
:100E30004FF0000824E0DFF89881424502D14FF0DE
:100E400001081DE0DFF88C81424502D14FF0020815
:100E500016E0DFF88481424502D14FF003080FE02D
:100E6000DFF87881424502D14FF0040808E0DFF84E
:100E70007081424502D14FF0050801E04FF00608AD
:100E80004FEA83794FEA197908FA09F848EA050523
:100E9000DFF850814FEA930948F82950D1F80480CF
:100EA00008F48038B8F5803F0BD1DFF83C81D8F8E2
:100EB000008048EA0008DFF83091C9F800800AE0B5
:100EC00075E0DFF82481D8F8008028EA0008DFF810
:100ED0001891C9F80080D1F8048008F40038B8F5FA
:100EE000003F0ED1DFF8008108F10408D8F8008037
:100EF00048EA0008DFF8F09009F10409C9F8008019
:100F00000DE0DFF8E48008F10408D8F8008028EA52
:100F10000008DFF8D49009F10409C9F80080D1F87D
:100F2000048008F48018B8F5801F0ED1DFF8B8806F
:100F300008F10808D8F8008048EA0008DFF8A8900F
:100F400009F10809C9F800800DE0DFF89C8008F17C
:100F50000808D8F8008028EA0008DFF88C9009F12A
:100F60000809C9F80080D1F8048008F40018B8F521
:100F7000001F0ED1DFF8708008F10C08D8F800804F
:100F800048EA0008DFF8609009F10C09C9F8008010
:100F90000DE0DFF8548008F10C08D8F8008028EA4A
:100FA0000008DFF8449009F10C09C9F800805B1CC7
:100FB000D1F8008028FA03F8B8F1000F7FF47CAE76
:100FC000BDE8F88700001110001002400008014041
:100FD000000C0140001001400014014000180140C5
:100FE000001C0140080001400004014002469368D3
:100FF0000B400BB1012000E0002070470148006861
:101000007047000004000020034800680349097885
:101010000844014908607047040000200C000020CB
:1010200010B50848006840F0100006490860052027
:1010300000F080F80F2000F007F800F02BF80020F7
:1010400010BD00000020024070B504460E48007834
:101050004FF47A71B1FBF0F00C490968B1FBF0F57F
:10106000284601F0B7FA08B1012070BD102C07D254
:1010700000222146501E00F01EF80548046001E0E1
:101080000120F2E70020F0E70C0000200000002023
:1010900008000020704701460846002809DB00F0E0
:1010A0001F0301229A4043099B0003F1E023C3F888
:1010B000002100BF70472DE9F05F80460D461646BF
:1010C000002703F00FFE074639462A46334601F053
:1010D0000700C0F1070ABAF1040F02D94FF0040A61
:1010E00001E0C0F1070AD14600F1040ABAF1070F86
:1010F00002D24FF0000A01E0A0F1030AD4464FF0FB
:10110000010A0AFA09FAAAF1010A0AEA020A0AFA23
:101110000CFA4FF0010B0BFA0CFBABF1010B0BEAD5
:10112000030B4AEA0B042146404603F0E3FDBDE809
:10113000F09F000000BF00F00702064B19684FF651
:10114000FF031940044B0B4343EA0221014B196092
:1011500000BF70470CED00E00000FA0570B50446D2
:101160000D460CB9012070BD5A48006800F0070018
:10117000A8420ED25748006820F00700284355497E
:1011800008600846006800F00700A84201D001206E
:10119000E9E7207800F0020002281DD1207800F055
:1011A0000400042805D14C48406840F4E0604A49F6
:1011B0004860207800F00800082805D146484068BB
:1011C00040F46050444948604348406820F0F000D3
:1011D000A168084340494860207800F0010078B3D6
:1011E0006068012806D13C48006800F4003090B9DE
:1011F0000120B8E76068022806D13748006800F08F
:10120000007040B90120AEE73348006800F00200EA
:1012100008B90120A7E73048406820F00300616862
:1012200008432D494860FFF7E9FE064609E0FFF74D
:10123000E5FE801B41F28831884202D9032092E703
:1012400007E02548406800F00C006168B0EB810FB2
:10125000EDD12048006800F00700A8420ED91D48D3
:10126000006820F0070028431A4908600846006813
:1012700000F00700A84201D0012074E7207800F0B8
:101280000400042807D11448406820F4E060E168B5
:10129000084311494860207800F00800082808D168
:1012A0000D48406820F46050216940EAC1000A49B5
:1012B000486000F03FF808494968C1F30311074A44
:1012C000515CC8400649086006480068FFF7BCFE4C
:1012D000002048E70020024000100240827D000804
:1012E000000000200800002001480068704700004E
:1012F0000000002000B5FFF7F7FF04494968C1F37B
:101300000221034A515CC84000BD000000100240A9
:10131000927D000800B5FFF7E7FF04494968C1F373
:10132000C221034A515CC84000BD000000100240C9
:10133000927D0008F0B585B00FF26C0C9CE8E010CF
:1013400001A8A0E8E0101CA52D680095002100224E
:10135000002300240020194D696801F00C05F5B147
:10136000042D02D0082D19D101E0154819E001AD76
:10137000C1F38346AC5D01F4803555B10F4D6D6806
:10138000C5F340451DF805200D4D6543B5FBF2F34F
:1013900002E00C4D04FB05F3184602E000BF0848CC
:1013A00000BF00BF05B0F0BD020304050607080931
:1013B0000A0B0C0D0E0F101001020000001002406D
:1013C00000127A0000093D00F8B504460CB901206E
:1013D000F8BD207800F00100002878D0F848406877
:1013E00000F00C0004280CD0F548406800F00C0018
:1013F000082811D1F248406800F48030B0F5803FF1
:101400000AD1EF48006800F4003000285FD060681F
:1014100000285CD10120DBE700BF6068B0F5803FA9
:1014200006D1E748006840F48030E549086028E0CC
:10143000606858B9E248006820F48030E0490860EC
:101440000846006820F4802008601AE06068B0F563
:10145000A02F0BD1DA48006840F48020D8490860FA
:101460000846006840F4803008600AE0D44800680C
:1014700020F48030D24908600846006820F48020BB
:10148000086000BF606888B1FFF7B8FD054606E058
:10149000FFF7B4FD401B642801D9032098E7C84832
:1014A000006800F400300028F2D010E0FFF7A6FD3D
:1014B000054606E0FFF7A2FD401B642801D9032082
:1014C00086E7BF48006800F400300028F2D1207899
:1014D00000F00200022857D1B948406800F00C0023
:1014E00050B1B748406800F00C00082818D1B44843
:1014F000406800F4803098B9B148006800F00200FC
:1015000020B12069012801D0012061E7AC480068C2
:1015100020F0F800616940EAC100A949086033E0A1
:101520002069E8B10120A7490860FFF767FD05467B
:1015300006E0FFF763FD401B022801D9032047E7BF
:101540009F48006800F002000028F2D09C48006824
:1015500020F0F800616940EAC1009949086013E091
:10156000002098490860FFF749FD054606E0FFF7AF
:1015700045FD401B022801D9032029E79048006857
:1015800000F002000028F2D1207800F008000828BE
:101590002DD1A069B8B101208B490860FFF72EFD5D
:1015A000054606E0FFF72AFD401B022801D903206B
:1015B0000EE78348406A00F002000028F2D00120C4
:1015C00002F018F813E000207F490860FFF716FDCD
:1015D000054606E0FFF712FD401B022801D9032053
:1015E000F6E67748406A00F002000028F2D1207841
:1015F00000F00400042873D100277148C06900F08E
:10160000805070B900BF6E48C06940F080506C498E
:10161000C8610846C06900F08050009000BF00BF5C
:1016200001276A48006800F48070B0B96748006814
:1016300040F4807065490860FFF7E0FC054606E06D
:10164000FFF7DCFC401B642801D90320C0E65F489B
:10165000006800F480700028F2D000BFE068012824
:1016600006D15748006A40F001005549086227E05A
:10167000E06858B95248006A20F0010050490862F9
:101680000846006A20F00400086219E0E0680528B6
:101690000BD14B48006A40F00400494908620846F3
:1016A000006A40F0010008620AE04548006A20F044
:1016B0000100434908620846006A20F004000862FD
:1016C00000BFE068A0B1FFF799FC054609E0FFF70D
:1016D00095FC401B41F28831884202D9032077E60D
:1016E00022E03748006A00F002000028EFD012E044
:1016F000FFF784FC054608E0FFF780FC401B41F241
:101700008831884201D9032062E62D48006A00F042
:1017100002000028F0D1012F05D12948C06920F02E
:1017200080502749C86100BFE069C8B324484068B9
:1017300000F00C00082860D0E069022848D10020A1
:1017400020490866FFF75AFC054606E0FFF756FCFD
:10175000401B022801D903203AE61948006800F02E
:1017600000700028F2D1206AB0F5803F07D11448FC
:10177000406820F40030A168084311494860D4E96A
:10178000080108430E49496821F4741108430C49C3
:10179000486001200B490866FFF730FC054607E06A
:1017A0003DE0FFF72BFC401B022801D903200FE688
:1017B0000348006800F000700028F2D02FE000001D
:1017C000001002400000424280044242007000408B
:1017D000002014490866FFF711FC054606E0FFF7F4
:1017E0000DFC401B022801D90320F1E50E480068DA
:1017F00000F000700028F2D111E0E069012800D16A
:10180000E6E50948466806F48031206A814204D141
:1018100006F47011606A814201D00120D8E50020F1
:10182000D6E50000000042420010024070B58AB0C8
:1018300004460D46032084F83400606C032820D051
:10184000B5F5805F04D1A06B40F08050A0631CE030
:10185000B5F5006F07D1204602F030FD0646A06BBB
:101860003043A06311E03DB9204602F0F3FC064688
:10187000A06B3043A06308E0A06B40F00060A06361
:1018800003E0A06B40F08050A063A06B38B110481B
:1018900021688863012084F834000AB070BD606854
:1018A0000490A0680590E06806900795606908902C
:1018B000A069099007A807C88DE80700206804A957
:1018C0000EC901F0D0FE012084F834000020E4E7C6
:1018D000FF05400010B50246506E800F0870506E34
:1018E000C0F383604870506EC0F301608870506E22
:1018F000000CC870B2F86400000A087192F8640025
:101900004871906E000DC880906EC0F3034008725D
:101910006820805AC0F3C03048726820805AC0F3F3
:10192000803088726820805AC0F34030C8726820C6
:10193000805AC0F30030087300204873506C0028B0
:1019400036D16820805A8005030DD06E43EA90702E
:101950000861D06EC0F3C2600875D06EC0F302603B
:101960004875D06EC0F342508875D06EC0F3824087
:10197000C875D06EC0F3C23008760869401C506547
:101980000B7E506D03F007039B1C01249C406043B9
:101990005065087A00F00F03012098409065D2E965
:1019A00015035B0A5843D0654FF40073136621E0BA
:1019B000506C012813D16820805C8006830AD06EA9
:1019C00043EA104008610869401C83025365536D67
:1019D000D3654FF400739365936D13660AE02E4848
:1019E00013689863906B40F080509063012082F8F8
:1019F000340010BD6C20805AC0F3803001F8190FFC
:101A00006C20805AC0F3C61048706C20805C00F0D7
:101A10007F008870106FC00FC870106FC0F34170E6
:101A20000871106FC0F382604871106FC0F383506B
:101A30008871106FC0F34050C87100200872106F99
:101A4000C0F3004048727020805AC0F3C0308872E2
:101A50007020805AC0F38030C8727020805AC0F362
:101A6000403008737020805AC0F3003048737020F3
:101A7000805AC0F3812088737020805AC0F30120FF
:101A8000C8737020805CC0F346000874012048745D
:101A900019390020ADE70000FF0540000246506CF8
:101AA0000860906C4860D06C8860106DC860506DA4
:101AB0000861906D4861D06D8861106EC86100202A
:101AC0007047F8B50446002000906946204602F0B1
:101AD000A9FB054615B1A06B2843A0630098C0F38D
:101AE00043263046F8BD10B504460CB9012010BDA0
:101AF00094F8340020B900202077204600F054F8F4
:101B0000032084F83400204600F00CF808B10120CE
:101B1000EDE70020A0632063012084F8340000205A
:101B2000E5E7000070B58AB00446002004900590F7
:101B30000690079008907620099007A807C88DE8BE
:101B40000700206804A90EC901F08DFD064616B1F4
:101B500001200AB070BD002012490860206801F021
:101B60009CFD01200F49A039C1F8A000204602F0D9
:101B7000C9FA05463DB1012084F83400A06B284322
:101B8000A0630120E5E7204602F03AFA05463DB1A0
:101B9000012084F83400A06B2843A0630120D8E71B
:101BA0000020D6E7A000304210B586B0044600BF42
:101BB0002448406940F480602249486108464069F1
:101BC00000F48060019000BF00BF00BF084640697C
:101BD00040F0020048610846406900F002000190B0
:101BE00000BF00BF00BF0846806940F01000886158
:101BF0000846806900F01000019000BF00BF00BFE0
:101C00000846806940F0200088610846806900F03D
:101C10002000019000BF00BF4FF4F8500290022056
:101C20000390012004900320059002A90648FFF7C5
:101C30003DF80420029002A90448FFF737F806B0E7
:101C400010BD0000001002400010014000140140CF
:101C50002DE9F04F87B004468A4690461E46DDF8CF
:101C600040900025FFF7CAF90090AB465746BAF1FD
:101C7000000F07D1A06B40F00060A063012007B007
:101C8000BDE8F08F94F8340001287DD10020A063D6
:101C900008EB0601E06D814205D9A06B40F00070B1
:101CA000A0630120EBE7032084F8340000202168C2
:101CB000C862606C012801D04FEA48284FF40071D7
:101CC000206801F04BFD05464DB1704821688863DE
:101CD000A06B2843A063012084F83400CFE74FF0C5
:101CE000FF30019070020290902003900220049037
:101CF000002005900120069001A9206801F08EFCCB
:101D0000012E07D9022020634146206801F08EFD94
:101D1000054606E0012020634146206801F0A2FD4F
:101D200005464DB1594821688863A06B2843A063DC
:101D3000012084F83400A2E729E02068406B00F419
:101D4000004068B14FF0000B06E0206801F0AEFCE7
:101D500047F82B000BF1010BBBF1080FF5D320372F
:101D6000B9F1000F05D0FFF749F90099401A48452D
:101D70000DD3464821688863A06B40F00040A06303
:101D8000012084F8340000E079E0032077E7206840
:101D9000406B40F22A3108400028CED02068406BCA
:101DA00000F4807098B1012E11D9606C03280ED018
:101DB000206801F017FE05464DB13448216888635C
:101DC000A06B2843A063012084F8340057E7206803
:101DD000406B00F0080050B12C4821688863A06B6C
:101DE00040F00800A063012084F8340047E7206831
:101DF000406B00F0020050B1244821688863A06B5A
:101E000040F00200A063012084F8340037E7206826
:101E1000406B00F0200050B11C4821688863A06B23
:101E200040F02000A063012084F8340027E718E088
:101E3000206801F03BFC38603F1DB9F1000F05D070
:101E4000FFF7DCF80099401A48450AD30F4821688B
:101E50008863A06B40F00040A063012084F8340048
:101E60000DE72068406B00F400100028E0D107481F
:101E700021688863012084F834000020FFE6A06B0D
:101E800040F00050A0630120F9E60000FF0540008B
:101E90002DE9F04F87B00446884617461E46DDF808
:101EA00040B00025FFF7AAF80090A946C246B8F155
:101EB000000F07D1A06B40F00060A063012007B0C5
:101EC000BDE8F08F94F8340001287BD10020A06396
:101ED000B919E06D814205D9A06B40F00070A06394
:101EE0000120ECE7032084F8340000202168C86258
:101EF000606C012800D07F024FF40071206801F06F
:101F00002DFC05464DB15F4821688863A06B2843CE
:101F1000A063012084F83400D1E7012E07D92020E6
:101F200020633946206801F07BFD054606E010205D
:101F300020633946206801F08FFD05464DB15148B8
:101F400021688863A06B2843A063012084F83400D3
:101F5000B5E74FF0FF30019070020290902003909F
:101F60000020049005900120069001A9206801F04E
:101F700055FB28E02068406B00F4804070B14FF0C2
:101F8000000906E00AEB8901206801F0A7FB09F1CE
:101F90000109B9F1080FF5D30AF1200ABBF1000FCE
:101FA00005D0FFF72BF80099401A58450BD3354858
:101FB00021688863A06B2843A063012084F8340063
:101FC00003207CE757E02068406B40F21A3108405C
:101FD0000028CFD02068406B00F4807098B1012EAB
:101FE00011D9606C03280ED0206801F0FBFC054677
:101FF0004DB1244821688863A06B2843A063012069
:1020000084F834005BE72068406B00F0080050B1B2
:102010001C4821688863A06B40F00800A063012081
:1020200084F834004BE72068406B00F0020050B1A8
:10203000144821688863A06B40F00200A06301206F
:1020400084F834003BE72068406B00F0100050B18A
:102050000C4821688863A06B40F01000A063012049
:1020600084F834002BE7074821688863012084F84E
:102070003400002023E7A06B40F00050A063012053
:102080001DE70000FF05400010B504460CB9012013
:1020900010BD606A00B900BFA06AB0F5005F00D152
:1020A00000BF94F8510028B9002084F85000204661
:1020B00000F038F8022084F851002068006820F011
:1020C000400021680860D4E901010843E168084341
:1020D0002169084361690843218B01F400710843B9
:1020E000E1690843216A0843A16A0843216808603E
:1020F0000421A06901EA104021684860A06AB0F597
:10210000005F02D12168E06A08612068C06920F49C
:1021100000602168C86100206065012084F85100DA
:102120000020B5E710B586B0044600BF13488069AB
:1021300040F00400114988610846806900F00400FD
:10214000019000BF00BF00BF0846806940F4805086
:1021500088610846806900F48050019000BF00BF8C
:10216000E0200290022003900120049003200590BB
:1021700002A90348FEF79AFD06B010BD0010024008
:10218000000801402DE9FF5F0446884691461D4640
:102190000E9E012002900020019000BF94F8500094
:1021A000012803D1022004B0BDE8F09F012084F88B
:1021B000500000BFFEF722FF074694F851B0606858
:1021C0000390AA46BBF1010F0BD00398B0F5827FB4
:1021D00004D1A06810B9BBF1040F02D00220019015
:1021E0003DE1B8F1000F03D0B9F1000F00D015B9EF
:1021F0000120019033E194F85100042802D0052019
:1022000084F8510000206065C4F83890E587A58700
:10221000C4F83080E586A58620646064A06AB0F5C5
:10222000005F0DD100BF2068006820F400502168D5
:1022300008602068006840F400502168086000BF12
:102240002068006800F04000402805D02068006841
:1022500040F0400021680860E068B0F5006F56D19A
:10226000606810B1BAF1010F09D1206B00882168B4
:10227000C860206B801C2063E08E401EE0863FE03B
:102280002068806800F0020002281CD1E08ED0B1E6
:102290000298012817D1206B00882168C860206B44
:1022A000801C2063E08E401EE08600200290E08EBD
:1022B00048B9A06AB0F5005F05D12068006840F415
:1022C0008050216808602068806800F0010068B1D3
:1022D000E08F58B12068C068A16B0880A06B801C9B
:1022E000A063E08F401EE08701200290FEF786FE8B
:1022F000C01BB04204D3701C10B103200190AEE0AB
:10230000E08E0028BCD1E08F0028B9D156E060688B
:1023100010B1BAF1010F09D1206B00782168087360
:10232000206B401C2063E08E401EE08640E0206869
:10233000806800F0020002281CD1E08ED0B1029823
:10234000012817D1206B007821680873206B401C8E
:102350002063E08E401EE08600200290E08E48B9A7
:10236000A06AB0F5005F05D12068006840F4805095
:10237000216808602068806800F0010068B1E08F83
:1023800058B12068C068A16B0870A06B401CA063A6
:10239000E08F401EE08701200290FEF72FFEC01B59
:1023A000B04201D3701C00B916B90320019056E069
:1023B000E08E0028BBD1E08F0028B8D1A06AB0F52C
:1023C000005F10D13346012211462046009702F0EB
:1023D0004AF830B1606D40F0020060650320019062
:1023E0003DE02068C06820688068C0F30010E8B154
:1023F000204602F035F8012814D1606D40F002004B
:10240000606500BF2068006820F400502168086003
:102410002068006840F400502168086000BF012077
:10242000019003E04FF6EF70216888603A4631462C
:10243000204602F001F820B10120019020206065C3
:102440000DE0A06850B900BF002000902068C0686F
:10245000009020688068009000BF00BF00BF01208E
:1024600084F8510000BF002084F8500000BF01989C
:1024700099E670B504460E4615460CB9012070BDAC
:1024800094F8410028B9002084F84000204600F06C
:102490001FF804F108012068FEF7F4F93146A2683C
:1024A0002068FEF727FA2946236BD4E90102FEF7DC
:1024B000C7F9A168206850F8210040F00100A26827
:1024C000216841F82200012084F841000020D6E76D
:1024D00010B586B0044600BF3148806940F0200046
:1024E0002F4988610846806900F02000019000BFF4
:1024F00000BF00BF0846806940F040008861084680
:10250000806900F04000019000BF00BF00BF084696
:10251000806940F0800088610846806900F0800092
:10252000019000BF00BF00BF0846806940F4807082
:1025300088610846806900F48070019000BF00BF88
:1025400000BF0846406940F4807048610846406911
:1025500000F48070019000BF00BF01200390049040
:10256000032005908814029002A90E48FEF79EFBF6
:102570000220029002A90C48FEF798FB022003906B
:102580004CF6B370029002A90648FEF78FFB4FF697
:102590008070029002A90448FEF788FB06B010BDC7
:1025A000001002400014014000180140042808D126
:1025B0004FF0E021096941F004014FF0E022116180
:1025C00007E04FF0E021096921F004014FF0E0221B
:1025D0001161704770B504462546681EB0F1807FD2
:1025E00001D301200FE0681E4FF0E02148610F2168
:1025F0004FF0FF3002F07EFB00204FF0E0218861B9
:1026000007200861002070BD704700002DE9F047E9
:102610000446206805682068C668206847694FF04E
:102620000008C14605F00F08B8F1000F0AD105F007
:10263000200038B106F0200020B1204601F0EEFF66
:10264000BDE8F087B8F1000F6DD007F0010018B9B0
:1026500006F49070002866D005F0010030B106F451
:10266000807018B1E06B40F00100E06305F00400F9
:1026700030B107F0010018B1E06B40F00200E063F8
:1026800005F0020030B107F0010018B1E06B40F036
:102690000400E06305F0080030B107F0010018B154
:1026A000E06B40F00800E063E06B68B305F02000E9
:1026B00028B106F0200010B1204601F0AFFF2068DD
:1026C0004069C0F38019E06B00F0080010B9B9F15F
:1026D000000F22D0204601F081FF2068406900F001
:1026E0004000B0B12068406920F040002168486196
:1026F000606B50B11748616B4863606BFEF71CF963
:1027000010B1606B416B88470CE02046FFF77CFFFF
:1027100008E02046FFF778FF04E02046FFF774FF4B
:102720000020E0638CE705F0800030B106F0800007
:1027300018B1204602F096F882E705F0400030B16B
:1027400006F0400018B1204601F058FF78E700BFBE
:1027500076E70000C945000810B504460CB9012011
:1027600010BDA06900B100E000BF94F8390028B99D
:10277000002084F83800204600F028F8242084F84F
:1027800039002068C06820F400502168C8602046E5
:1027900001F098FF2068006920F4904021680861EA
:1027A0002068406920F02A00216848612068C068DC
:1027B00040F400502168C8600020E063202084F8C5
:1027C000390084F83A000020CAE7000010B586B04E
:1027D00004462849206888424AD100BF00BF2648E5
:1027E000806940F00400244988610846806900F04F
:1027F0000400019000BF00BF00BF00BF00BF08463B
:10280000806940F0040088610846806900F0040097
:10281000019000BF00BF00BF00BF00BF0846806935
:1028200040F4804088610846806900F4804001904F
:1028300000BF00BF00BF4815029002200390012096
:1028400004900320059002A90C48FEF72FFA4FF4DC
:10285000806002900020039002A90848FEF726FA43
:102860002520FEF718FC032211462520FEF723FC45
:1028700006B010BD003801400010024000080140C1
:1028800010B5034693F83A0020282FD101B10AB9B8
:10289000012010BD00BF93F83800012801D10220AB
:1028A000F7E7012083F8380000BF99629A85DA853E
:1028B0000020D863222083F83A0000BF002083F86C
:1028C000380000BF1868C06840F480701C68E06081
:1028D0001868406940F001001C6860611868C068B1
:1028E00040F020001C68E0600020D2E70220D0E722
:1028F0000A4A016891420FD109490968B1F5204F90
:102900000AD208490978084A054B1B68D154044982
:102910000968491C024A11607047000000380140F4
:102920001C0000201A00002000100020704700BF8B
:10293000FEE7000010B54FF40030064908600120A2
:10294000FEF7CEF80220034908600120FEF7C8F820
:1029500010BD00001018014072B6704762B6704793
:1029600000B585B000BF1A48806940F004001849DE
:1029700088610846806900F00400009000BF00BF35
:1029800000BF0846806940F01000886108468069F1
:1029900000F01000009000BF00BF01200190002057
:1029A0000290022003900320049001A90948FEF739
:1029B0007DF94FF400500190002002900120039017
:1029C0000320049001A90448FEF770F905B000BD8A
:1029D00000100240000801400010014010B50446FC
:1029E000012C01D11B4908701A48007810B301214D
:1029F0001948FEF7FBFA012806D04FF4005117489A
:102A0000FEF7F4FA012815D10A2003F0B5F90020E9
:102A10001049087001211048FEF7E8FA012800D19A
:102A200010BD4FF400510D48FEF7E0FA01280FD118
:102A30000220F5E701210848FEF7D8FA40B94FF423
:102A400000510648FEF7D2FA10B90120014908707A
:102A50000020E5E7280000200008014000100140A8
:102A600070B5044600260948058840884543002182
:102A7000084600F0D9FB00F0A7FD00BF02E00448C3
:102A80000480761CAE42FAD370BD0000180100200D
:102A90000000026010B504460F48847164B9F0204C
:102AA0000D4908804FF4A07048802C2008812A200E
:102AB00048812B2088810BE04FF4A07006490880E4
:102AC000F02048802C2008812A2048812B208881F2
:102AD000032000F0BBFA10BD1801002030B50446F9
:102AE0000D463848808845F21051884220D135493A
:102AF000488900F05DFD201200F04EFD3149498902
:102B0000491C88B200F054FDE0B200F045FD2D49AB
:102B1000888900F04DFD281200F03EFD2949898981
:102B2000491C88B200F044FDE8B200F035FD42E0F7
:102B30002448808841F66311884228D12148807951
:102B400020B920480088401E001B84B21D494889D6
:102B500000F02EFD201200F01FFDE0B200F01CFD81
:102B6000201200F019FDE0B200F016FD1549888929
:102B700000F01EFD281200F00FFDE8B200F00CFD81
:102B8000281200F009FDE8B200F006FD13E00D493F
:102B9000488900F00DFD201200F0FEFCE0B200F0CC
:102BA000FBFC0849888900F003FD281200F0F4FCC2
:102BB000E8B200F0F1FC0348008903490880881C52
:102BC000028030BD18010020FEFF016000B58DB00D
:102BD00000BFFE48806940F00800FC498861084653
:102BE000806900F00800019000BF00BF88140990C0
:102BF00001200A900B9003200C9009A9F448FEF7DD
:102C000055F80120F34908604FF02040F249086070
:102C1000F2484860002088600021EF48C160082128
:102C200001611021416100218161C16141624FF464
:102C3000805181620021C162016341638163002090
:102C400002900390082004900020059006900790C1
:102C50004FF08050089002AA02A9DF48FFF709FC54
:102C6000322003F089F8FFF765FED32000F0A0FCC6
:102C700000F0E2F9DA49888000F0DEF9D84988806E
:102C800000F0DAF9D6498880084680884FF6FF714F
:102C900001EA0020D249888000F0CEF9D049898825
:102CA0000843CF4988800846808849F241318842EC
:102CB0007DD0042000F07CFC00F0BEF9C84988807B
:102CC00000F0BAF9C649888000F0B6F9C449888096
:102CD000084680884FF6FF7101EA0020C0498880CD
:102CE00000F0AAF9BE4989880843BD498880084692
:102CF000808848F25251884203D147F28970B8491E
:102D00008880B748808847F289718842D0D0D42023
:102D100000F04EFC00F090F9B149888000F08CF989
:102D2000AF49888000F088F9AD49888008468088DE
:102D30004FF6FF7101EA0020A949888000F07CF974
:102D4000A74989880843A64988800846808845F2B3
:102D50001031884262D055214FF4704000F03EFCA3
:102D6000AA214FF2010000F039FC52214FF202007B
:102D700000F034FC08214FF2030000F02FFC012189
:102D80004FF2040000F02AFC4FF4454000F010FC24
:102D900000F052F992498880084680884FF6FF710A
:102DA00001EA00208E4988804CF2015000E035E0B5
:102DB00000F0FEFB00F040F9894989880843884902
:102DC0008880322002F0D8FF8548808845F2105173
:102DD000884223D0A12000F0EBFB00F02DF98049C0
:102DE000888000F029F97E498880084680884FF65F
:102DF000FF7101EA00207A49888000F01DF97849C6
:102E000089880843764988800846808845F2617140
:102E1000884203D141F663107149888070488188E7
:102E200070A001F03BFF6E48808847F289718842AC
:102E30007ED1112000F0BCFB782002F09DFF3620EF
:102E400000F0B6FB002000F0A7FB3A2000F0B0FB3A
:102E5000052000F0A1FBB22000F0AAFB0C2000F03E
:102E60009BFB0C2000F098FB002000F095FB33202A
:102E700000F092FB332000F08FFBB72000F098FBAE
:102E8000352000F089FBBB2000F092FB322000F0DF
:102E900083FBC02000F08CFB0C2000F07DFBC220E7
:102EA00000F086FB012000F077FBC32000F080FBE0
:102EB000102000F071FBC42000F07AFB202000F00D
:102EC0006BFBC62000F074FB0F2000F065FBD020E8
:102ED00000F06EFBA42000F05FFBA12000F05CFB83
:102EE000E02000F065FBD02000F056FB002000F051
:102EF00053FB022000F050FB072000F04DFB0A209E
:102F000000F04AFB282000F047FB322000F044FB91
:102F1000442000F041FB422000F03EFB062000F080
:102F20003BFB0E2000F038FB122000F035FB00E0E8
:102F300068E0142000F030FB172000F02DFBE120AA
:102F400000F036FBD02000F027FB002000F024FB2F
:102F5000022000F021FB072000F01EFB0A2000F0F9
:102F60001BFB282000F018FB312000F015FB54203B
:102F700000F012FB472000F00FFB0E2000F00CFBCE
:102F80001C2000F009FB172000F006FB1B2000F0BE
:102F900003FB1E2000F000FB2A2000F009FB0020AC
:102FA00000F0FAFA002000F0F7FA002000F0F4FA3E
:102FB000EF2000F0F1FA2B2000F0FAFA002000F0E8
:102FC000EBFA002000F0E8FA012013E000100240C4
:102FD00000140140B0812242D0000020040100A072
:102FE00018010020204C43442049443A25780D0A1A
:102FF0000000000000F0D0FA3F2000F0CDFA2920B8
:1030000000F0D6FA0020FFF745FD002003490860D4
:103010004FF6FF70FFF724FD0DB000BDB0812242D6
:1030200010B50246012000E050430B1EA1F101043F
:10303000E1B2F9D110BD000008B503480088009046
:10304000BDF8000008BD000000000260F0B50646B3
:1030500000240027082E1CD2DFE806F00406090C25
:103060000F12151800BF14E044F0800411E044F082
:1030700040040EE044F0C0040BE044F0200408E0FB
:1030800044F0600405E044F0A00402E044F0E004F1
:1030900000BF00BF6348808845F21051884202D1CA
:1030A0004FF4585700E036275E48808849F2413196
:1030B000884205D05B48808847F28971884201D1F7
:1030C00044F008042146384600F088FA55488088C4
:1030D00041F6631188421DD004F0200068B15148C8
:1030E000008850494988884214DA4E48058840884B
:1030F0004C490880084645800CE04A480088494908
:103100004988884206DD4748058840884549088047
:10311000084645804348808845F21051884252D184
:103120004049488900F044FA002000F035FA3D4952
:103130004989491C88B200F03BFA002000F02CFAC3
:1031400038494989891C88B200F032FA3549098822
:10315000491EC1F30F2000F01FFA32494989C91CEA
:1031600088B200F025FA2F490978491EC8B200F04C
:1031700013FA2C49888900F01BFA002000F00CFAA1
:1031800028498989491C88B200F012FA002000F011
:1031900003FA24498989891C88B200F009FA214977
:1031A0004988491EC1F30F2000F0F6F91D498989AD
:1031B000C91C88B200F0FCF91A498978491EC8B2C6
:1031C00000F0EAF92DE01749488900F0F1F90020F4
:1031D00000F0E2F9002000F0DFF912490988491EE9
:1031E000C1F30F2000F0D8F90E490978491EC8B282
:1031F00000F0D2F90B49888900F0DAF9002000F0DC
:10320000CBF9002000F0C8F906494988491EC1F3EE
:103210000F2000F0C1F903498978491EC8B200F0B7
:10322000BBF9F0BD1801002010B502460C46454818
:10323000808841F66311884247D142488079A8B915
:1032400040480088401E801A82B23E49488900F0FA
:10325000AFF9002000F0A0F9002000F09DF9101255
:1032600000F09AF9D0B200F097F916E03549488994
:1032700000F09EF9101200F08FF9D0B200F08CF936
:1032800030490988491EC1F30F2000F085F92D4906
:103290000978491EC8B200F07FF92A49888900F0F0
:1032A00087F9201200F078F9E0B200F075F92549AD
:1032B0004988491EC1F30F2000F06EF92149897831
:1032C000491EC8B200F068F93AE01E48808845F20D
:1032D0001051884220D11B49488900F069F9101229
:1032E00000F05AF917494989491C88B200F060F981
:1032F000D0B200F051F91349888900F059F9201231
:1033000000F04AF90F498989491C88B200F050F948
:10331000E0B200F041F913E00A49488900F048F9A9
:10332000101200F039F9D0B200F036F90549888959
:1033300000F03EF9201200F02FF9E0B200F02CF975
:1033400010BD0000180100202DE9F84F80460E4600
:1033500017461C46B3462046E31704EB5373DB10B5
:1033600021464FEAE47C04EB5C7C4FEAEC0CA4EBD6
:10337000CC0CBCF1000F02D04FF0010C01E04FF07B
:10338000000C6344224604EBD27C4FEA6C0C03FB36
:103390000CF3DBB20093A7F12000C7B2002558E080
:1033A0000C2C07D107EB47002C4901EB800010F8EB
:1033B000059013E0102C05D1294800EB071010F8F8
:1033C00005900BE0182C07D107EBC700254901EB4E
:1033D000800010F8059001E0BDE8F88F4FF0000A7A
:1033E00031E009F0800038B11F48008882B23146D0
:1033F0004046FFF773FB08E00A9830B91B48008885
:1034000082B231464046FFF769FB4FEA49604FEA16
:103410001069701C86B216484088B04200DCDBE7B9
:10342000A6EB0B00A0420AD15E4608F101001FFA8C
:1034300080F80F480088404500DCCDE706E00AF13F
:10344000010000F0FF0ABAF1080FCADB00BF681CD8
:10345000C5B200988542A3DB00BFBDE79A7D000896
:103460000E820008FE8700082000002024000020B3
:10347000180100202DE9F84704460D46904699466C
:10348000DDE9096704F0FF0A08EB04001FFA80F881
:1034900009EB05001FFA80F916E0444502DB5446AB
:1034A000A81985B24D4500DB14E0002000903A7861
:1034B000334629462046FFF747FF304606EBD071DA
:1034C00004EB61018CB27F1C38787E2802DC3878EE
:1034D0002028E2DA00BFBDE8F8872DE9FF4F82B06F
:1034E000064692461F46DDE90F4800200190002560
:1034F0004DE0781B401EC1B20A20FFF791FDBAFBD8
:10350000F0F00A21B0FBF1F201FB1209019850BB67
:10351000781EA84227DDB9F1000F22D108F0800003
:1035200078B108F00100A34604EBDB71491001FB00
:103530000561009088B2234630220399FFF704FF0B
:103540000EE008F00100A34604EBDB71491001FB1B
:103550000561009088B2234620220399FFF7F4FE0C
:1035600013E00120019008F00100A34604EBDB7199
:10357000491001FB0561009088B209F13001CAB21F
:1035800023460399FFF7E0FE00BF681CC5B2BD42A9
:10359000AFDB06B0BDE8F08F01B5BDF800000090CC
:1035A000BDF800000149088008BD0000000002606D
:1035B00001B5BDF800000090BDF800000149088089
:1035C00008BD0000FEFF0160024800890249088032
:1035D0007047000018010020FEFF0160024A1080C1
:1035E000921C118070470000FEFF016000BFFEE7E3
:1035F0007047704708B508490968C9084FF47A72DE
:10360000B1FBF2F14143009100BF00BF00994A1E97
:1036100000920029F9D108BD0000002010B5024633
:1036200000230868506248689062D1E90204204390
:103630000C6920434C6920430343D06A20F0F70013
:103640001843D062002010BD01460869C0B270471F
:103650000146086800F003007047024602F11400BA
:103660004318186870470FB410B504460021DDE90F
:1036700003021043059A1043069A1043079A104319
:10368000089A10430143606847F6FF62904308437D
:103690006060002010BC5DF814FB10B504460320E8
:1036A00020600220FDF71CFA002010BD0146D1F871
:1036B0008000704710B50246002308689060D1E989
:1036C00001042043CC6820430C6920430343D068A5
:1036D0006FF30B001843D060002010BD024608684D
:1036E000C2F880000020704770B586B005460C46D1
:1036F00001943720029040200390002004904FF462
:103700008060059001A92846FFF7D4FF41F2883276
:103710003721284600F0DCF90646304606B070BD79
:1037200070B586B005460C460B4820430190292011
:10373000029040200390002004904FF48060059098
:1037400001A92846FFF7B6FF284600F0C9FA064649
:10375000304606B070BD00000000108070B586B025
:1037600005460C4601941020029040200390002052
:1037700004904FF48060059001A92846FFF79AFF56
:1037800041F288321021284600F0A2F90646304660
:1037900006B070BD70B586B005460C460194062093
:1037A000029040200390002004904FF48060059028
:1037B00001A92846FFF77EFF41F2883206212846FC
:1037C00000F086F90646304606B070BD30B585B0CB
:1037D0000446002000900190029003904FF4806016
:1037E000049069462046FFF765FF204600F050F937
:1037F0000546284605B030BD30B585B004464FF4C7
:10380000D570009008200190402002900020039085
:103810004FF48060049069462046FFF74BFF204636
:1038200000F0E6FA0546284605B030BD70B586B012
:1038300005460C460194122002904020039000207F
:1038400004904FF48060059001A92846FFF732FFED
:1038500041F288321221284600F03AF906463046F5
:1038600006B070BD70B586B005460C4601941120B7
:10387000029040200390002004904FF48060059057
:1038800001A92846FFF716FF41F288321121284688
:1038900000F01EF90646304606B070BDF0B585B0A2
:1038A000064614461D4600940720019040200290D1
:1038B000002003904FF48060049069463046FFF783
:1038C000F9FE41F288320721304600F001F907463F
:1038D000384605B0F0BD30B585B0044600200090F4
:1038E00002200190C0200290002003904FF48060DD
:1038F000049069462046FFF7DDFE204600F0BEF941
:103900000546284605B030BD70B586B005460C4664
:10391000019409200290C0200390002004904FF4ED
:103920008060059001A92846FFF7C4FE284600F0F4
:10393000A5F90646304606B070BD30B585B00446E0
:10394000002000903320019040200290002003903E
:103950004FF48060049069462046FFF7ABFE41F2C9
:1039600088323321204600F0B3F80546284605B0DA
:1039700030BD70B586B005460C4601940D2002900E
:1039800040200390002004904FF48060059001A92E
:103990002846FFF78FFE41F288320D21284600F0BD
:1039A00097F80646304606B070BD70B586B005463D
:1039B0000C4600200190032002904020039000203C
:1039C00004904FF48060059001A92846FFF772FE2D
:1039D00022460321284600F0AFF90646304606B0DD
:1039E00070BD000030B585B00446002000900C206A
:1039F000019040200290002003904FF480600490DA
:103A000069462046FFF756FE044A0C21204600F086
:103A10005FF80546284605B030BD000000E1F50519
:103A200070B586B005460C460194192002904020DE
:103A30000390002004904FF48060059001A928466F
:103A4000FFF738FE41F288321921284600F040F88D
:103A50000646304606B070BD70B586B005460C46C9
:103A600001941820029040200390002004904FF40D
:103A70008060059001A92846FFF71CFE41F28832BC
:103A80001821284600F024F80646304606B070BDDE
:103A900001460E480068C0084FF47A73B0FBF3F09B
:103AA00041F2883300FB03F200BF101EA2F10102B5
:103AB00002D14FF000407047486B00F080000028B2
:103AC000F3D0C52088630020F5E700000000002047
:103AD0002DE9F04305460F46904666480068C00849
:103AE0004FF47A71B0FBF1F000FB08F900BFB9F1B7
:103AF0000000A9F1010903D14FF00040BDE8F083B7
:103B00006E6B06F045000028F1D006F40060002836
:103B1000EDD1686B00F0040010B10420A863EDE75C
:103B2000686B00F0010010B10120A863E6E7C52032
:103B3000A8632846FFF788FDB84201D00120DDE7E1
:103B400000212846FFF789FD04464B48204008B96C
:103B50000020D3E704F00040B0F1004F02D14FF055
:103B60000070CBE704F08040B0F1804F01D14020DD
:103B7000C4E704F00050B0F1005F01D18020BDE740
:103B800004F08050B0F1805F02D14FF48070B5E74F
:103B900004F00060B0F1006F02D14FF40070ADE7A7
:103BA00004F08060B0F1806F02D14FF48060A5E72F
:103BB00004F08070B0F1807F02D14FF400609DE787
:103BC00004F40000B0F5000F02D14FF4805095E7E7
:103BD00004F48000B0F5800F02D14FF400508DE75F
:103BE00004F40010B0F5001F02D14FF4804085E7C7
:103BF00004F48010B0F5801F02D14FF400407DE73F
:103C000004F48020B0F5802F02D14FF4003075E726
:103C100004F40030B0F5003F02D14FF480206DE78E
:103C200004F48030B0F5803F02D14FF4002065E706
:103C300004F40040B0F5004F02D14FF480105DE76E
:103C400004F48040B0F5804F02D14FF4001055E7E6
:103C500004F40050B0F5005F02D14FF480004DE74E
:103C600004F00800082801D1000547E74FF4803030
:103C700044E700000000002008E0FFFD10B5014609
:103C800016480068C0084FF47A74B0FBF4F041F2B3
:103C9000883400FB04F300BF181EA3F1010302D116
:103CA0004FF0004010BD4A6B02F045000028F3D0F1
:103CB00002F400600028EFD1486B00F0040010B15E
:103CC00004208863EEE7486B00F0010010B101208A
:103CD0008863E7E7C52088630020E3E70000002051
:103CE00010B5014613480068C0084FF47A74B0FB61
:103CF000F4F041F2883400FB04F300BF181EA3F176
:103D0000010302D14FF0004010BD4A6B02F04500A4
:103D10000028F3D002F400600028EFD1486B00F0D7
:103D2000040010B104208863EEE7C52088630020FA
:103D3000EAE70000000000202DE9F04304460F46AA
:103D400090462A480068C0084FF47A71B0FBF1F041
:103D500041F2883100FB01F900BFB9F10000A9F17F
:103D6000010903D14FF00040BDE8F083666B06F017
:103D700045000028F1D006F400600028EDD1606B0A
:103D800000F0040010B10420A063EDE7606B00F0C8
:103D9000010010B10120A063E6E72046FFF754FCC4
:103DA000B84201D00120DFE7C520A06300212046F2
:103DB000FFF753FC054605F4604020B9280CA8F82D
:103DC00000000020D0E705F48040B0F5804F02D11C
:103DD0004FF40050C8E705F40040B0F5004F02D1A1
:103DE0004FF48050C0E74FF48030BDE70000002062
:103DF00010B5014618480068C0084FF47A74B0FB4B
:103E0000F4F041F2883400FB04F300BF181EA3F164
:103E1000010302D14FF0004010BD4A6B02F0450093
:103E20000028F3D002F400600028EFD1486B00F0C6
:103E3000040010B104208863EEE7486B00F0010035
:103E400010B101208863E7E7486B00F0400008B13B
:103E5000402088630020DFE7000000202DE9F043C8
:103E600089B004460F46FDF7C9F881464FF00008B7
:103E70000020019002903E4608212068FFF76EFC6A
:103E800005461DB1284609B0BDE8F0835022125BFB
:103E900011042068FFF728FC05460DB12846F2E71B
:103EA0004FF0FF300390082004903020059002204E
:103EB0000690002007900120089003A92068FFF7D2
:103EC000ADFB2068FFF739FD05460DB12846DAE75E
:103ED00015E02068406B00F4001038B12068FFF74F
:103EE000E5FB01A941F8280008F10108FDF786F873
:103EF000A0EB0900401C10B94FF00040C3E7206858
:103F0000406B40F22A4108400028E2D02068406B14
:103F100000F0080018B1082021688863B3E7206822
:103F2000406B00F0020018B1022021688863AAE704
:103F30002068406B00F0200018B1202021688863C1
:103F4000A1E740F23A50216888630298000602997E
:103F500001F47F4140EA0120029901F47F0140EA27
:103F60001120029940EA11603060361D0198000668
:103F7000019901F47F4140EA0120019901F47F0198
:103F800040EA1120019940EA1160306000207AE790
:103F900010B50448FDF795FD042801D0012010BD9F
:103FA0000020FCE72801002010B5124812490860E3
:103FB00000204860002110488160C16001614FF419
:103FC0008041416104218161FDF78DFD04460CB102
:103FD000012010BD09490848FDF760FD4FF400615C
:103FE0000548FDF723FC04460CB10220F1E7002050
:103FF000EFE700000080014028010020AC01002014
:1040000030B58FB00446012003902068FFF720FBF5
:1040100018B94FF080600FB030BD606C03281BD022
:104020002068FFF758FC05460DB12846F3E700214C
:104030002068FFF712FB606704212068FFF70DFB83
:10404000A06708212068FFF708FBE0670C212068C3
:10405000FFF703FB80210851606C032807D003A9F8
:104060002068FFF7A2FC05460DB12846D3E7606C37
:10407000032820D0BDF80C1021655022125B1104DA
:104080002068FFF741FC05460DB12846C3E7002133
:104090002068FFF7E2FA606604212068FFF7DDFA86
:1040A000A06608212068FFF7D8FAE0660C21206896
:1040B000FFF7D3FA206704212068FFF7CEFA010D3D
:1040C000E16404A92046FDF705FC10B14FF08050D3
:1040D000A1E75020005B01040A4600232068FFF797
:1040E000DDFB05460DB1284695E7D4E90412A06929
:1040F000CDE90012029094E80F00FFF7B4FA002017
:1041000089E70000F8B5044600200090002600274B
:104110002068FFF75BFB05460DB12846F8BD206817
:10412000FFF76AFB054645B10021A1642068FFF74F
:104130004DFB05461DB12846F0E70121A164A06CA6
:10414000012808D100212068FFF7CEFA054615B1F5
:104150004FF08050E2E71DE000212068FFF7C4FA2D
:1041600005460DB12846D9E718492068FFF7D8FA67
:10417000054615B14FF08050D0E700212068FFF7C9
:104180006CFA0646012080EAD67080F0010700989C
:10419000401C00904FF6FF710098884201D2002F1A
:1041A000DAD04FF6FF710098884202D34FF080704A
:1041B000B4E706F08040B0F1804F02D10120606486
:1041C00001E0002060640020A8E70000000010C1AA
:1041D0002DE9F84605460C4616464FF00009DFF873
:1041E0003CA02746FEF7B8FB504633463A462946E0
:1041F00000900B48FDF72CFD814606E0BAF1000067
:10420000AAF1010A01D14FF00109FFF7C1FE002810
:10421000F4D1FEF7A3FB4846BDE8F88600E1F505BA
:104220002801002070B504460D4615B94FF0006016
:1042300070BD5022125B11042068FFF79AFB0646FE
:104240000EB13046F4E700212068FFF706FA286037
:104250000020EDE77CB5044600200090019000218D
:104260002068FFF7FAF900F00070B0F1007F02D18A
:104270004FF400607CBD69462046FFF7EFFD054620
:104280000DB12846F6E7019800F4803098B150222D
:10429000125B11042068FFF727FA05460DB1284686
:1042A000E8E700212068FFF775FA05460DB12846BA
:1042B000E0E70020DEE74FF08060DBE77CB50446F6
:1042C00000200090019000212068FFF7C6F900F05F
:1042D0000070B0F1007F02D14FF400607CBD6946F0
:1042E0002046FFF7BBFD05460DB12846F6E70198CD
:1042F00000F4802098B15022125B11042068FFF76F
:10430000F3F905460DB12846E8E702212068FFF7DA
:1043100041FA05460DB12846E0E70020DEE74FF000
:104320008060DBE72DE9F84605460C4616464FF05F
:104330000009DFF83CA02746FEF70EFB5046334647
:104340003A46294600900B48FDF7A2FD814606E05B
:10435000BAF10000AAF1010A01D14FF00109FFF7FB
:1043600017FE0028F4D1FEF7F9FA4846BDE8F886B2
:1043700000E1F5052801002010B513481349086035
:104380004FF482704860002110488160C1600221B2
:10439000016101214161490281613821C16100212E
:1043A0000162416281620721C162FDF76DFE07482B
:1043B0000068006840F04000044909680860FF2078
:1043C00000F006F810BD0000003001405404002049
:1043D00001B582B04FF47A70012301AA02A90090BE
:1043E0000248FDF7CFFE9DF804000EBD54040020E6
:1043F00010490968096821F040010E4A12681160ED
:104400000C49096809684FF6C7721140094A1268D9
:1044100011600849096809680143064A1268116079
:1044200004490968096841F04001024A12681160B4
:104430007047000054040020F8B504460D461646A7
:104440002B46002280212046009600F00CF828B16F
:10445000606D40F0200060650320F8BD0020FCE79F
:104460000146012070472DE9F04104460E461746EB
:104470001D46DDF818803EE0681CD8B3FCF7BEFD91
:10448000A0EB0800A84200D2A5BB2068406820F03D
:10449000E000216848606068B0F5827F0DD1A068B7
:1044A000B0F5004F03D0A068B0F5806F05D120684B
:1044B000006820F0400021680860A06AB0F5005F45
:1044C0000DD100BF2068006820F40050216808600A
:1044D0002068006840F400502168086000BF012097
:1044E00084F8510000BF002084F8500000BF032072
:1044F000BDE8F081FFE7206880683040B04201D11C
:10450000012000E00020B842B6D10020F0E770475B
:1045100030B58FB0054600240120059000040690B8
:104520000020079002200C90C1030D910E9505A864
:10453000FCF74AFF04460CB100BFFEE70F200090D5
:1045400002200190002002904FF480600390002030
:10455000049002216846FCF701FE04460CB100BF3E
:10456000FEE70FB030BD10B5FCF74EFD10BD0000EA
:104570001148006840F001000F4908600846406893
:104580000E4908400C494860084600680C4908403C
:10459000094908600846006820F480200860084641
:1045A000406820F4FE0048604FF41F008860C80394
:1045B0000449086070470000001002400000FFF846
:1045C000FFFFF6FE08ED00E070B505466C6A0020BE
:1045D000E085E0842046FEF717F870BD0168C968E1
:1045E00021F490710268D1600168496921F00101EC
:1045F00002685161202180F83A10704710B50446D6
:104600002068C06820F040002168C860202084F83D
:1046100039002046FEF78AF9002010BD70B5044627
:1046200094F83A0022284AD1A068B0F5805F13D1EF
:10463000A56A206940B920684068C0F30800288056
:10464000A06A801CA06219E020684068C0B228807F
:10465000A06A401CA06211E0206938B92068406857
:10466000C1B2A26A501CA062117007E020684068C5
:1046700000F07F01A26A501CA0621170E08D401E04
:1046800080B2E085C8B92068C06820F020002168A9
:10469000C8602068C06820F480702168C860206805
:1046A000406920F0010021684861202084F83A0028
:1046B0002046FEF71DF9002070BD0020FCE7022017
:1046C000FAE7000070B504462168096921F44051F9
:1046D000E2681143226811612269A168114362698D
:1046E00041EA02052168C96841F20C6291432943FD
:1046F0002268D1602168496921F44071A26911439F
:1047000022685161564A2168914254D1FCF702FE59
:1047100000EBC00101EB001162689200B1FBF2F105
:1047200000EBC00202EB001263689B00B2FBF3F2E5
:104730006423B2FBF3F202EBC20303EB0212A1EB20
:104740008201322202EB01116422B1FBF2F101F08D
:10475000F00100EBC00202EB001263689B00B2FBA9
:10476000F3F26423B2FBF3F201EB021200EBC0019F
:1047700001EB001163689B00B1FBF3F100EBC00398
:1047800003EB00136668B600B3FBF6F36426B3FBD5
:10479000F6F303EBC30606EB0313A1EB830132230D
:1047A00003EB01116423B1FBF3F101F00F0111449C
:1047B0002268916053E0FCF79DFD00EBC00101EB26
:1047C000001162689200B1FBF2F100EBC00202EB53
:1047D000001263689B00B2FBF3F26423B2FBF3F2B6
:1047E00002EBC20303EB0212A1EB8201322202EBC5
:1047F00001116422B1FBF2F101F0F00100EBC00203
:1048000002EB001263689B00B2FBF3F26423B2FB7D
:10481000F3F201EB021200EBC00101EB001163683F
:104820009B00B1FBF3F100EBC00303EB00136668E0
:10483000B600B3FBF6F36426B3FBF6F303EBC30653
:1048400006EB0313A1EB8301322303EB0111642375
:10485000B1FBF3F101F00F0111442268916070BDCA
:1048600000380140014691F8390021282CD1886890
:10487000B0F5805F0FD10A6A1088C0F308000B689A
:104880005860086918B9086A801C086209E0086A5B
:10489000401C086205E00B6A581C086218780B6817
:1048A0005860C88C401E80B2C88458B90868C06877
:1048B00020F080000B68D8600868C06840F04000B5
:1048C0000B68D860002070470220FCE710B506484E
:1048D000FDF79CFE00BF012204490348FDF7D0FF0D
:1048E0000028F8D110BD0000900000201A00002020
:1048F00000BFFEE710B50446240300F055F900F0B0
:10490000EDF800200F4908602020FFF761FD0E48F8
:1049100000884EF61871884202D1200EFFF758FD2C
:10492000C4F30740FFF754FDC4F30720FFF750FD21
:10493000E0B2FFF74DFD01200249086000F0CEF81B
:1049400010BD0000800122422A00002010B586B070
:1049500000BF1E48806940F010001C49886108466D
:10496000806900F01000019000BF00BF012002909C
:10497000039004900320059002A91548FCF796F9CE
:10498000012014490860FFF7F7FC0020FFF730FD15
:1049900000F058F810490880084600884EF6187153
:1049A000884210D1032000F071F8044604F00100A1
:1049B00048B9002007490860B720FFF709FD01202A
:1049C0000649C1F8800106B010BD00000010024089
:1049D00000100140800122422A00002000002242F3
:1049E0002DE9F04106460C461746002013490860A1
:1049F0000320FFF7EDFC124800884EF6187188423C
:104A000002D1200EFFF7E4FCC4F30740FFF7E0FCFF
:104A1000C4F30720FFF7DCFCE0B2FFF7D9FC002568
:104A200005E0FF20FFF7D4FC7055681C85B2BD423D
:104A3000F7DB012001490860BDE8F08180012242D6
:104A40002A00002010B5002400200E4908609020A4
:104A5000FFF7BEFC0020FFF7BBFC0020FFF7B8FC0F
:104A60000020FFF7B5FCFF20FFF7B2FC44EA00246A
:104A7000FF20FFF7ADFC044301200349C1F880018A
:104A8000204610BD800122420000224270B504463B
:104A900000250026012C04D0022C04D0032C06D1C2
:104AA00003E0052605E0352603E0152601E005268E
:104AB00000BF00BF0020074908603046FFF788FCB0
:104AC000FF20FFF785FC054601200349C1F880015E
:104AD000284670BD800122420000224210B500BF6E
:104AE0000120FFF7D3FF00F001000028F8D110BD2E
:104AF0002DE9F05F81460F461646DFF8A8B04FEA71
:104B00001738C7F30B0ACAF58054A64200DC3446B6
:104B100044E04FEA08314FF480525846FFF760FFF7
:104B2000002508E00AEB05001BF80000FF2800D074
:104B300003E0681C85B2A542F4DB00BFA54216DA8B
:104B40004046FFF7D7FE002507E019F8050005EB02
:104B50000A010BF80100681C85B2A542F5DB4FEA9B
:104B600008314FF48052584600F02EF804E02246F7
:104B70003946484600F028F8A64200D10FE008F177
:104B800001084FF0000AA1442744301B86B2B6F555
:104B9000805F02DD4FF4805400E03446B9E700BF87
:104BA000BDE8F09F00B0002010B500200449086067
:104BB0000620FFF70DFC01200249C1F8800110BD5D
:104BC00080012242000022422DE9F04107460E46B4
:104BD0001446F0B2C0F58075AC4200DC254612E008
:104BE0002A463146384600F013F8AC4200D10BE0BB
:104BF0002F442E44601B84B2B4F5807F02DD4FF455
:104C0000807500E02546EBE700BFBDE8F0810000BD
:104C10002DE9F04106460C461746FFF7C5FF002078
:104C2000144908600220FFF7D3FB134800884EF6B2
:104C30001871884202D1200EFFF7CAFBC4F3074067
:104C4000FFF7C6FBC4F30720FFF7C2FBE0B2FFF794
:104C5000BFFB002504E0705DFFF7BAFB681C85B25E
:104C6000BD42F8DB012003490860FFF737FFBDE8CC
:104C7000F0810000800122422A0000200FB4054B81
:104C800010B503A9044A029800F07AFA10BC5DF846
:104C900014FB0000C96D0008140000200FB4054B80
:104CA00010B503A9044A029800F00AF910BC5DF897
:104CB00014FB0000C96D0008140000200FB4084B5D
:104CC00010B504A902AA039800F0FAF8044602A954
:104CD000002000F0ECFD204610BC5DF814FB000045
:104CE000AF58000802480068C0F302207047000077
:104CF0000CED00E010B5002804DB0A07130E054A8E
:104D0000135406E00A07140E034A00F00F031B1F9A
:104D1000D45410BD00E400E018ED00E002E008C843
:104D2000121F08C1002AFAD170477047002001E025
:104D300001C1121F002AFBD1704700002DE9FF5F5F
:104D400082B00021DDE90430020DDDF840B00343FC
:104D500018D044F61050A2F2FF32424315141198B5
:104D600001281FD0A5EB0B00401C5FEA000A4FF0A2
:104D700000064E4FDFF83891B046504615D5CAF1BF
:104D8000000413E0119801244AA3012801D16FEA1D
:104D90000B010298119AC0E90031C0E9024206B045
:104DA000BDE8F09FCBF10000DFE704460021404A58
:104DB000491842EB0450CDE9001012E0E00707D09B
:104DC00032463B4640464946FBF7CCFA8046894688
:104DD00032463B4610461946FBF7C4FA06460F46D4
:104DE0006410002CEAD1DDE90401DDE90023BAF109
:104DF000000F06DAFBF7B6FA42464B46FBF7B2FA6B
:104E000005E0FBF7CDFB42464B46FBF7C9FB0446EA
:104E10000E460022284BFBF717FB03D84FF0FF305C
:104E2000014607E00022254B20463146FBF7F3F907
:104E3000FBF725FC102409E0002C0ADB0A220023E2
:104E4000FBF796F9039B30321A55641E50EA0102B3
:104E5000F2D1641C039AC4F111031444119A012A7B
:104E600003D0012208430DD10AE0084304D00020FA
:104E70004FF0110B119072E7A3EB0B056D1E0DE0C7
:104E80005B4504DD4FF0000205F1010504E003DAA3
:104E90004FF00002A5F10105002AECD0029811990B
:104EA000C0E90231C0E9004579E700000000144084
:104EB0000000F03F300000000000F0430000E03F41
:104EC0002DE9FF4F8DB09B460F460446002606E0B5
:104ED00025280BD05A460F999047641C761C2078E1
:104EE0000028F5D111B03046BDE8F08F0025A84666
:104EF0000122984900E0054314F8013F203B02FAE3
:104F000003F00842F7D120782E2817D114F8010FAA
:104F100045F004052A280ED06FF02F022078A0F16A
:104F2000300109290AD808EB880102EB410100EBA6
:104F30000108641CF2E757F8048B641C20786C2885
:104F40000DD004DC4C2812D06A2811D104E074285A
:104F50000DD07A280CD10AE045F4001507E06178FD
:104F600045F48015814202D1641C05F58015641C4E
:104F70002278692A45D008DC002AB3D0582A69D0A3
:104F8000632A10D0642A08D13BE0702A67D0732AC4
:104F900013D0752A5CD0782A5CD010465A460F99F7
:104FA0009047761CD3E017F8040B8DF80000002022
:104FB0008DF80100E946012003E057F8049B4FF00B
:104FC000FF3069074FF0000501D40AE06D1C45452C
:104FD0000DDA8542FADB19F805100029F6D106E052
:104FE0006D1C8542FCDB19F805100029F8D12E4410
:104FF00004E019F8010B5A460F9990476D1EF8D23C
:10500000A5E00A200021CDE90801C5F302500228DD
:105010000DD001CFC117031E71F100030DDA4FF05F
:10502000000CD0EB0C006CEB01012D2308E0FF1D00
:1050300027F00707F7E80201EDE72B0504D52B233E
:105040008DF8283001233BE0EB0739D02023F7E728
:105050000A2000E010200021CDE9080107E010201F
:10506000002145F00405CDE908014FF00808C5F31B
:10507000025002280FD001CF00214FF0000A2B0769
:105080001FD5702A0DD0DDE908C38CF0100C5CEA46
:10509000030C0CD015E0FF1D27F00707F7E802010D
:1050A000EBE740228DF828204FF0010A0BE050EA90
:1050B000010306D030238DF828308DF829200223F3
:1050C0009A46582A04D024A20DF120090B9209E037
:1050D00026A2F9E7DDE90823FBF74AF80B9B9B5C66
:1050E00009F8013D50EA0102F4D1ADEB090020308E
:1050F0000890680701D44FF001080899884502DD3F
:10510000A8EB010000E000208046002506E00AA888
:105110005A46405D0F9990476D1C761C5545F6DB4D
:1051200004E030205A460F999047761CB8F10001F0
:10513000A8F10108F5DC05E019F8010B5A460F99B2
:105140009047761C0899481E08900029F4DC641CDE
:10515000C5E60000092801003031323334353637D6
:1051600038396162636465660000000030313233B3
:105170003435363738394142434445460000000053
:105180002DE9FF4F95B09B468946064600250FE264
:10519000252877D100242746F84A0121059400E00C
:1051A000044316F8013F203B01FA03F01042F7D107
:1051B00030782A2811D06FF02F033078A0F1300218
:1051C000092A16D8059A44F0020402EB820203EB86
:1051D00042021044761C0590EFE759F8042B059223
:1051E000002A03DA504244F40054059044F00204CB
:1051F000761C30782E2816D116F8010F44F00404DE
:105200002A280DD06FF02F023078A0F13003092B3F
:1052100009D807EB870302EB4303C718761CF3E7B3
:1052200059F8047B761C30786C280FD006DC4C28AB
:1052300017D068280DD06A2814D104E0742810D043
:105240007A280FD10DE044F400140AE044F48014ED
:1052500001E044F440147278824202D104F58014D3
:10526000761C761C307866280BD013DC582877D053
:1052700009DC002875D04528F6D04628F4D0472808
:105280001AD19DE118E0632835D0642879D06528CB
:1052900012D195E1702873D008DC6728F1D0692815
:1052A0006FD06E280DD06F2806D1B5E073282CD0B2
:1052B000752875D0782874D05A46179990476D1C78
:1052C00075E1C4F30250022809D003280DD0D9F8A3
:1052D000001004280DD00D6009F1040967E1D9F828
:1052E0000010EA17C1E90052F6E7D9F800100D8066
:1052F000F2E70D70F0E719F8041B8DF8001000209C
:105300008DF80100EA46012003E059F804AB4FF0A4
:10531000FF3061074FF0000102D40DE008F10101F8
:105320008846B9420FDA8045F8DB1AF808100029E0
:10533000F4D108E008F1010188468142FADB1AF84D
:1053400008100029F6D105985B46A0EB0807214616
:105350003846179A00F094FA284400EB080507E055
:105360004DE029E10DE01AF8010B5A4617999047D4
:10537000B8F10108F7D25B4621463846179A13E187
:1053800042E00A220092C4F302524FF0000A022ABD
:1053900008D059F804CB032A4FEAEC710AD00DE08B
:1053A00029E02AE009F1070121F00702F2E802C131
:1053B000914609E00FFA8CFC4FEAEC71042A03D104
:1053C0004FFA8CFC4FEAEC71002907DA0A460021FB
:1053D000DCF1000C61EB02012D2202E0220504D574
:1053E0002B228DF80420012203E0E20701D02022C5
:1053F000F7E7904659E00A2102E010220DE0102163
:105400004FF0000A00910BE010224FF0000A44F028
:1054100004040827009203E008224FF0000A0092DB
:10542000C4F30252022A05D059F804CB0021032A02
:1054300008D009E009F1070121F00702F2E802C1F2
:10544000914605E01FFA8CFC042A01D10CF0FF0CF8
:105450004FF00008220728D5702806D0009B83F063
:10546000100353EA0A0305D00EE040228DF8042011
:10547000012208E05CEA010206D030228DF8042007
:105480008DF8050002229046009B83F0080353EA42
:105490000A030AD15CEA010201D1620705D5302274
:1054A0008DF804204FF001087F1E582804D034A046
:1054B00003900EA802900DE036A0F9E7534660462F
:1054C000009AFAF755FE84460398825C0298401EC3
:1054D000029002705CEA0100F0D1029806A9081A55
:1054E00000F1200A600702D524F4803400E001278F
:1054F000574502DDA7EB0A0000E0002000EB0A019F
:10550000009005984144401A0590E00306D45B469C
:105510002146179A059800F0B3F90544002706E0E4
:1055200001A85A46C05D179990476D1C7F1C4745DE
:10553000F6DBE0030CD55B462146179A059800F090
:105540009FF9054404E030205A46179990476D1C96
:105550000099481E00900029F5DC08E002980299A5
:105560005A460078491C0291179990476D1CBAF170
:105570000001AAF1010AF1DC65E10000092801003F
:1055800030313233343536373839616263646566B9
:10559000000000003031323334353637383941427B
:1055A000434445460000000000F058F90544761CCD
:1055B000307800287FF4ECAD19B02846BDE8F08FB4
:1055C000620700D4062709F1070222F0070CFCE865
:1055D0000223E14603F000485FEA080C02D00FF214
:1055E000702C0DE05FEA045C02D50FF2682C07E036
:1055F0005FEAC47C02D00FF2602C01E0AFF2700CC5
:105600004FF0FF3823F00043CDF850C065280CD090
:1056100006DC452809D046281DD047283DD13DE06D
:10562000662818D067287ED138E00021112F01DBD1
:10563000112000E0781CCDE9000106A90EA8FFF7B3
:105640007DFBDDE90F010E9A03910021009207F125
:10565000010A04914DE04FF000400097CDE90110A0
:1056600006A90EA8FFF76AFBDDE90F0203920E9B65
:1056700011990022DDF80CA00093049211B9791C55
:1056800000EB010AB7EB0A0004D4C0F1FF3007F1C8
:10569000010A0490AAEB0700019044E0012F00DA10
:1056A00001270021112F01DD112000E03846CDE94E
:1056B000000106A90EA8FFF741FBDDE90F010E9AD4
:1056C0000391002104910092BA4621070CD403995A
:1056D000514500DA8A46BAF1010F05DD009AAAF1B8
:1056E0000101515C302908D0B84202DA10F1040FF0
:1056F00006DA0121CDE9011015E0AAF10101E9E77F
:10570000002805DC049901440491AAEB000102E0A1
:10571000411C514500DD8A460499401A401C019005
:105720004FF000400290200704D40198504501DB5F
:10573000CDF8048000208DF84F0002980DF14F073E
:10574000B0F1004F25D02B200E9002984FF00208A8
:1057500000280CDA404202902D200E9007E00A212A
:105760000298FAF789FE3031029007F8011DB8F16E
:105770000001A8F10108F2DC02980028EFD1791E9F
:105780000E980870307800F0200040F0450007F8CF
:10579000020D12A8C01B00F107081498007800B190
:1057A000012000EB0A01019801EBE07105984144EA
:1057B000401A401E0590E00306D45B462146179A26
:1057C000059800F05DF805441498007818B15A4621
:1057D000179990476D1CE00324D55B462146179A24
:1057E000059800F04DF805441CE00498002807DBFC
:1057F000DDE90301884203DD0098405C179901E070
:10580000179930205A469047049805F10105401C2D
:1058100004900198401E019004D12E205A461799F9
:1058200090476D1CBAF10001AAF1010ADDDC05E028
:1058300017F8010B5A46179990476D1CB8F10001F3
:10584000A8F10108F4DC5B462146179A0598ABE6FF
:105850002D0000002B000000200000002DE9F04189
:10586000044600251E461746880404D405E0394640
:105870002020B0476D1C641EF9D52846BDE8F08194
:105880002DE9F041044600251E469046C80301D587
:10589000302700E02027880404D505E0414638463B
:1058A000B0476D1C641EF9D52846BDE8F0810A6832
:1058B000531C0B601070704770B504460D460020F5
:1058C000E070401EE0622946204601F099FE08B1D2
:1058D000042070BD04F22E2001F0AFFD4AF65521E0
:1058E000884201D00320F4E704F1660001F099FD3D
:1058F00020F07F400849884201D10020E9E704F107
:10590000820001F08EFD20F07F400349884201D1E2
:105910000020DEE70220DCE746415400024600E0BA
:10592000521C107810B110788842F9D11078704765
:10593000F0B503460D461E68986A021D680A77890D
:10594000B0FBF7F400BF02CA09B90020F0BD8C42D9
:1059500000D202E0641A121DF5E700BF106820446F
:10596000F4E70246891E5069801E884201D8002053
:1059700070475389906A01FB0300F9E72DE9F0476E
:1059800080460C4604F11A0001F057FD10B10020CA
:10599000BDE8F087207800F03F00401E00EB80015A
:1059A00001EBC0054FF00109002621E01849895D8F
:1059B000081901F042FD0746B9F1000F11D0FF2D83
:1059C0000BD2384601F018F8824629466D1C38F88B
:1059D000110001F011F8824501D00020D8E7B94646
:1059E00005E04FF6FF70874201D00020D0E7761C1B
:1059F0000D2EDBD3207800F0400038B1B9F1000F54
:105A000004D038F8150008B10020C1E70120BFE735
:105A1000E8C400082DE9F04782468946DAF80040DC
:105A2000B9F1000F06D1E76817B16069B84215D81F
:105A3000012713E04946504601F03AFA0646022E85
:105A400002D20120BDE8F087701C08B93046F9E7A2
:105A50006069B04201D93046F4E74F463D4600BF89
:105A60006D1C6069A84204D80225BD4201D90020FE
:105A7000E8E72946504601F01BFA064606B909E058
:105A8000012E01D0701C08B93046DBE7BD42E7D1DA
:105A90000020D7E700BF00BF4FF0FF322946204665
:105AA00001F008FF8046B8F1000F08D1B9F1000FEE
:105AB00005D02A464946204601F0FCFE8046B8F152
:105AC000000F0DD1E560D4E90410801E814202D29E
:105AD0002069401E2061207940F00100207107E01C
