:020000040800F2
:10000000D80A00204501000831220008C313000867
:100010002D220008DD010008F52500080000000081
:10002000000000000000000000000000C5230008E0
:10003000E10100080000000035220008C723000885
:100040005F0100085F0100085F0100085F01000810
:100050005F0100085F0100085F0100085F01000800
:100060005F0100085F0100085F0100085F010008F0
:100070005F0100085F0100085F0100085F010008E0
:100080005F0100085F0100085F0100085F010008D0
:100090005F0100085F0100085F0100085F010008C0
:1000A0005F0100085F0100085F0100085F010008B0
:1000B0005F0100085F0100085F0100085F010008A0
:1000C0005F0100085F0100085F0100085F01000890
:1000D0005F010008C92500085F0100085F010008F2
:1000E0005F0100085F0100085F0100085F01000870
:1000F0005F0100085F0100085F0100085F01000860
:100100005F0100085F0100085F0100085F0100084F
:100110005F0100085F0100085F0100085F0100083F
:100120005F0100085F0100085F0100085F0100082F
:10013000DFF80CD000F040F800480047592C0008C8
:10014000D80A00200648804706480047FEE7FEE739
:10015000FEE7FEE7FEE7FEE7FEE7FEE7FEE7FEE777
:100160003524000831010008D2B201E000F8012B6B
:10017000491EFBD270470022F6E710B513460A4627
:1001800004461946FFF7F0FF204610BD30B50B4678
:10019000014600202022012409E021FA02F59D42B7
:1001A00005D303FA02F5491B04FA02F52844151E8B
:1001B000A2F10102F1DC30BD064C074D06E0E0681B
:1001C00040F0010394E8070098471034AC42F6D39E
:1001D000FFF7B2FF4C7300086C73000800BFFEE726
:1001E000704772B600BFFEE70146D1E9033098427E
:1001F00002D14FF0FF307047D1E90003C25C48687C
:10020000401C4860CB684868984201D10020486093
:100210000869401C08611046EDE7C1600260016199
:1002200000238360436070470146D1E90302801ACE
:100230007047000070B50446B3F5804F13D1D1E983
:10024000000540EA05108D6840EA05208D692843C5
:100250008D8940EA054054F82250064E3540284327
:1002600044F8220003E06FF0704044F822000020C0
:1002700070BD00000000F0CF70B50246086852F86B
:10028000200020F001000E6842F826008868082847
:1002900001D1402300E00023486818438E683043B2
:1002A000CE6830430E6930434E693043CE693043E7
:1002B0000E6A30434E6A30438E6A3043CE6A304312
:1002C0000E6B40EA060488690443486B0443074DFB
:1002D00045F4806545F4E025086852F82000A843FD
:1002E00020430E6842F82600002070BD7FFB080006
:1002F00010B50346D1E9000440EA04108C6840EAD6
:1003000004208C8940EA0444088A401E44EA0054D0
:10031000087D801E44EA00608C692043541C53F819
:10032000244004F040442043541C43F8240000209F
:1003300010BD00002DE9F04180460C4610480078C1
:1003400020B901F0B5FF01200D4908702512E6B271
:10035000A5F1A101C1EB011202EB411106EB410134
:10036000A1390802C11700EB5171CF1005483918A7
:100370002022404601F074FF0020BDE8F08100001B
:10038000440000200030180070B5044600F0F4F975
:1003900006462546681C10B104480078054400BF95
:1003A00000F0EAF9801BA842FAD370BD14000020C7
:1003B00000B585B00020019002900390049017488A
:1003C000006808B105B000BD01201449086000BFF5
:1003D0001348406940F480701149486108464069FB
:1003E00000F48070009000BF00BF4FF68070019055
:1003F000022002900320049001A90A4800F016F898
:100400004CF6B3700190022002900320049001A9E1
:10041000054800F00BF800BFD4E7000004000020FE
:100420000010024000180140001401402DE9F84777
:10043000024600239C467BE14FF0010808FA03F4D2
:10044000D1F8008008EA0400A0427DD1DFF8F4A2D0
:10045000D1F80480A8EB0A09D0453AD014DCB8F1F1
:10046000030F50D009DCB8F1000F31D0B8F1010F03
:100470001CD0B8F1020F49D120E0B8F1110F18D00B
:10048000B8F1120F42D11EE0B9F5881F25D006DC65
:10049000B9F5803F20D0B9F5801F37D11AE0B9F502
:1004A000001F18D0B9F5041F30D117E0D1F80CC0E7
:1004B0002DE0D1F80C8008F1040C28E0D1F80C8074
:1004C00008F1080C23E0D1F80C8008F10C0C1EE0B8
:1004D00000BF00BF00BF00BF00BF00BFD1F8088051
:1004E000B8F1000F02D14FF0040C0BE0D1F80880F6
:1004F000B8F1010F03D14FF0080C146102E04FF086
:10050000080C546103E04FF0000C00E000BF00BF96
:10051000FF2801D8904601E002F104084646FF2872
:1005200002D84FEA830803E0A3F108084FEA8808DD
:100530004746D6F800804FF00F0909FA07F928EA74
:1005400009080CFA07F900E07AE048EA0908C6F859
:100550000080D1F8048008F08058B8F1805F6FD136
:1005600000BFDFF8E481D8F8188048F00108DFF810
:10057000D891C9F81880C846D8F8188008F0010842
:10058000CDF8008000BF00BF4FEAB9384FEA9309A9
:1005900058F829504FEA83784FEA18794FF00F083E
:1005A00008FA09F825EA0805DFF8A081424502D1DA
:1005B0004FF0000824E0DFF89881424502D14FF067
:1005C00001081DE0DFF88C81424502D14FF002089E
:1005D00016E0DFF88481424502D14FF003080FE0B6
:1005E000DFF87881424502D14FF0040808E0DFF8D7
:1005F0007081424502D14FF0050801E04FF0060836
:100600004FEA83794FEA197908FA09F848EA0505AB
:10061000DFF850814FEA930948F82950D1F8048057
:1006200008F48018B8F5801F0BD1DFF83C81D8F8AA
:10063000008048EA0008DFF83091C9F800800AE03D
:1006400075E0DFF82481D8F8008028EA0008DFF898
:100650001891C9F80080D1F8048008F40018B8F5A2
:10066000001F0ED1DFF8008108F10408D8F80080DF
:1006700048EA0008DFF8F09009F10409C9F80080A1
:100680000DE0DFF8E48008F10408D8F8008028EADB
:100690000008DFF8D49009F10409C9F80080D1F806
:1006A000048008F40038B8F5003F0ED1DFF8B880B8
:1006B000A8F10408D8F8008048EA0008DFF8A890FC
:1006C000A9F10409C9F800800DE0DFF89C80A8F1C9
:1006D0000408D8F8008028EA0008DFF88C90A9F117
:1006E0000409C9F80080D1F8048008F48038B8F50E
:1006F000803F0ED1DFF87080A8F10808D8F800809C
:1007000048EA0008DFF86090A9F10809C9F80080FC
:100710000DE0DFF85480A8F10808D8F8008028EA36
:100720000008DFF84490A9F10809C9F800805B1CB3
:10073000D1F8008028FA03F8B8F1000F7FF47CAEFE
:10074000BDE8F887000011100010024000080140C9
:10075000000C01400010014000140140001801404D
:10076000001C014008000140080401400AB1016179
:1007700001E00B0403617047014800687047000006
:100780000C00002003480068034909780844014927
:10079000086070470C0000201400002010B50848C5
:1007A000006840F0100006490860032000F0A8F837
:1007B0000F2000F007F800F02BF8002010BD00001B
:1007C0000020024070B504460E4800784FF47A715C
:1007D000B1FBF0F00C490968B1FBF0F5284600F0D8
:1007E000FDFC08B1012070BD102C07D2002221466B
:1007F000501E00F047F80548046001E00120F2E7D0
:100800000020F0E714000020180000201000002055
:1008100008B500BF1148806940F001000F498861A8
:100820000846806900F00100009000BF00BF00BFD3
:100830000846C06940F08050C8610846C06900F0B1
:100840008050009000BF00BF00BF0549486820F0FD
:10085000E06040F00070486000BF08BD001002403A
:100860000000014001460846002809DB00F01F0394
:1008700001229A4043099B0003F1E023C3F80021C1
:1008800000BF70472DE9F05F80460D4616460027F1
:1008900001F0D6FE074639462A46334601F00700E6
:1008A000C0F1070ABAF1040F02D94FF0040A01E0BF
:1008B000C0F1070AD14600F1040ABAF1070F02D2CB
:1008C0004FF0000A01E0A0F1030AD4464FF0010AFC
:1008D0000AFA09FAAAF1010A0AEA020A0AFA0CFA61
:1008E0004FF0010B0BFA0CFBABF1010B0BEA030B06
:1008F0004AEA0B042146404601F0AAFEBDE8F09FFB
:1009000000BF00F00702064B19684FF6FF031940BD
:10091000044B0B4343EA0221014B196000BF7047AF
:100920000CED00E00000FA0570B504460D460CB968
:10093000012070BD5A48006800F00700A8420ED29E
:100940005748006820F007002843554908600846CA
:10095000006800F00700A84201D00120E9E72078F4
:1009600000F0020002281DD1207800F004000428C5
:1009700005D14C48406840F4E0604A49486020781E
:1009800000F00800082805D14648406840F460504F
:10099000444948604348406820F0F000A16808439B
:1009A00040494860207800F0010078B36068012871
:1009B00006D13C48006800F4003090B90120B8E747
:1009C0006068022806D13748006800F0007040B91E
:1009D0000120AEE73348006800F0020008B90120AA
:1009E000A7E73048406820F00300616808432D49BC
:1009F0004860FFF7C1FE064609E0FFF7BDFE801B19
:100A000041F28831884202D9032092E707E0254865
:100A1000406800F00C006168B0EB810FEDD1204818
:100A2000006800F00700A8420ED91D48006820F0B9
:100A3000070028431A4908600846006800F00700CC
:100A4000A84201D0012074E7207800F004000428B7
:100A500007D11448406820F4E060E1680843114978
:100A60004860207800F00800082808D10D48406848
:100A700020F46050216940EAC1000A49486000F052
:100A80003FF808494968C1F30311074A515CC8405F
:100A90000649086006480068FFF794FE002048E712
:100AA0000020024000100240A62C00081800002080
:100AB0001000002001480068704700001800002066
:100AC00000B5FFF7F7FF04494968C1F30221034A63
:100AD000515CC84000BD000000100240B62C000868
:100AE00000B5FFF7E7FF04494968C1F3C221034A93
:100AF000515CC84000BD000000100240B62C000848
:100B000070B500210022002400230020134D6968E5
:100B100001F00C05F5B1042D02D0082D19D101E02A
:100B20000F4819E00F4DC1F38346AB5D01F48035EA
:100B300055B10A4D6D68C5F340450B4E725D084DC9
:100B40005D43B5FBF2F402E0084D03FB05F42046DB
:100B500002E000BF024800BF00BF70BD00100240AD
:100B600000127A00942C0008A42C000800093D0013
:100B7000F8B504460CB90120F8BD207800F001005A
:100B8000002878D0F848406800F00C0004280CD009
:100B9000F548406800F00C00082811D1F248406880
:100BA00000F48030B0F5803F0AD1EF48006800F4CF
:100BB000003000285FD0606800285CD10120DBE7AE
:100BC00000BF6068B0F5803F06D1E748006840F498
:100BD0008030E549086028E0606858B9E24800685C
:100BE00020F48030E04908600846006820F4802046
:100BF00008601AE06068B0F5A02F0BD1DA480068F1
:100C000040F48020D84908600846006840F48030ED
:100C100008600AE0D448006820F48030D2490860B7
:100C20000846006820F48020086000BF606888B132
:100C3000FFF7A2FD054606E0FFF79EFD401B642876
:100C400001D9032098E7C848006800F40030002864
:100C5000F2D010E0FFF790FD054606E0FFF78CFDAF
:100C6000401B642801D9032086E7BF48006800F4D0
:100C700000300028F2D1207800F00200022857D17D
:100C8000B948406800F00C0050B1B748406800F027
:100C90000C00082818D1B448406800F4803098B996
:100CA000B148006800F0020020B12069012801D09D
:100CB000012061E7AC48006820F0F800616940EA73
:100CC000C100A949086033E02069E8B10120A749C3
:100CD0000860FFF751FD054606E0FFF74DFD401B9C
:100CE000022801D9032047E79F48006800F002006E
:100CF0000028F2D09C48006820F0F800616940EAC2
:100D0000C1009949086013E0002098490860FFF786
:100D100033FD054606E0FFF72FFD401B022801D9F1
:100D2000032029E79048006800F002000028F2D173
:100D3000207800F0080008282DD1A069B8B1012062
:100D40008B490860FFF718FD054606E0FFF714FD24
:100D5000401B022801D903200EE78348406A00F0B7
:100D600002000028F2D0012001F066FA13E0002012
:100D70007F490860FFF700FD054606E0FFF7FCFC31
:100D8000401B022801D90320F6E67748406A00F0AC
:100D900002000028F2D1207800F00400042873D16A
:100DA00000277148C06900F0805070B900BF6E48DC
:100DB000C06940F080506C49C8610846C06900F0C5
:100DC0008050009000BF00BF01276A48006800F40F
:100DD0008070B0B96748006840F480706549086069
:100DE000FFF7CAFC054606E0FFF7C6FC401B642877
:100DF00001D90320C0E65F48006800F48070002835
:100E0000F2D000BFE068012806D15748006A40F0E0
:100E100001005549086227E0E06858B95248006A65
:100E200020F00100504908620846006A20F00400E2
:100E3000086219E0E06805280BD14B48006A40F0D1
:100E40000400494908620846006A40F0010008624F
:100E50000AE04548006A20F001004349086208465C
:100E6000006A20F00400086200BFE068A0B1FFF74C
:100E700083FC054609E0FFF77FFC401B41F2883107
:100E8000884202D9032077E622E03748006A00F062
:100E900002000028EFD012E0FFF76EFC054608E0E4
:100EA000FFF76AFC401B41F28831884201D90320D8
:100EB00062E62D48006A00F002000028F0D1012F00
:100EC00005D12948C06920F080502749C86100BF7A
:100ED000E069C8B32448406800F00C00082860D0DE
:100EE000E069022848D1002020490866FFF744FC49
:100EF000054606E0FFF740FC401B022801D903200D
:100F00003AE61948006800F000700028F2D1206A23
:100F1000B0F5803F07D11448406820F40030A16844
:100F2000084311494860D4E9080108430E4949685B
:100F300021F4741108430C49486001200B490866EC
:100F4000FFF71AFC054607E03DE0FFF715FC401BE4
:100F5000022801D903200FE60348006800F0007062
:100F60000028F2D02FE000000010024000004242B2
:100F70008004424200700040002014490866FFF7D8
:100F8000FBFB054606E0FFF7F7FB401B022801D9F3
:100F90000320F1E50E48006800F000700028F2D14F
:100FA00011E0E069012800D1E6E50948466806F449
:100FB0008031206A814204D106F47011606A814256
:100FC00001D00120D8E50020D6E500000000424213
:100FD0000010024010B504460CB9012010BD606A33
:100FE00038B96068B0F5827F00D105E00021E16189
:100FF00002E00021216161610021A16294F85100A9
:1010000028B9002084F85000204600F043F8022060
:1010100084F851002068006820F0400021680860D2
:10102000A08800F48270218901F404410843A18959
:1010300001F400610843217C01F002010843217D95
:1010400001F001010843218B01F400710843217F65
:1010500001F0380108432021095D01F080010843B7
:10106000218D01F400510843216808600421A06922
:1010700001EA1040216848602068C06920F40060DF
:101080002168C86100206065012084F851000020BB
:10109000A4E7000010B586B0044600BF3048806960
:1010A00040F004002E4988610846806900F0040081
:1010B000019000BF00BF00BF0846806940F00400F7
:1010C00088610846806900F00400019000BF00BFFD
:1010D00000BF0846806940F00400886108468069C6
:1010E00000F00400019000BF00BF00BF0846806907
:1010F00040F0100088610846806900F010000190FF
:1011000000BF00BF00BF0846806940F4805088617E
:101110000846806900F48050019000BF00BF202085
:10112000029002200390012004900320059002A960
:101130000C48FFF77BF94020029002A90948FFF70D
:1011400075F98020029002A90648FFF76FF9012087
:101150000290039002A90448FFF768F906B010BD99
:1011600000100240000801400010014070B5044624
:101170000E4615461CB1A069B0F5807F01D1012053
:1011800070BD94F8410028B9002084F84000204642
:1011900000F01FF804F108012068FFF76DF83146F0
:1011A000A2682068FFF7A4F82946236BD4E901025E
:1011B000FFF740F8A168206850F8210040F00100D6
:1011C000A268216841F82200012084F84100002033
:1011D000D6E710B50446FFF7EBF810BD70B504462E
:1011E0002546681EB0F1807F01D301200FE0681E04
:1011F0004FF0E02148610F214FF0FF3001F028FA55
:1012000000204FF0E021886107200861002070BDB8
:1012100010B504460CB9012010BDA06900B100E072
:1012200000BF94F8410028B9002084F8400020460F
:1012300000F02AF8242084F841002068C06820F4D7
:1012400000502168C860204601F0F6F82068006967
:1012500020F49040216808612068406920F02A004D
:10126000216848612068C06840F400502168C86067
:1012700000206064202084F8410084F842000020AF
:10128000606300BFC8E7000010B586B004460020C8
:1012900002900390049005901A49206888422ED14C
:1012A00000BF1948806940F48040174988610846AA
:1012B000806900F48040019000BF00BF00BF084675
:1012C000806940F0040088610846806900F00400ED
:1012D000019000BF00BF4815029002200390032038
:1012E000059002A90948FFF7A1F84FF48060029029
:1012F00000200390049002A90448FFF797F806B075
:1013000010BD0000003801400010024000080140FC
:101310002DE9F84F04460E46174699464FF0000A4D
:1013200094F8410020284AD106B117B90120BDE840
:10133000F88F00206064212084F84100FFF71CFA38
:101340008246A784E784A068B0F5805F04D1206955
:1013500010B90025B04602E035464FF000081BE00A
:101360005346002280212046CDF8009001F0E2F89B
:1013700008B10320DBE745B9B8F80000C0F3080066
:101380002168486008F1020803E028782168486075
:101390006D1CE08C401EE084E08C0028E0D15346B8
:1013A000002240212046CDF8009001F0C3F808B19A
:1013B0000320BCE7202084F841000020B7E702208A
:1013C000B5E700BFFEE7000020B14FF08051044AAE
:1013D000116003E04FF48051014A11607047000032
:1013E000101401402DE9F04106460F4614461D46F3
:1013F0002B4622463946304600F0C0F904FB05F082
:101400000249098800F02AF9BDE8F0812A0000208D
:1014100001B502E00098401E009000980028F9D124
:1014200008BD00002DE9F04389B080468946174683
:1014300010231A464946404600F0A0F92C2000F03F
:1014400047FC394601A8FEF775FF002422E001A8F9
:1014500010F814604FF6FF7000EA0626012000EB3A
:10146000440001A9085C064300250FE04FF400404A
:101470002841304020B10A48008800F02DFC03E0EC
:101480000848008800F028FC681CC5B2102DEDDB70
:10149000601CC4B2102CDADB09B0BDE8F083000098
:1014A000280000202A0000202DE9F05F80468946B0
:1014B0001646A6F120001FFA80FA1E49096889889D
:1014C0001C4A1268D28801FB02F0C11700EB51716F
:1014D000C1F3C7071748006800680AFB070B1548E7
:1014E0000068C3881348006882884946404600F077
:1014F00045F92C2000F0ECFB002416E0002510E05C
:101500001BF8040080212941084020B10A480088C6
:1015100000F0E2FB03E00948008800F0DDFB681CF6
:10152000C5B2082DECDB601CC4B2BC42E6DBBDE8F2
:10153000F09F000024000020280000202A00002046
:1015400070B504460D46002624E03046134909686C
:101550008988084412490988884205DD00260F4819
:101560000068C088204484B220460C490968C988B4
:1015700008440C490988884201DD002600242A78A5
:1015800021463046FFF790FF6D1C044800688088B4
:10159000304486B228780028D7D170BD24000020BE
:1015A0001C0000201E0000202DE9F04105460C46DD
:1015B000002648E020787E2825DC3046244909684A
:1015C0008988084423490988884205DD0026204887
:1015D0000068C088284485B228461D490968C98822
:1015E00008441D490988884201DD0026002522782B
:1015F00029463046FFF758FF154800688088304478
:1016000086B2641C1FE030461030124909888842B7
:1016100003DD002605F1100085B2284610300E4982
:101620000988884201DD002600252788380200EB62
:10163000272087B23A4629463046FFF7F3FE06F1E7
:10164000100086B2A41C20780028B3D1BDE8F08138
:10165000240000201C0000201E00002070B504465D
:101660000D4600262C2000F033FB00BF03E0284687
:1016700000F032FB761CA642F9D370BD10B50446CB
:10168000072C00DD10BD31480470204604EBD071FA
:101690004910A4EB410139B9F0202D4908804FF4DD
:1016A000A0702C49088006E04FF4A07028490880FB
:1016B000F02028490880362000F00AFB26480088E0
:1016C00049F24131884205D1082141EA441000F035
:1016D00003FB0AE02048008848F25251884204D1B6
:1016E000002141EA441000F0F7FA2A2000F0F0FA55
:1016F000002000F0F1FA002000F0EEFA1449098809
:10170000491EC1F3072000F0E7FA11490978491E84
:10171000C8B200F0E1FA2B2000F0DAFA002000F065
:10172000DBFA002000F0D8FA0A490988491EC1F303
:10173000072000F0D1FA07490978491EC8B200F025
:10174000CBFA2C2000F0C4FA00BF9BE72000002059
:101750001C0000201E0000202200002010B50120E7
:10176000FFF732FE00F0A0FA00F038F802480078E7
:10177000FFF784FF10BD0000200000202DE9F0419C
:1017800004460D4616461F462A2000F0A1FA2012F4
:1017900000F0A2FAE0B200F09FFAA119491EC1F3CD
:1017A0000F2000F099FAA119491EC8B200F094FA6E
:1017B0002B2000F08DFA281200F08EFAE8B200F02B
:1017C0008BFAE919491EC1F30F2000F085FAE919D7
:1017D000491EC8B200F080FABDE8F08110B500F0F3
:1017E00025FAFE4908800846008849F241318842BE
:1017F0007ED1CF2000F06CFA002000F06DFA81203D
:1018000000F06AFA302000F067FAED2000F060FA8C
:10181000642000F061FA032000F05EFA122000F06C
:101820005BFA812000F058FAE82000F051FA852098
:1018300000F052FA102000F04FFA782000F04CFA35
:10184000CB2000F045FA392000F046FA2C2000F0B9
:1018500043FA002000F040FA342000F03DFA062060
:1018600000F03AFAF72000F033FA202000F034FAC2
:10187000EA2000F02DFA002000F02EFA002000F0FF
:101880002BFAB12000F024FA002000F025FA1B20EA
:1018900000F022FAB62000F01BFA0A2000F01CFA31
:1018A000A22000F019FAC02000F012FA352000F052
:1018B00013FAC12000F00CFA112000F00DFAC52037
:1018C00000F006FA452000F007FA452000F004FA7F
:1018D000C72000F0FDF9A22000F0FEF9F22000F090
:1018E000F7F9002000F0F8F9262000F0F1F900E007
:1018F00096E0012000F0F0F9E02000F0E9F90F2077
:1019000000F0EAF9262000F0E7F9242000F0E4F9DD
:101910000B2000F0E1F90E2000F0DEF9092000F0C4
:10192000DBF9542000F0D8F9A82000F0D5F94620C2
:1019300000F0D2F90C2000F0CFF9172000F0CCF91C
:10194000092000F0C9F90F2000F0C6F9072000F0C7
:10195000C3F9002000F0C0F9E12000F0B9F900203F
:1019600000F0BAF9192000F0B7F91B2000F0B4F923
:10197000042000F0B1F9102000F0AEF9072000F0CB
:10198000ABF92A2000F0A8F9472000F0A5F939208A
:1019900000F0A2F9032000F09FF9062000F09CF966
:1019A000062000F099F9302000F096F9382000F078
:1019B00093F90F2000F090F9362000F089F9C82043
:1019C00000F08AF92A2000F083F9002000F084F961
:1019D000002000F081F9002000F07EF9EF2000F0F7
:1019E0007BF92B2000F074F9002000F075F900203D
:1019F00000F072F9012000F06FF93F2000F06CF95F
:101A00003A2000F065F9552000F066F9112000F049
:101A10005FF97348FFF7FCFC292000F059F901E158
:101A20006E48008848F252518842F8D1CF2000F029
:101A30004FF9002000F050F9C12000F04DF930209E
:101A400000F04AF9ED2000F043F9642000F044F979
:101A5000032000F041F9122000F03EF9812000F04F
:101A60003BF9E82000F034F9852000F035F910202A
:101A700000F032F9782000F02FF9CB2000F028F99F
:101A8000392000F029F92C2000F026F9002000F080
:101A900023F9342000F020F9022000F01DF9F7208E
:101AA00000F016F9202000F017F9EA2000F010F9F4
:101AB000002000F011F9002000F00EF9C02000F025
:101AC00007F9212000F008F9C12000F001F91120E8
:101AD00000F002F9C52000F0FBF82D2000F0FCF822
:101AE000332000F0F9F8362000F0F2F8002000F082
:101AF000F3F83A2000F0ECF8552000F0EDF8B120B2
:101B000000F0E6F8002000F0E7F8172000F0E4F815
:101B1000B62000F0DDF80A2000F0DEF8A22000F088
:101B2000DBF8F62000F0D4F8012000F0D5F83020E2
:101B300000F0D2F8F22000F0CBF8002000F0CCF852
:101B4000262000F0C5F8012000F0C6F8E02000F0E3
:101B5000BFF8D02000F0C0F8002000F0BDF802204F
:101B600000F0BAF8072000F0B7F80B2000F0B4F846
:101B70001A2000F0B1F8312000F0AEF8542000F047
:101B8000ABF8402000F0A8F8292000F0A5F81220BA
:101B900000F0A2F8122000F09FF8122000F09CF84C
:101BA000172000F099F8E12000F092F8D02000F022
:101BB00093F8002000F090F8022000F08DF8072044
:101BC00000F08AF8052000F087F8252000F084F85E
:101BD0002D2000F081F8442004E0000022000020C5
:101BE000FCBF020000F078F8452000F075F81C20DA
:101BF00000F072F8182000F06FF8162000F06CF872
:101C00001C2000F069F81D2000F066F8112000F09B
:101C10005FF80548FFF7FCFB292000F059F82C205D
:101C200000F056F810BD0000FCBF020010B5002403
:101C3000042000F04DF800BF1748008800BF164888
:101C4000008800F02BF804464FF6FF7000EA0424E9
:101C500000F024F8044348F25250844201D1204657
:101C600010BDD32000F034F800BF0B48008800BF3F
:101C70000948008800F012F804464FF6FF7000EAA9
:101C8000042400F00BF8044349F24130844201D1AE
:101C90002046E5E70020E3E70000026001480088F5
:101CA000704700000000026010B54FF40030074993
:101CB000086040F6FF20FFF7ABFB022003490860F5
:101CC00040F6FF20FFF7A4FB10BD000010180140F4
:101CD0004FF0C041088070470149088070470000FC
:101CE0000000026070B5044600F00CF8C5882B4671
:101CF0000348028821460020FFF774FB70BD0000F6
:101D00001C000020014800687047000024000020EB
:101D1000024A1080024A118070470000280000200B
:101D20002A000020014908607047000024000020BC
:101D300001490880704700002800002010B50620E7
:101D4000FFF79CFC2648FFF7EDFF00214FF4784099
:101D5000FFF7DEFF23480388234802880021084656
:101D6000FFF740FBFFF7CEFF002420A12046FFF73E
:101D7000E7FBFFF7C7FFC48824A12046FFF714FC48
:101D8000FFF7C0FFC0884004040C23A12046FFF7E2
:101D9000D7FB2B48008849F24131884209D1FFF72F
:101DA000B1FFC0888004040C26A12046FFF7C8FBC1
:101DB0000EE02348008848F25251884208D1FFF7CC
:101DC000A1FFC0888004040C08A12046FFF7B8FBDF
:101DD0000348FFF7A7FF4FF4FC60FFF7A9FF10BD12
:101DE0002C0000201E0000201C0000202A2A2A2A85
:101DF0002A2A2A2A2A2A2A2A2A2A2A2A2A2A2A2A43
:101E00002A2A2A2A2A2A2A2A2A2A00004A49414F0B
:101E10002D53686F7700000068747470733A2F2F29
:101E20006769746875622E636F6D2F587553656EA0
:101E300066656E672F53746D333241707000000019
:101E4000220000202A2A2A2A2A2A2A2A2A2A2A2A58
:101E50002A2A2A2A2A2A2A2A2A2A2A2A2A2A2A2AE2
:101E60002A2A2A0070B54FF4FC60FFF761FF02E0F8
:101E70007648FEF7B9F97548FEF7D6F90028F7D18C
:101E800008E073A000F0B8FB002400E0641C714877
:101E90008442FBDB6D48FEF7C7F90028F1D000242F
:101EA00005E06A48FEF7A0F96B490855641C6748CD
:101EB000FEF7BAF90028F4D1674800F0CFFC0028FB
:101EC00066D1FFF71FFFC08800EB800085B228466F
:101ED000FFF708FFFFF716FFC08800EB800085B210
:101EE0005E492846FFF760FBFFF70CFFC088C0EB98
:101EF000C00085B22846FFF7F5FEFFF703FFC08854
:101F0000C0EBC00085B256492846FFF74DFBFFF7EE
:101F1000F9FEC08800EBC00085B22846FFF7E2FE5C
:101F2000FFF7F0FEC08800EBC00085B24D4928469F
:101F3000FFF73AFBFFF7E6FEC08800EB400101EB3C
:101F4000C00085B22846FFF7CDFEFFF7DBFEC08854
:101F500000EB400101EBC00085B243492846FFF782
:101F600023FBFFF7CFFEC08800EB800101EBC00030
:101F700085B22846FFF7B6FEFFF7C4FEC08800EB27
:101F8000800101EBC00085B238492846FFF70CFB01
:101F900037480078401C36490870084600780F28FA
:101FA00047D1FFF7AFFEC088C0EB001085B22846CE
:101FB000FFF798FEFFF7A6FEC0880005050C28462F
:101FC000FFF790FEFFF79EFEC08800EB001085B281
:101FD0002846FFF787FEFFF795FEC08800EBC0009C
:101FE0004004050C2846FFF77DFEFFF78BFEC088F6
:101FF00000EB400101EB001085B22846FFF772FEAE
:102000004FF6E070FFF794FEFFF77CFEC088C0EB50
:10201000001085B2174802780078401C154B1870E4
:10202000154850F822102846FFF7BEFA0020104944
:10203000087010480078322802D100200D4908703D
:102040004FF42F70FEF7A0F970BD000004020020CD
:1020500031000000FFFF0F00740400208002002008
:10206000E402002048030020AC03002010040020FC
:1020700049000020480000205000002000B58FB02B
:102080001C2108A8FEF777F81C2101A8FEF773F8B9
:102090004FF02040234908602348486000208860B2
:1020A00000212048C160016110214161002181614E
:1020B000C161016241624FF4805181620021C162BD
:1020C0004FF4804101630021416381630020089047
:1020D0000F2009901A200A9000200B9010200C90DD
:1020E00011200D9000200E9001900F2002900120F1
:1020F00003900020049010200590112006900020ED
:10210000079001AA08A90748FFF730F808B1FEF7C1
:1021100068F80648C06940F480600449C8610FB09F
:1021200000BD000074010020040100A00000014077
:1021300000B585B00020019002900390049000BF8C
:102140002548806940F00400234988610846806979
:1021500000F00400009000BF00BF00BF0846806987
:1021600040F0400088610846806900F0400000901F
:1021700000BF00BF00BF0846806940F020008861B2
:102180000846806900F02000009000BF00BF0022D8
:1021900089141248FEF7EAFA012202211048FEF7DC
:1021A000E5FA4FF480500190012002900020039046
:1021B0000220049001A90948FEF738F90220019095
:1021C00001200290002003900220049001A90448FD
:1021D000FEF72CF905B000BD0010024000140140CC
:1021E0000018014010B50F480F4908604FF4E13066
:1021F000486000210C488160C16001610C2141618F
:1022000000218161C161FFF703F808B1FDF7E9FF23
:10221000012200212520FEF735FB2520FEF722FBB9
:1022200010BD000000380140BC01002000BFFEE7E7
:1022300000BFFEE77047000008B508490968C908F3
:102240004FF47A72B1FBF2F14143009100BF00BF3D
:1022500000994A1E00920029F9D108BD18000020FB
:1022600070B505460C4616464FF480300F4908619C
:10227000032000F04BF8C4F3074000F047F8C4F324
:10228000072000F043F8E0B200F040F804E0FF203F
:1022900000F03CF828706D1C301EA6F101018EB2D2
:1022A000F5D101200149086170BD00000010014016
:1022B00010B514481449086008211348C161002171
:1022C00081600121416102210161002181620721B8
:1022D000C1620021C16001624FF40071816100217F
:1022E00041624FF48270084948600846FEF772FE6A
:1022F00005480068006840F040000349096808602C
:1023000010BD0000003001401C01002010B5044643
:102310004FF48050194908600AE018490868411EC6
:10232000164A116020B9002000F02CF8C0B210BD90
:10233000134800688068C0F340000028EDD01048C2
:102340000068C4604FF480500C4908600AE00B49F3
:102350000868411E094A116020B9012000F012F8F6
:10236000C0B2E4E706480068806800F00100002879
:10237000EDD003480068C068C0B2D8E70000002074
:102380001C01002010B50446214602A000F034F9DB
:10239000002010BD3C3C2D464C4153482D45525227
:1023A0004F522D3E3E2053504920B5C8B4FDB3AC2A
:1023B000CAB1216572726F72436F6465203D20253A
:1023C000640A0000704710B5FEF7DCF910BD00B5D7
:1023D0008FB0282105A8FDF7CEFE14216846FDF731
:1023E000CAFE0120059000040690002007900120FD
:1023F000099002200C90C1030D914FF4E0110E9151
:1024000005A8FEF7B5FB08B1FDF7EBFE0F20009025
:1024100002200190002002904FF480600390002081
:10242000049002216846FEF77FFA08B1FDF7D9FE55
:102430000FB000BD7047000070B5044621680969FF
:1024400021F44051E2681143226811612269A168B8
:102450001143626941EA02052168C96841F20C62D0
:10246000914329432268D1602168496921F4407170
:10247000A2691143226851612D4A2168914202D11B
:10248000FEF72EFB01E0FEF71BFB00EBC00101EBAA
:10249000001162689200B1FBF2F100EBC00202EBA6
:1024A000001263689B00B2FBF3F26423B2FBF3F209
:1024B00002EBC20303EB0212A1EB8201322202EB18
:1024C00001116422B1FBF2F101F0F00100EBC00256
:1024D00002EB001263689B00B2FBF3F26423B2FBD1
:1024E000F3F201EB021200EBC00101EB0011636893
:1024F0009B00B1FBF3F100EBC00303EB0013666834
:10250000B600B3FBF6F36426B3FBF6F303EBC306A6
:1025100006EB0313A1EB8301322303EB01116423C8
:10252000B1FBF3F101F00F0111442268916070BD1D
:10253000003801402DE9F04104460D461746984603
:10254000069E34E0701C88B32EB1FEF715F9A0EB9F
:102550000800B0422BD900BF00BF21680C3151E800
:10256000001F21F4D07021680C3141E80002002ADC
:10257000F3D100BF00BF00BF2168143151E8001F34
:1025800021F001002168143141E80002002AF3D152
:1025900000BF202084F8410084F8420000BF0020E2
:1025A00084F8400000BF0320BDE8F081FFE7206809
:1025B00000682840A84201D1012000E00020B84274
:1025C000C0D00020F0E7000010B5002407480068E4
:1025D0000068C0F3401038B1044800684068C4B2D5
:1025E0002146034800F002FB10BD0000BC010020A2
:1025F0000402002000BFFEE70FB4054B10B503A98D
:10260000044A029800F048F810BC5DF814FB000082
:10261000252C0008180100200FB4084B10B504A9A0
:1026200002AA039800F038F8044602A9002000F03E
:102630000FF9204610BC5DF814FB0000512800087B
:1026400002480068C0F30220704700000CED00E073
:1026500010B5002804DB0A07130E054A135406E0E0
:102660000A07140E034A00F00F031B1FD45410BDB9
:1026700000E400E018ED00E002E008C8121F08C105
:10268000002AFAD170477047002001E001C1121FF3
:10269000002AFBD1704700002DE9FF4F8BB09A460E
:1026A0000F460546002606E025280BD052460D9918
:1026B00090476D1C761C28780028F5D10FB0304665
:1026C000BDE8F08F0024A0460122604900E00443E9
:1026D00015F8013F203B02FA03F00842F7D12878B1
:1026E0002E2817D115F8010F44F004042A280ED023
:1026F0006FF02F022878A0F1300109290AD808EBE1
:10270000880102EB410100EB01086D1CF2E757F86C
:10271000048B6D1C287869283ED006DC0028CDD0BB
:1027200063280BD0642804D136E0732810D07528B4
:102730004BD052460D999047761C85E017F8040B54
:102740008DF8000000208DF80100E946012003E02B
:1027500057F8049B4FF0FF3061074FF0000401D49D
:102760000AE0641C44450DDA8442FADB19F80410CF
:102770000029F6D106E0641C8442FCDB19F8041041
:102780000029F8D1264404E019F8010B52460D99AE
:102790009047641EF8D257E001CF4FF00A0B002893
:1027A00002DA40422D2102E0210504D52B218DF8CB
:1027B0002410012103E0E10705D02021F7E70DF106
:1027C000200908910CE00021F9E701CF4FF00A0B36
:1027D000F9E75946FDF7DAFC01F1300209F8012D5D
:1027E0000028F6D1ADEB090000F1200B600701D401
:1027F0004FF00108D84502DDA8EB0B0000E00020F7
:102800008046002406E009A85246005D0D999047D5
:10281000641C761C08988442F5DB04E030205246A4
:102820000D999047761CB8F10001A8F10108F5DC7C
:1028300005E019F8010B52460D999047761CBBF143
:102840000001ABF1010BF4DC6D1C34E70928010039
:102850000A68531C0B601070704700002DE9F047A8
:1028600005460024A04600270A20B5490860285DD7
:1028700064283BD17F1C641CB2A1B448FFF7CCFE96
:10288000002609E015F804904B46B04AB0A1104666
:10289000FFF7C2FE641C761C042EF3DB2D23AB4A2B
:1028A000ABA11046FFF7B8FE002609E015F804902A
:1028B0004B46A64AA6A11046FFF7AEFE641C761C46
:1028C000022EF3DB2D23A14AA1A11046FFF7A4FE9F
:1028D000002609E015F804904B469C4A9CA110463E
:1028E000FFF79AFE641C761C022EF3DB285D742829
:1028F00052D17F1C641C98A19A48FFF78DFE0DE011
:1029000008EB88004FEA4008285D303880442B5D92
:10291000944A8FA11046FFF77FFE641C285D74283F
:10292000EED191A38F4A91A11046FFF775FE641C6A
:1029300006E02B5D8B4A86A11046FFF76DFE641CF6
:10294000285D742807D07E4801680068401E7C4AD4
:1029500010600029EDD17A48006810B90120BDE867
:10296000F087641CB8F1100F06DA82A37D4A7FA1BC
:102970001046FFF751FE0FE0B8F1230F06DD80A3EC
:10298000784A7AA11046FFF747FE05E07FA3754A13
:1029900076A11046FFF740FE285D68284DD17F1CC8
:1029A000641C7DA17E48FFF737FE2046641C15F8A5
:1029B00000904B467A4A66A11046FFF72DFE20464E
:1029C000641C15F800904B46754A61A11046FFF74C
:1029D00023FE3A23724A5EA11046FFF71DFE2046F1
:1029E000641C15F800904B466D4A59A11046FFF73C
:1029F00013FE2046641C15F800904B46684A54A10B
:102A00001046FFF709FE3A23654A51A11046FFF729
:102A100003FE2046641C15F800904B46604A4CA10A
:102A20001046FFF7F9FD2046641C15F800904B4650
:102A30005B4A47A11046FFF7EFFD2046641C285C67
:102A4000432820D17F1C57A15848FFF7E5FD06E039
:102A50002B5D564A3EA11046FFF7DEFD641C285D43
:102A60007C28F5D1514A52A11046FFF7D5FD641CD0
:102A700006E02B5D4D4A36A11046FFF7CDFD641CE4
:102A8000285D7C28F5D1641C2046641C285C5728EE
:102A900025D17F1C4AA14D48FFF7BEFD06E02B5D06
:102AA0004A4A2BA11046FFF7B7FD641C285D7C281D
:102AB000F5D1464A46A11046FFF7AEFD641C06E07C
:102AC0002B5D424A22A11046FFF7A6FD641C285D3B
:102AD0007C28F5D13D4A42A11046FFF79DFD00201C
:102AE0001A4981F863001F4981F863002C4981F875
:102AF00063002E4981F86300344981F86300052F93
:102B00001BDA02E03848FDF76FFB3748FDF78CFB16
:102B10000028F7D100240CE0002028550B49085567
:102B2000104908551E490855204908552749085598
:102B3000641C642CF0DB012011E700200FE700008B
:102B40004C000020C8D5C6DA3A20000080020020E0
:102B50002573256300000000B5B1C7B0CEC2B6C86A
:102B6000543A2000E402002043200000257325731E
:102B70000000000020D7A2D2E2B1A3C5AF00000040
:102B800020D0A1D0C4D6D0CAEE00000020CDE6B53A
:102B9000C3BFAAD0C4000000CAB1BCE4202000001A
:102BA00048030020435055203D200000AC03002086
:102BB0002573252520C4DAB4E6203D20000000005E
:102BC0005769666920C9CFD0D03D2000100400208D
:102BD00025736B622F7320CFC2D0D03D2000000040
:102BE00025736B622F7300000402002002461069F7
:102BF00030B9506940F0010050614FF0FF3070472C
:102C000093681068C1549068401C9060D2E9020338
:102C1000984201D1002090601069401E1061002090
:102C2000EDE7000013B50C464FF47A7301226946B4
:102C30000248FEF76DFB00981CBD0000BC0100209F
:102C400010B5034A64210348FDF7E7FA10BD000000
:102C50001C02002004020020FDF7A0FDFFF7F0FF9A
:102C6000FFF7B5FBFFF764FAFFF708FAFEF776FD0A
:102C7000FFF764F8FFF7B6FA05480068C06840F04F
:102C8000200003490968C86001E0FFF7EBF8FCE7A2
:102C9000BC01002002030405060708090A0B0C0DFD
:102CA0000E0F1010010200000000000000000102E1
:102CB00003040607080900000000010203040000E5
:102CC0000000000000000000000000000000000004
:102CD000001818181818180800081800000000003C
:102CE0000034242424000000000000000000000044
:102CF000000016247F2424247E24240000000000E9
:102D000000083E6848681C1612127C101000000073
:102D10000061D296740810162949C6000000000010
:102D200000003C646438724ACE467F000000000018
:102D30000018181818000000000000000000000033
:102D40000004081810303030301010180C04000047
:102D500000201008080C0404040C081810200000BF
:102D600000080A341C6A080000000000000000008F
:102D7000000000001818187F181818000000000044
:102D800000000000000000000018180830000000DB
:102D9000000000000000003C0000000000000000F7
:102DA00000000000000000000018180000000000F3
:102DB000000206040C08081010202040000000004B
:102DC00000003C6642475B7342663C000000000026
:102DD000000018784808080808087E000000000075
:102DE00000003C460606040810207E00000000009B
:102DF00000007C0606043C0202067C000000000085
:102E000000000C1C14246444FF04040000000000B3
:102E100000007E6060607E0202067C000000000010
:102E200000001E306048764242623C000000000014
:102E300000007E0206040C0818103000000000009C
:102E400000003C6242361C6642423C00000000002A
:102E500000003C664242661A02047800000000004E
:102E60000000000018180000001818000000000002
:102E700000000000181800000018180830000000BA
:102E80000000000004183060100C06000000000074
:102E90000000000000007E007E0000000000000036
:102EA00000000000301804060C1020000000000094
:102EB00000301C060606181000101000000000006C
:102EC000001C224141DDB5A5A5AF94C0403C0000E7
:102ED0000000181C342426627E43C100000000005C
:102EE00000007C4642467C4242427C0000000000DA
:102EF00000001E204040404040603E0000000000B6
:102F000000007C46424343434246780000000000F4
:102F100000007E6060607E6060607E0000000000F7
:102F200000007E6060607E60606060000000000005
:102F300000001E604040CE4242623E0000000000A1
:102F40000000424242427E424242420000000000F3
:102F500000007E181818181818187E0000000000CD
:102F600000007C0404040404044478000000000011
:102F700000004244485070584C4442000000000099
:102F8000000020202020202020203E000000000003
:102F900000006266675F5B5BC1C1C10000000000AA
:102FA0000000626272525A4A4E464600000000001B
:102FB00000003C6243C3C3C343623C000000000006
:102FC00000007C464242467840404000000000003D
:102FD00000003C6243C3C3C343623C180F000000BF
:102FE00000007C6662667C6C646662000000000023
:102FF00000003E6040601C0602027C0000000000F1
:1030000000007F1818181818181818000000000081
:10301000000042424242424242623C000000000044
:103020000000C14342622624341C18000000000046
:103030000000C1C141495B5B76666600000000008C
:10304000000043663418181C2466C300000000000A
:103050000000C14266341C18181818000000000057
:1030600000007E02040C181020607E0000000000AA
:10307000001C10101010101010101010101C000068
:1030800000402020101008080C0406020000000078
:10309000003C0C0C0C0C0C0C0C0C0C0C0C3C000034
:1030A0000000181C24620000000000000000000066
:1030B00000000000000000000000000000FF000011
:1030C00000201000000000000000000000000000D0
:1030D000000000003C06023E42467A00000000006C
:1030E000004040405C62424242427C0000000000DE
:1030F000000000001E20604060203E000000000034
:10310000000202023E62424242663A0000000000B3
:10311000000000003C62427E40603E000000000073
:10312000000F1810107E101010101000000000008A
:10313000000000003F66426658403E43423C0000AB
:10314000004040405C6242424242420000000000B7
:10315000001818007808080808087E000000000021
:1031600000040C007C040404040404040C78000033
:1031700000606060626C787068646200000000004B
:10318000007808080808080808087E000000000009
:1031900000000000764B4B4B4B4B4B0000000000F7
:1031A000000000005C624242424242000000000017
:1031B000000000003C62424342623C00000000000C
:1031C000000000005C62424242427C4040400000FD
:1031D000000000003E62424242663A0202020000E3
:1031E000000000006E72636060606000000000001C
:1031F000000000003E20203C06027C000000000091
:1032000000001010FE10101010101E000000000032
:10321000000000004242424242663A0000000000C4
:10322000000000004342662434181800000000002B
:1032300000000000C1C15B5A5E666600000000002D
:103240000000000062261C181C266200000000001E
:103250000000000043426624341C181830E00000CF
:10326000000000007E060C1810207E000000000008
:10327000000E18101010307010101010180E0000F2
:1032800008080808080808080808080808080000CE
:103290000030180808080C0E08080808183000004C
:1032A000000000000000714B06000000000000005C
:1032B000000000000000000000000000000000000E
:1032C00000000000000000000000000000000000FE
:1032D00000000000000000000000000000000000EE
:1032E00000000000000000000380018001800180D8
:1032F00001800180018001800180018000000000C8
:1033000003C003C000000000000000000000000037
:1033100000000000000000000E700E700E700C30F7
:10332000000000000000000000000000000000009D
:10333000000000000000000000000000000000008D
:1033400000000000000000000000061806380630EB
:103350007FFE0C300C300C300C307FFE0C601C609B
:10336000186018600000000000000000000000006D
:1033700000000000000000C000C00FF83CC831C0D1
:1033800031803D801F8003F001F8031C030C031CF7
:103390003FF83FE0070006000000000000000000CA
:1033A0000000000000001C007E0E630C63186330F8
:1033B0007E6000C001800300077C0EE61CC618C6B4
:1033C00030C6607C0000000000000000000000002B
:1033D00000000000000000000FE01CF038703870A2
:1033E0001C601FC00F003F8C71CC60EC607C70389B
:1033F0003CFC1FCE000000000000000000000000A8
:10340000000000000000000003C001800180018076
:1034100000000000000000000000000000000000AC
:10342000000000000000000000000000000000009C
:10343000000000000000003000E001C00180030037
:103440000700060006000E000E000E000E0006002B
:1034500007000300038001C000E00030000000000E
:103460000000000000000C0006000380018001C085
:1034700000E000600060007000700070006000609C
:1034800000E000C00180038006000C000000000086
:103490000000000000000000018011881DB803C07A
:1034A00007E03DBC01880180000000000000000032
:1034B000000000000000000000000000000000000C
:1034C000000000000000000000000000000001807B
:1034D00001800180018001807FFE018001800180E8
:1034E000018000000000000000000000000000005B
:1034F00000000000000000000000000000000000CC
:10350000000000000000000000000000000003C0F8
:1035100003C001C001C003801F00000000000000C4
:10352000000000000000000000000000000000009B
:1035300000000000000000000FF00000000000008C
:10354000000000000000000000000000000000007B
:10355000000000000000000000000000000000006B
:10356000000000000000000000000000000003C098
:1035700003C003C0000000000000000000000000C5
:10358000000000000000000000180038003000605B
:1035900000E000C001C001800300030006000E002F
:1035A0000C001C00180030000000000000000000AB
:1035B000000000000000000001800FF01C38381CE3
:1035C000301C707E70EE738E7E0E7C0C300C381CBE
:1035D0001E780FE000000000000000000000000066
:1035E0000000000000000000000007C01FC039C03C
:1035F00001C001C001C001C001C001C001C001C0C3
:103600003FFC3FFC00000000000000000000000044
:10361000000000000000000003801FF01838003890
:10362000001800380038007001E0038007001C001B
:103630003FFC3FFC00000000000000000000000014
:10364000000000000000000007801FF00038003874
:103650000038003007E007F00038001C001C00189C
:1036600020F83FE000000000000000000000000023
:103670000000000000000000000000F001B0033076
:1036800007300E301C30383070307FFE7FFE003047
:1036900000300030000000000000000000000000CA
:1036A000000000000000000000001FF818001800D3
:1036B000180018001FE000F8001C001C001C003857
:1036C00000F01FC00000000000000000000000002B
:1036D0000000000000000000000003F80F001C00C4
:1036E0001800300037F83C3C300C300C380C381CDB
:1036F0001E380FF000000000000000000000000075
:10370000000000000000000000003FFC001C00184A
:1037100000380070006000E001C0018003800700F5
:1037200006000E0000000000000000000000000085
:10373000000000000000000003C01FF8381C381C07
:10374000381C1C380FF007F01C78381C300C381C63
:103750003C380FF0000000000000000000000000F6
:10376000000000000000000003801FF03838301C0B
:10377000701C700C380C1FFC0FCC001C0018007063
:103780001FE01F800000000000000000000000009B
:103790000000000000000000000000000000000029
:1037A00003C003C00180000000000000000003C04F
:1037B00003C003C000000000000000000000000083
:1037C00000000000000000000000000000000000F9
:1037D00003C003C00180000000000000000003C01F
:1037E00003C001C001C003800F0000000000000002
:1037F0000000000000000000000000000000003891
:1038000000F001C007001E0038000E00078001C054
:103810000070003000000000000000000000000008
:103820000000000000000000000000000000000098
:10383000000000003FFC000000003FFC3FFC0000D7
:103840000000000000000000000000000000000078
:1038500000000000000000000000000000001C004C
:103860000F00038001E00078001C007001E003807D
:103870000E000C000000000000000000000000002E
:1038800000000000000000000FC000F00038003809
:103890000038003803F0038003000300000000003C
:1038A000078007800000000000000000000000000A
:1038B00000000000000000E007F80C0C18063006BD
:1038C000700363F36633C673CC63CC62CC66CCE61C
:1038D000C7FCE0006000700038101FF0000000001E
:1038E0000000000000000000000003C007E006E048
:1038F0000E700E700C301C3818183FFC3FFC700E18
:10390000600EE00700000000000000000000000062
:10391000000000000000000000003FF03838381CB4
:10392000381C38383FF03FF8381C380C380C381C3D
:103930003FF83FE000000000000000000000000031
:10394000000000000000000000E007FC1E0438003A
:1039500038003000700070007000300038003C000B
:103960001F9C07FC00000000000000000000000099
:10397000000000000000000000003FF03078301C24
:10398000300C300E300E300E300E300E301C303811
:103990003FF03FC0000000000000000000000000F9
:1039A000000000000000000000001FF818001800D0
:1039B000180018001FF81FF8180018001800180049
:1039C0001FF81FF8000000000000000000000000C9
:1039D000000000000000000000001FF818001800A0
:1039E000180018001FF81FF8180018001800180019
:1039F0001800180000000000000000000000000097
:103A0000000000000000000000F007FC1E04380069
:103A100030007000700070FC700C700C300C380CB2
:103A20001F1C07FC00000000000000000000000058
:103A300000000000000000000000300C300C300CD2
:103A4000300C300C3FFC3FFC300C300C300C300C98
:103A5000300C300C000000000000000000000000EE
:103A6000000000000000000000003FFC0180018019
:103A7000018001800180018001800180018001803E
:103A80003FFC3FFC000000000000000000000000C0
:103A9000000000000000000000001FF000300030B7
:103AA0000030003000300030003000300030007056
:103AB0001DE01FC00000000000000000000000002A
:103AC00000000000000000000000381C387038E0E2
:103AD00039C03B803F003F003B8039C038E0387040
:103AE0003838381C00000000000000000000000012
:103AF000000000000000000000001C001C001C0072
:103B00001C001C001C001C001C001C001C001C00D5
:103B10001FFC1FFC0000000000000000000000006F
:103B200000000000000000000000381C7C3C6C3EDF
:103B30006E6E666E66CE63C66386618660066006DC
:103B400060066006000000000000000000000000A9
:103B5000000000000000000000003C0C3C0C3E0C8B
:103B6000360C330C338C318C31CC30EC306C307CF7
:103B7000303C301C0000000000000000000000008D
:103B8000000000000000000001C00FF81C3C381CC1
:103B9000700E700E60066006700E700E700C381C91
:103BA0001E780FE000000000000000000000000090
:103BB000000000000000000000003FF0383C381C0E
:103BC000380C380C381C38783FE0380038003800A2
:103BD0003800380000000000000000000000000075
:103BE000000000000000000001C00FF81C3C381C61
:103BF000700E700E60066006700E700E700C381C31
:103C00001E780FE0018001C000FF003C00000000B2
:103C1000000000000000000000003FF038383818B5
:103C20003818383838F03FC038E03870383838380D
:103C3000381C380E000000000000000000000000EA
:103C4000000000000000000001E00FF8380038001C
:103C500038003C001F8003F00078001C001C001C92
:103C600038783FE000000000000000000000000085
:103C7000000000000000000000007FFE01800180C5
:103C8000018001800180018001800180018001802C
:103C90000180018000000000000000000000000022
:103CA00000000000000000000000300C300C300C60
:103CB000300C300C300C300C300C300C300C381C0C
:103CC0001C380FF0000000000000000000000000A1
:103CD00000000000000000000000E006700E700E02
:103CE000381C381C1C181C380C300E70066007E09D
:103CF00003C003C00000000000000000000000003E
:103D00000000000000000000000060066006600681
:103D100060066186638673C673CE766C366C3C3CF7
:103D20003C3C381C000000000000000000000000C7
:103D300000000000000000000000301C38181C3893
:103D40000E7007E003C003C007E00E701C3818387F
:103D5000381C700E00000000000000000000000091
:103D600000000000000000000000700E700C381C05
:103D70001C380E70066007E003C0018001800180DE
:103D80000180018000000000000000000000000031
:103D9000000000000000000000003FFC001C003894
:103DA000007000E001C0038007000E000C00180046
:103DB0003FFC3FFC0000000000000000000000008D
:103DC00000000000000007F007F0060006000600F3
:103DD00006000600060006000600060006000600B3
:103DE0000600060006000600060007F000000000BE
:103DF000000000000000000018001C000C0006007D
:103E0000070003000380018001C000C00060007053
:103E1000003000380018000C000000000000000016
:103E20000000000000000FE00FE000600060006094
:103E30000060006000600060006000600060006082
:103E4000006000600060006000600FE000000000A3
:103E50000000000000000000000003C006C0066073
:103E60000C301818301C000000000000000000009A
:103E70000000000000000000000000000000000042
:103E80000000000000000000000000000000000032
:103E90000000000000000000000000000000000022
:103EA00000000000000000000000FFFF0000000014
:103EB00000000000000000001E0003800000000061
:103EC00000000000000000000000000000000000F2
:103ED00000000000000000000000000000000000E2
:103EE00000000000000000000000000000000000D2
:103EF0001FF01038001C001C0FFC1C1C381C381C48
:103F00003CFC1FDC0000000000000000000000007E
:103F100000000000000000003800380038003800C1
:103F20003BF83E1C3C1C380C380C380C380C381C48
:103F30003C781FE0000000000000000000000000CE
:103F40000000000000000000000000000000000071
:103F500007F80E001C0038003800380038001C003C
:103F60000F1807F80000000000000000000000002B
:103F70000000000000000000001C001C001C001CD1
:103F80000FFC1C1C381C301C301C301C301C383CF6
:103F90001CFC0F9C0000000000000000000000005E
:103FA0000000000000000000000000000000000011
:103FB0000FF01C38381C300C3FFC3000300038004B
:103FC0001E0C07FC000000000000000000000000C4
:103FD000000000000000003C01FE0380030003001D
:103FE00003007FFC7FFC03000300030003000300C9
:103FF00003000300000000000000000000000000BB
:1040000000000000000000000000000000000000B0
:104010000FFE1C383818381818381FF03B80300055
:104020003FF01FFC300E700E381C1FF8000000001F
:1040300000000000000000003800380038003800A0
:104040003BF83E383C1C381C381C381C381C381CCB
:10405000381C381C000000000000000000000000B8
:10406000000000000000018003C003C00000000049
:104070001FC001C001C001C001C001C001C001C01A
:1040800001C03FFC00000000000000000000000034
:104090000000000000000020007000700000000020
:1040A0003FF00070007000700070007000700070D1
:1040B000007000700070007020E03FC00000000041
:1040C0000000000000000000180018001800180090
:1040D000183C187018E01B801F001B8019E0187036
:1040E0001838181C0000000000000000000000004C
:1040F00000000000000000001FC001C001C001C09E
:1041000001C001C001C001C001C001C001C001C0A7
:1041100001C03FFC000000000000000000000000A3
:10412000000000000000000000000000000000008F
:104130006F3C79EE71CE718E718E718E718E718E33
:10414000718E718E00000000000000000000000071
:10415000000000000000000000000000000000005F
:104160003BF83E383C1C381C381C381C381C381CAA
:10417000381C381C00000000000000000000000097
:10418000000000000000000000000000000000002F
:104190000FF01C3C381C700E700E700E700C381C2A
:1041A0001E780FE00000000000000000000000008A
:1041B00000000000000000000000000000000000FF
:1041C0003BF83E1C3C1C380C380C380C380C381CA6
:1041D0003C783FE03800380038003800000000002C
:1041E00000000000000000000000000000000000CF
:1041F0000FFC1C1C381C301C301C301C301C383C84
:104200001CFC0F9C001C001C001C001C000000007B
:10421000000000000000000000000000000000009E
:1042200019F81F1C1C0C180E180018001800180094
:10423000180018000000000000000000000000004E
:10424000000000000000000000000000000000006E
:104250000FF81C0018001E000FC001F8001800180D
:1042600018381FF0000000000000000000000000EF
:10427000000000000000000000000600060006002C
:104280007FFC060006000600060006000600070088
:10429000078401FC00000000000000000000000096
:1042A000000000000000000000000000000000000E
:1042B000381C381C381C381C381C381C381C383C3E
:1042C0001CFC0FDC000000000000000000000000EB
:1042D00000000000000000000000000000000000DE
:1042E000700C381C38181C380C300E70066007E053
:1042F00003C003C000000000000000000000000038
:1043000000000000000000000000000000000000AD
:10431000600660066186738E73CC33CC366C366C67
:104320003C3C3C38000000000000000000000000A1
:10433000000000000000000000000000000000007D
:10434000381C1C380E7007E003C003C007E00E7075
:104350001C38381E000000000000000000000000B3
:10436000000000000000000000000000000000004D
:10437000700C381C38181C380C300E70066007E0C2
:1043800003C003C0038007000E007C000000000093
:10439000000000000000000000000000000000001D
:1043A0001FF80038007000E001C0038007000C0017
:1043B0001FFC3FFC000000000000000000000000A7
:1043C000000000000000007801F8038003800380F3
:1043D0000380038003003F003E000300038003804E
:1043E000038003800380038001C000F80000000008
:1043F0000000018001800180018001800180018036
:1044000001800180018001800180018001800180A4
:104410000180018001800180018001800000000096
:104420000000000000001E001F80018001C001C0CC
:1044300001C001C000C000FC007C00C001C001C080
:1044400001C001C001C001C003801F0000000000C6
:10445000000000000000000000000000000000005C
:10446000000000001C003F0671CE60FC0000000050
:10447000000000000000000000000000000000003C
:10448000000000000000000000000000000000002C
:10449000000000000000000000000000000000001C
:1044A000000000000000000000000000000000000C
:1044B00000000000000000000000000000000000FC
:1044C00000000000000000000000000000000000EC
:1044D00000000000000000000000000000000000DC
:1044E00000000000000000000000000000000000CC
:1044F000003C00003C00003C00003C00003C000090
:104500003C00003C00003C00003C00003C00003C43
:1045100000003C00003C00003C00000000000000E7
:10452000003C00007E00003C000000000000000095
:10453000000000000000000000000000000000007B
:10454000000000000000000000000000000000006B
:1045500003C3E003C3E003C3C003C3C003C3C0037A
:10456000C3C003C1C0000000000000000000000044
:10457000000000000000000000000000000000003B
:10458000000000000000000000000000000000002B
:10459000000000000000000000000000000000001B
:1045A000000000000000000000000000000000000B
:1045B00000000000000001E0E001C0E001C0E001F7
:1045C000C0E03FFFFE3FFFFE03C1C00381C0038187
:1045D000C00381C07FFFFC7FFFFC0783800703804F
:1045E0000703800703800707800000000000000029
:1045F00000000000000000000000000000000000BB
:1046000000000000000000000000000000000700A3
:10461000000F00000E0001FFF007FFF01F0E001E4C
:104620001E001E1C001E1C000FDC0007FC0000FF0B
:1046300080003FF00038F800387800783C0070784F
:104640003071F83FFFE01FFF0000E00000E00000D5
:10465000E00000000000000000000000000000007A
:10466000000000000000000000000000000000004A
:104670000F800F3FE01E78703C7070707070E070BB
:1046800071C03FE3801FC700000E00001C000078CF
:104690000000F0F001E7FC03CF0E078E0E0F0E0EA8
:1046A0001E0E0E3C07BC7003F80000000000000066
:1046B00000000000000000000000000000000000FA
:1046C00000000000000000000000000000000000EA
:1046D00000000001FF0007FF800F03C00F03C00FA1
:1046E00003C00F0780079F0003FE0003F0000FF8D0
:1046F0003C3E7C3C3C1F3C780FF87807F87C01F08E
:104700003E03F81FFFFC07FE1F0000000000000032
:104710000000000000000000000000000000000099
:104720000000000000000000000000000000000089
:10473000003E00003C00003C00003C00003C00004B
:104740003C00003C000000000000000000000000F1
:104750000000000000000000000000000000000059
:104760000000000000000000000000000000000049
:104770000000000000000000000000000000000039
:1047800000000000000000000000000000000080A9
:104790000001C0000780000F00001E00003C000068
:1047A000780000F00000E00001E00001E00001C03E
:1047B0000003C00003C00001C00001E00001E000F0
:1047C00000F00000F000007800003C00001E000037
:1047D0000F000007C00001C0000000000000000042
:1047E00000000000000000000000000000000000C9
:1047F00003C00001E00000F000007C00003E00006B
:104800001E00000F000007800007800003800003E7
:10481000C00003C00003C00003C000038000078085
:10482000000780000F00001E00003C000078000020
:10483000F00001E000038000000000000000000024
:104840000000000000000000000000000000000068
:10485000001C00001C000018000F18F007DBE0002F
:104860007F0000FF0007DBE00E1870001800001C3E
:1048700000001C000000000000000000000000001C
:104880000000000000000000000000000000000028
:104890000000000000000000000000000000000018
:1048A0000000000000000000000000000000000008
:1048B00000000000000000000000000000000000F8
:1048C0003C00003C00003C00003C00003C00003C80
:1048D000003FFFFC3FFFFC003C00003C00003C00B0
:1048E000003C00003C000000000000000000000050
:1048F00000000000000000000000000000000000B8
:1049000000000000000000000000000000000000A7
:104910000000000000000000000000000000000097
:104920000000000000000000000000000000000087
:1049300000000000000000000000000000007C00FB
:10494000007E00007E00003E00001E00003C0000D3
:10495000F80007E000040000000000000000000074
:104960000000000000000000000000000000000047
:104970000000000000000000000000000000000037
:104980000000000000000000000000000000000027
:104990000003FFE003FFE000000000000000000053
:1049A0000000000000000000000000000000000007
:1049B00000000000000000000000000000000000F7
:1049C00000000000000000000000000000000000E7
:1049D00000000000000000000000000000000000D7
:1049E00000000000000000000000000000000000C7
:1049F00000000000000000000000000000007C003B
:104A000000FE0000FE00007E00000000000000002C
:104A10000000000000000000000000000000000096
:104A20000000000000000000000000000000000086
:104A30000000780000F00000E00001E00003C0008A
:104A40000380000780000F00000E00001E00003CE5
:104A50000000380000700000F00000E00001C0001D
:104A600003C0000780000700000F00001E00001CAC
:104A70000000000000000000000000000000000036
:104A80000000000000000000000000000000000026
:104A900000000000000001FFC007FFE00F00F01E53
:104AA00000781E003C3C00FC3C07FC3C1FBC3C7CEE
:104AB0001C3DF03C3FC03C3F003C1E00381E0078CF
:104AC0000F80F007FFE001FF800000000000000001
:104AD00000000000000000000000000000000000D6
:104AE00000000000000000000000000000000000C6
:104AF000000000000000007E0003FE001FDE000E2C
:104B00001E00001E00001E00001E00001E00001EF1
:104B100000001E00001E00001E00001E00001E00FF
:104B2000001E000FFFF80FFFF8000000000000005B
:104B30000000000000000000000000000000000075
:104B40000000000000000000000000000000000065
:104B500000000000000003FF800FFFE00E01F000E6
:104B600000F00000F00000F00000F00001E00003A1
:104B7000C0000F80003E00007C0001F00003C00078
:104B80000F80001FFFFC1FFFFC0000000000000062
:104B90000000000000000000000000000000000015
:104BA0000000000000000000000000000000000005
:104BB0000000000000000FFF800FFFE00001E00098
:104BC00000F00000F00001E00003C001FF0001FF61
:104BD000C00003F000007800007800007800007842
:104BE0000001F00FFFC00FFF0000000000000000F8
:104BF00000000000000000000000000000000000B5
:104C000000000000000000000000000000000000A4
:104C1000000000000000000FC0001FC0003FC000E7
:104C20007BC000F3C001E3C003C3C00783C00F0310
:104C3000C01C03C03803C07FFFFE7FFFFE0003C01F
:104C40000003C00003C00003C0000000000000001B
:104C50000000000000000000000000000000000054
:104C60000000000000000000000000000000000044
:104C70000000000000000FFFE00FFFE00F00000F3A
:104C800000000F00000F00000F00000FFF800FFF5B
:104C9000E00000F00000780000780000780000F0EC
:104CA0000003E00FFFC00FFE000000000000000046
:104CB00000000000000000000000000000000000F4
:104CC00000000000000000000000000000000000E4
:104CD000000000000000003FF001FFF003E00007CB
:104CE00080000F00001E00001E1F001FFFE01FC1FC
:104CF000F81E00781E003C1E003C1E003C0F007891
:104D00000F80F807FFE001FF8000000000000000B6
:104D10000000000000000000000000000000000093
:104D20000000000000000000000000000000000083
:104D30000000000000001FFFFC1FFFFC00007800C7
:104D400000F00000E00001E00003C0000780000F59
:104D500000000F00001E00003C0000780000F00082
:104D600001F00001E00003C00000000000000000AE
:104D70000000000000000000000000000000000033
:104D80000000000000000000000000000000000023
:104D900000000000000003FFE00FE3F00F00781EAA
:104DA00000781E00780F00F007E3E001FF8001FFAC
:104DB0008007E7E00F00F81E00781E003C1E007C14
:104DC0001F00F80FFFF003FFC0000000000000000C
:104DD00000000000000000000000000000000000D3
:104DE00000000000000000000000000000000000C3
:104DF00000000000000003FF800FC7E01E00F01E4F
:104E000000783C00783C00783C00381E00780FEFBA
:104E1000F807FFB80000780000780000F00001E01B
:104E2000000FC00FFF000FF00000000000000000A6
:104E30000000000000000000000000000000000072
:104E40000000000000000000000000000000000062
:104E50000000000000000000000000000000000052
:104E60000000007E00007E00007E000018000000B0
:104E700000000000000000000000000000003C00F6
:104E8000007E00007E00003E0000000000000000E8
:104E90000000000000000000000000000000000012
:104EA0000000000000000000000000000000000002
:104EB00000000000000000000000000000000000F2
:104EC0000000007E00007E00007E00001800000050
:104ED00000000000000000000000000000003E0094
:104EE000007E00007F00001F00001E00001E00006A
:104EF000FC0007F0000400000000000000000000BB
:104F000000000000000000000000000000000000A1
:104F10000000000000000000000000000000400051
:104F200001E00007C0001F00007E0001F80003E060
:104F3000000F80000F800003E00000F800003E003A
:104F4000000F800003E00000E0000000000000000F
:104F50000000000000000000000000000000000051
:104F60000000000000000000000000000000000041
:104F70000000000000000000000000000000000031
:104F800000000000000000000000001FFFF800000B
:104F9000000000000000001FFFF81FFFF8000000E5
:104FA0000000000000000000000000000000000001
:104FB00000000000000000000000000000000000F1
:104FC00000000000000000000000000000000000E1
:104FD00000000000000000000000000000000007CA
:104FE000800003E00000F800003E00000F80000396
:104FF000E00000F80001F00007C0001F00007C0086
:1050000001F00007C00003000000000000000000E5
:105010000000000000000000000000000000000090
:105020000000000000000000000000000000000080
:1050300001C00001FE00007F800007C00001E00009
:1050400000F00000F00001F00003E0007FC0007EEF
:105050000000700000700000700000000000000000
:1050600000F80000F80000F8000000000000000058
:105070000000000000000000000000000000000030
:105080000000000000000000000000000000000020
:10509000001F8000FFF003C07807801C0E000E1C6C
:1050A000000E3C000F383FC778FFC770E3C771C3DD
:1050B000C7F3C387E3C387E3878EE3878EE3CF8E8F
:1050C000E3FFFC71F9F07000007000003800003C54
:1050D00000000F01C007FFC000000000000000003A
:1050E00000000000000000000000000000000000C0
:1050F000000000000000007E00007F0000FF0000B4
:10510000E78001E78003C3C003C3C00781E00781D4
:10511000E00F00F00F00F81FFFF81FFFFC3C003C01
:105120003C001E78001EF0000F0000000000000090
:10513000000000000000000000000000000000006F
:10514000000000000000000000000000000000005F
:105150000000000000001FFFC01FFFF01E00F01E37
:1051600000781E00781E00F01E01F01FFFC01FFF18
:10517000E01E01F81E00781E003C1E003C1E007858
:105180001E00F81FFFE01FFF0000000000000000ED
:10519000000000000000000000000000000000000F
:1051A00000000000000000000000000000000000FF
:1051B00000000000000000FFF803FFF807C0000F28
:1051C00000001E00001E00003C00003C00003C00EF
:1051D000003C00003C00003E00001E00000F0000EC
:1051E0000FC00803FFF800FFF800000000000000F7
:1051F00000000000000000000000000000000000AF
:10520000000000000000000000000000000000009E
:105210000000000000003FFF003FFFE03C01F03CC9
:1052200000783C003C3C003C3C003C3C001E3C0008
:105230001E3C001E3C003C3C003C3C00783C00F81E
:105240003C07E03FFFC03FFC000000000000000002
:10525000000000000000000000000000000000004E
:10526000000000000000000000000000000000003E
:105270000000000000000FFFF00FFFF00F00000F14
:1052800000000F00000F00000F00000FFFF00FFFE5
:10529000F00F00000F00000F00000F00000F0000D3
:1052A0000F00000FFFF00FFFF000000000000000F3
:1052B00000000000000000000000000000000000EE
:1052C00000000000000000000000000000000000DE
:1052D0000000000000000FFFF00FFFF00F00000FB4
:1052E00000000F00000F00000F00000FFFF00FFF85
:1052F000F00F00000F00000F00000F00000F000073
:105300000F00000F00000F00000000000000000070
:10531000000000000000000000000000000000008D
:10532000000000000000000000000000000000007D
:1053300000000000000000FFFC03FFFC0FC0041F82
:1053400000001E00003C00003C0000780FFC780FBD
:10535000FC78003C3C003C3C003C3E003C1F003CD8
:105360000FC03C03FFFC00FFF8000000000000003D
:10537000000000000000000000000000000000002D
:10538000000000000000000000000000000000001D
:105390000000000000003C003C3C003C3C003C3C69
:1053A000003C3C003C3C003C3C003C3FFFFC3FFFE1
:1053B000FC3C003C3C003C3C003C3C003C3C003C99
:1053C0003C003C3C003C3C003C0000000000000075
:1053D00000000000000000000000000000000000CD
:1053E00000000000000000000000000000000000BD
:1053F0000000000000000FFFF80FFFF8003C000065
:105400003C00003C00003C00003C00003C00003C34
:1054100000003C00003C00003C00003C00003C0060
:10542000003C000FFFF80FFFF80000000000000034
:10543000000000000000000000000000000000006C
:10544000000000000000000000000000000000005C
:105450000000000000000FFFE00FFFE00001E0008F
:1054600001E00001E00001E00001E00001E00001D6
:10547000E00001E00001E00001E00001E00003C005
:105480000C07C00FFF8007FE0000000000000000B6
:10549000000000000000000000000000000000000C
:1054A00000000000000000000000000000000000FC
:1054B0000000000000001E00781E01F01E03C01E48
:1054C00007801E1F001E3C001E78001EF0001FF00B
:1054D000001EF8001E3C001E1E001E0F801E07C08E
:1054E0001E01E01E00F81E007C000000000000000D
:1054F00000000000000000000000000000000000AC
:10550000000000000000000000000000000000009B
:1055100000000000000007800007800007800007EF
:105520008000078000078000078000078000078058
:1055300000078000078000078000078000078000C8
:1055400007800007FFF807FFF800000000000000D8
:10555000000000000000000000000000000000004B
:10556000000000000000000000000000000000003B
:105570000000000000003E007C3F00FC3F81DC3B5F
:1055800081DC3BC39C39C39C38E71C38EF1C387E58
:105590001C387C1E383C1E78001E78001E78001EC9
:1055A00078001E78001E78001E0000000000000039
:1055B00000000000000000000000000000000000EB
:1055C00000000000000000000000000000000000DB
:1055D0000000000000001F003C1F803C1FC03C1D5D
:1055E000C03C1DE03C1CF03C1C783C1C783C1C3C46
:1055F0003C1C1E3C1C0F3C1C0F3C1C07BC1C03FC31
:105600001C01FC1C00FC1C00FC0000000000000051
:10561000000000000000000000000000000000008A
:10562000000000000000000000000000000000007A
:1056300000000000000001FFC007FFF00F00F81E8F
:10564000007C3C003C3C001E78001E78001E780068
:105650001E78001E78001E3C003C3C003C1E00787A
:105660001F00F007FFE001FF8000000000000000C5
:10567000000000000000000000000000000000002A
:10568000000000000000000000000000000000001A
:105690000000000000001FFF801FFFF01E00F81E2A
:1056A000007C1E003C1E003C1E003C1E00781E03B9
:1056B000F01FFFC01FFE001E00001E00001E0000A5
:1056C0001E00001E00001E00000000000000000080
:1056D00000000000000000000000000000000000CA
:1056E00000000000000000000000000000000000BA
:1056F00000000000000001FFC007FFF00F00F81ECF
:10570000007C3C003C3C001E78001E78001E7800A7
:105710001E78001E78001E3C003C3C003C1E0078B9
:105720001F80F007FFE001FF80003C00003C00000C
:105730001F06000FFF0001F800000000000000003D
:105740000000000000000000000000000000000059
:105750000000000000000FFF800FFFE00E01F00EC0
:1057600000F00E00F00E00F00E01F00FFFC00FFF72
:10577000000E1F000E07800E03C00E01E00E00F0A9
:105780000E00F80E00780E003C0000000000000043
:105790000000000000000000000000000000000009
:1057A00000000000000000000000000000000000F9
:1057B00000000000000003FFF00FFFF01F00001EBC
:1057C00000001E00001F00000FC00007FC0000FFCB
:1057D00080000FF00001F8000078000078000078E9
:1057E0002000F83FFFE03FFF8000000000000000C5
:1057F00000000000000000000000000000000000A9
:105800000000000000000000000000000000000098
:105810000000000000003FFFFC3FFFFC003C0000D8
:105820003C00003C00003C00003C00003C00003C10
:1058300000003C00003C00003C00003C00003C003C
:10584000003C00003C00003C0000000000000000A4
:105850000000000000000000000000000000000048
:105860000000000000000000000000000000000038
:105870000000000000003C003C3C003C3C003C3C84
:10588000003C3C003C3C003C3C003C3C003C3C00C0
:105890003C3C003C3C003C3C003C3C003C1E007856
:1058A0001F00F80FFFE003FF800000000000000071
:1058B00000000000000000000000000000000000E8
:1058C00000000000000000000000000000000000D8
:1058D000000000000000F8000F78001E3C001E3C95
:1058E000003C1E00381E00780F00700F00F007818A
:1058F000E00781E003C3C003E3C001E78000F78055
:1059000000FF00007E00007E00000000000000009C
:105910000000000000000000000000000000000087
:105920000000000000000000000000000000000077
:1059300000000000000078000E78000E78000E785D
:10594000001E38001E38001E383C1C383C1C387EB7
:105950001C387F1C3CE71C3CE79C3DC39C1DC3DC02
:105960001F81DC1F80F81F00F8000000000000000D
:105970000000000000000000000000000000000027
:105980000000000000000000000000000000000017
:105990000000000000003C003C1E00780F00F007F3
:1059A00081E003C3C001E78000FF00007E00007EAD
:1059B0000000FF0001FF8003E7C007C3E00F81F094
:1059C0001F00F83E007C7C003E000000000000004C
:1059D00000000000000000000000000000000000C7
:1059E00000000000000000000000000000000000B7
:1059F00000000000000078001F3C003E1E007C1FDD
:105A000000780F80F007C1E003E3C001E78000FFEA
:105A100000007E00003C00003C00003C00003C0018
:105A2000003C00003C00003C0000000000000000C2
:105A30000000000000000000000000000000000066
:105A40000000000000000000000000000000000056
:105A50000000000000001FFFFC1FFFFC0000F8001A
:105A600001E00003C0000780000F00001E00003CA2
:105A70000000780000F00003E00007C0000F800085
:105A80001F00003FFFFC3FFFFC0000000000000083
:105A90000000000000000000000000000000000006
:105AA00000000000000000000000000000000000F6
:105AB00001FFC001FFC001E00001E00001E00001C2
:105AC000E00001E00001E00001E00001E00001E091
:105AD0000001E00001E00001E00001E00001E00061
