:020000040800F2
:10000000A8C700202D020008E9360008672900086B
:10001000E5360008750800080D4E000800000000D5
:10002000000000000000000000000000454700083C
:100030007908000800000000EB3600082D49000890
:10004000470200084702000847020008470200086C
:10005000470200084702000847020008470200085C
:10006000470200084702000847020008470200084C
:10007000470200084702000847020008470200083C
:10008000470200084702000847020008470200082C
:10009000470200084702000847020008470200081C
:1000A000470200084702000847020008470200080C
:1000B00047020008470200088D490008470200086F
:1000C00047020008470200084702000847020008EC
:1000D00047020008CD4D000847020008470200080B
:1000E00047020008470200084702000847020008CC
:1000F00047020008470200084702000847020008BC
:1001000047020008470200084702000847020008AB
:10011000470200084702000847020008470200089B
:10012000470200084702000847020008470200088B
:1001300000F002F800F06BF80AA090E8000C82448E
:100140008344AAF10107DA4501D100F060F8AFF26B
:10015000090EBAE80F0013F0010F18BFFB1A43F0A5
:100160000103184774E8000094E800000A444FF0C7
:10017000000C10F8013B13F0070408BF10F8014B06
:100180001D1108BF10F8015B641E05D010F8016B4B
:10019000641E01F8016BF9D113F0080F1EBF10F8AF
:1001A000014BAD1C0C1B09D16D1E58BF01F801CBD2
:1001B000FAD505E014F8016B01F8016B6D1EF9D555
:1001C0009142D6D37047000000230024002500266A
:1001D000103A28BF78C1FBD8520728BF30C148BFAA
:1001E0000B607047642900F01581752900F01281B9
:1001F000782900F04B81632900F0CF82732900F049
:10020000D482002070471FB51FBD10B510BD00F08F
:10021000FFFA1146FFF7F7FF07F09EF900F01DFB0C
:1002200003B4FFF7F2FF03BC04F0D9FF094880478D
:1002300009480047FEE7FEE7FEE7FEE7FEE7FEE7C8
:10024000FEE7FEE7FEE7FEE704480549054A064BE0
:10025000704700003549000831010008A8C100209E
:10026000A8C70020A8C30020A8C30020704753EAF5
:10027000020C00F069802DE9F04B4FF00006002BD6
:100280001FBFB3FA83F503FA05F424FA05F65E40BE
:1002900012BF1643B2FA82F502FA05F4C5F1200541
:1002A0001EBF22FA05FC44EA0C04203556EA044C31
:1002B0004FEA144418BF641C4FF000084FF00009C7
:1002C000904271EB030C39D3002919BFB1FA81F7C1
:1002D00001FA07F6B0FA80F700FA07F6C7F120072F
:1002E0001EBF20FA07FC46EA0C062037B6FBF4FCDA
:1002F000A7EB0507103F07F01F0BCBF120060CFA08
:100300000BFB2CFA06F644BFB3460026202FA4BFF1
:100310005E464FF0000B5BEA060C08BF4FF0010B86
:1003200019EB0B09ABFB027C48EB0608C01B06FB74
:1003300002CC0BFB03CC71EB0C01C1E70B46024670
:1003400041464846BDE8F08B13B54FF000004FF032
:100350000001AFF30080BDE81C4070470FB40449B2
:1003600010B503AA029800F025FA10BC5DF814FB42
:100370001400002070B5044685690068C10601D5E7
:10038000302600E02026C00707D070BDD4E9012147
:1003900030469047206A401C20626D1EF6D570BD25
:1003A00070B5044685690078C00707D170BDD4E9EF
:1003B000012120209047206A401C20626D1EF6D546
:1003C00070BD70B50C460546012A05D02878800618
:1003D00000D5EA69002302E0012305E05B1C93429B
:1003E00002D2E05C0028F9D1A869E618C01AA86119
:1003F000286A184428622846FFF7BCFF04E0D5E9C4
:10040000012114F8010B9047B442F8D32846FFF7B6
:10041000C7FF70BD2DE9F04106460024106875291C
:10042000314616A510D0AFF30080002802DA404212
:1004300013A507E031688A0701D512A502E0490734
:1004400004D511A5012401E0AFF3008000210A22A8
:1004500006F1240709E0B0FBF2FCB0FBF2F302FB6B
:100460001C00303078541846491C0028F3D123462C
:100470002A463046BDE8F04100F02CB900000000EB
:100480002D0000002B0000002000000070B5044685
:100490000D4621461068AFF300802188090502D57A
:1004A0000F4A7A4402E00E4A7A440E32002104F1E7
:1004B000240305E000F00F060009965D5E54491C18
:1004C0000028F7D120780023000704D5702D02D032
:1004D00009B1022311322046BDE8704000F0FAB89D
:1004E00002E400002DE9F05F894604464FF0000A5F
:1004F000DFF874B1FB44C0F820A02046E1688847CB
:10050000002874D0252806D0D4E901219047206A1C
:10051000401C2062F1E700265F462046E1688847DC
:100520002028054607DB312D05D2781910F8200C5C
:1005300008B10643F1E7B00701D526F00406C4F878
:100540001CA00027C4F818A02A2D09D0284604F0C2
:100550003FFE38B304EB8708303DC8F8185019E067
:1005600059F8041B204604EB87029161E168884733
:10057000012F054618D1E069002820DA26F0200670
:100580001DE0D8F8180000EB800005EB4000303883
:10059000C8F818002046E1688847054604F018FEB0
:1005A0000028EED1012F0AD02E2D08D12046E16877
:1005B00088477F1C0546022F46F02006C4DBA06951
:1005C000002803DA404246F00106A061F00701D09E
:1005D00026F010066C2D0BD0682D09D04C2D39D08B
:1005E0006A2D35D0742D35D07A2D33D016E038E011
:1005F000E1682F4620468847B842054609D16C2F4E
:1006000026D04FF48060E1680643204688470546BF
:1006100004E06C2F1AD04FF4807006430DB3A5F19F
:100620004100192802D8203546F400664A4629467A
:10063000204626604E46FFF7D5FD80B101280BD03D
:10064000F61D26F0070000F1080956E74020E4E710
:100650008020D8E70020D6E706F104094DE72846B8
:1006600052E7206ABDE8F09FD8E3000040EA0103AA
:10067000024630B59B0710D14FF0013400E008C2AC
:1006800008C91D1B9D4315EAC41FF8D013F0FF01D4
:1006900002F8011B0DD01B0AF8E711F8013B002BF3
:1006A00002F8013B05D011F8013B002B02F8013B99
:1006B000F3D130BD421E12F8013F002BFBD111F8DF
:1006C000013B002B02F8013BF9D17047704770479E
:1006D000704770472DE9F0470D469946924604460B
:1006E00000F124080168880604D5E06921F01001B2
:1006F000216000E00120A84201DD471B00E0002747
:10070000A1697A1902EB0900081AA0612078C006D5
:1007100002D42046FFF72EFE002608E0D4E901218E
:100720001AF806009047206A401C761C20624E454D
:10073000F4DB2078C0060AD52046FFF71BFE06E052
:10074000D4E9012130209047206A401C2062381EE5
:10075000A7F10107F4DC07E0D4E9012118F805004E
:100760009047206A401C2062281EA5F10105F3DC99
:100770002046FFF715FE2078000602D50220BDE8CE
:10078000F0870120FBE710B5436913B1AFF3008098
:1007900001E0FFF716FE012010BD127800F12401E0
:1007A0000A7000224A700122EDE711684FF0FF3213
:1007B000E9E70000074B70B50D467B4400F011F8E7
:1007C0000446284600F020F810B14FF0FF3070BD0D
:1007D000204670BD9768000001694A1C02610878D4
:1007E000704700B58FB0CDE9013100210591054971
:1007F0007944CDE9031011466846FFF773FE0FB048
:1008000000BD0000E5FFFFFF007B00F080007047A7
:10081000754600F02BF8AE4605006946534620F0B9
:100820000700854618B020B5FFF70EFDBDE8204053
:100830004FF000064FF000074FF000084FF0000B9C
:1008400021F00701AC46ACE8C009ACE8C009ACE84F
:10085000C009ACE8C0098D46704710B50446AFF337
:1008600000802046BDE81040FFF7DABC0048704722
:1008700044C1002000BFFEE77047000070B5044689
:10088000B3F5804F13D1D1E9000540EA05108D681A
:1008900040EA05208D6928438D8940EA054054F8D7
:1008A0002250064E3540284344F8220003E06FF002
:1008B000704044F82200002070BD00000000F0CF1E
:1008C00030B50246086852F8200020F001000C689C
:1008D00042F824008868082801D1402300E0002362
:1008E000486818438C682043CC6820430C69204337
:1008F0004C6920438C692043CC6920430C6A204317
:100900004C6A20438C6A2043CC6A20430C6B204302
:100910004C6B20430C6852F82440044D2C4020437B
:100920000C6842F82400002030BD00008000F0FF79
:1009300010B50346D1E9000440EA04108C6840EA8F
:1009400004208C8940EA0444088A401E44EA00548A
:10095000087D801E44EA00608C692043541C53F8D3
:10096000244004F040442043541C43F82400002059
:1009700010BD00002DE9F05F82460F461446204668
:10098000E21704EB5272D2102146E31704EB5373C3
:10099000DB10A4EBC3030BB1012300E000231A44D6
:1009A000624302F0FF099AF800600AF101008246F2
:1009B0000578812E05DB402D03DBFF2D01D0FF2EB6
:1009C0000DD14FF0000B06E0002007F8010B0BF1F2
:1009D000010000F0FF0BCB45F6DBBDE8F09F7F2D5B
:1009E00003DAA5F14000C5B202E0A5F14100C5B2AD
:1009F000A6F18100C6B2BE2000FB065000FB09F83C
:100A00000C2C04D0102C0CD0182C1ED113E0104844
:100A1000D0F8090000EB08014A46384604F06EFAA7
:100A200013E00B48D0F8110000EB08014A463846A5
:100A300004F064FA09E00648D0F8190000EB080158
:100A40004A46384604F05AFA00BF00BF00BFC4E768
:100A5000E0C0002070B50446002594F8210002286B
:100A600003D00420A0630125C1E02068006820F0C5
:100A70000E00216808602068006820F001002168ED
:100A800008605C492068884252D95A497839206800
:100A9000884201D1012047E05649643920688842E4
:100AA00001D1102040E0534950392068884201D1DB
:100AB000801539E04F493C392068884201D18014C3
:100AC00032E04C4928392068884202D14FF4803006
:100AD0002AE0484914392068884202D14FF4801036
:100AE00022E044492068884201D140041CE0424988
:100AF0002068884201D1012016E03F491431206866
:100B0000884201D110200FE03B49283120688842FB
:100B100001D1801508E038493C312068884201D174
:100B2000801401E04FF480303349091F086051E020
:100B3000304978392068884201D1012047E02D49A9
:100B400064392068884201D1102040E02949503999
:100B50002068884201D1801539E026493C39206857
:100B6000884201D1801432E0224928392068884225
:100B700002D14FF480302AE01E491439206888429F
:100B800002D14FF4801022E01A492068884201D136
:100B900040041CE018492068884201D1012016E079
:100BA000154914312068884201D110200FE0124904
:100BB00028312068884201D1801508E00E493C3177
:100BC0002068884201D1801401E04FF48030094947
:100BD00080394860012084F8210000BF002084F89B
:100BE000200000BF606B10B12046616B884728462B
:100BF00070BD0000800002400804024070B5044649
:100C000000F0BEF906462546681C10B1044800787D
:100C1000054400BF00F0B4F9801BA842FAD370BDB0
:100C20000C0000202DE9F847024600239C467BE19A
:100C30004FF0010808FA03F4D1F8008008EA040034
:100C4000A0427DD1DFF8F4A2D1F80480A8EB0A0914
:100C5000D0453AD014DCB8F1030F50D009DCB8F11C
:100C6000000F31D0B8F1010F1CD0B8F1020F49D1FB
:100C700020E0B8F1110F18D0B8F1120F42D11EE0E8
:100C8000B9F5881F25D006DCB9F5803F20D0B9F52D
:100C9000801F37D11AE0B9F5001F18D0B9F5041F2D
:100CA00030D117E0D1F80CC02DE0D1F80C8008F15C
:100CB000040C28E0D1F80C8008F1080C23E0D1F8EE
:100CC0000C8008F10C0C1EE000BF00BF00BF00BF8D
:100CD00000BF00BFD1F80880B8F1000F02D14FF07B
:100CE000040C0BE0D1F80880B8F1010F03D14FF0EC
:100CF000080C146102E04FF0080C546103E04FF05F
:100D0000000C00E000BF00BFFF2801D8904601E0C2
:100D100002F104084646FF2802D84FEA830803E0A0
:100D2000A3F108084FEA88084746D6F800804FF03C
:100D30000F0909FA07F928EA09080CFA07F900E08F
:100D40007AE048EA0908C6F80080D1F8048008F083
:100D50008058B8F1805F6FD100BFDFF8E481D8F828
:100D6000188048F00108DFF8D891C9F81880C84603
:100D7000D8F8188008F00108CDF8008000BF00BF47
:100D80004FEAB9384FEA930958F829504FEA837867
:100D90004FEA18794FF00F0808FA09F825EA080514
:100DA000DFF8A081424502D14FF0000824E0DFF8CF
:100DB0009881424502D14FF001081DE0DFF88C8197
:100DC000424502D14FF0020816E0DFF88481424527
:100DD00002D14FF003080FE0DFF87881424502D1DD
:100DE0004FF0040808E0DFF87081424502D14FF06F
:100DF000050801E04FF006084FEA83794FEA1979B8
:100E000008FA09F848EA0505DFF850814FEA930926
:100E100048F82950D1F8048008F48038B8F5803FAC
:100E20000BD1DFF83C81D8F8008048EA0008DFF8F1
:100E30003091C9F800800AE075E0DFF82481D8F825
:100E4000008028EA0008DFF81891C9F80080D1F87E
:100E5000048008F40038B8F5003F0ED1DFF80081B7
:100E600008F10408D8F8008048EA0008DFF8F0909C
:100E700009F10409C9F800800DE0DFF8E48008F109
:100E80000408D8F8008028EA0008DFF8D49009F1B7
:100E90000409C9F80080D1F8048008F48018B8F576
:100EA000801F0ED1DFF8B88008F10808D8F800805C
:100EB00048EA0008DFF8A89009F10809C9F800809D
:100EC0000DE0DFF89C8008F10808D8F8008028EAD7
:100ED0000008DFF88C9009F10809C9F80080D1F802
:100EE000048008F40018B8F5001F0ED1DFF87080F8
:100EF00008F10C08D8F8008048EA0008DFF8609094
:100F000009F10C09C9F800800DE0DFF8548008F100
:100F10000C08D8F8008028EA0008DFF8449009F1AE
:100F20000C09C9F800805B1CD1F8008028FA03F88E
:100F3000B8F1000F7FF47CAEBDE8F8870000111017
:100F40000010024000080140000C01400010014068
:100F50000014014000180140001C0140080001403D
:100F600000040140024693680B400BB1012000E0F1
:100F7000002070470AB1016101E00B040361704772
:100F80000148006870470000040000200348006822
:100F900003490978084401490860704704000020AB
:100FA0000C00002010B50848006840F01000064909
:100FB0000860052000F080F80F2000F007F800F02E
:100FC0002BF8002010BD00000020024070B5044640
:100FD0000E4800784FF47A71B1FBF0F00C490968C3
:100FE000B1FBF0F5284601F0B7FA08B1012070BD59
:100FF000102C07D200222146501E00F01EF8054892
:10100000046001E00120F2E70020F0E70C0000207E
:101010000000002008000020704701460846002814
:1010200009DB00F01F0301229A4043099B0003F1F2
:10103000E023C3F8002100BF70472DE9F05F804630
:101040000D461646002704F0A7F8074639462A46FB
:10105000334601F00700C0F1070ABAF1040F02D9C4
:101060004FF0040A01E0C0F1070AD14600F1040A7A
:10107000BAF1070F02D24FF0000A01E0A0F1030A13
:10108000D4464FF0010A0AFA09FAAAF1010A0AEA5B
:10109000020A0AFA0CFA4FF0010B0BFA0CFBABF147
:1010A000010B0BEA030B4AEA0B042146404604F00D
:1010B0007BF8BDE8F09F000000BF00F00702064B80
:1010C00019684FF6FF031940044B0B4343EA022112
:1010D000014B196000BF70470CED00E00000FA05FD
:1010E00070B504460D460CB9012070BD5A48006821
:1010F00000F00700A8420ED25748006820F0070011
:101100002843554908600846006800F00700A842D7
:1011100001D00120E9E7207800F0020002281DD16B
:10112000207800F00400042805D14C48406840F4C1
:10113000E0604A494860207800F00800082805D19E
:101140004648406840F4605044494860434840681D
:1011500020F0F000A168084340494860207800F082
:10116000010078B36068012806D13C48006800F4AB
:10117000003090B90120B8E76068022806D13748EE
:10118000006800F0007040B90120AEE73348006805
:1011900000F0020008B90120A7E73048406820F0BD
:1011A0000300616808432D494860FFF7E9FE0646E1
:1011B00009E0FFF7E5FE801B41F28831884202D941
:1011C000032092E707E02548406800F00C006168C2
:1011D000B0EB810FEDD12048006800F00700A84275
:1011E0000ED91D48006820F0070028431A490860FE
:1011F0000846006800F00700A84201D0012074E70B
:10120000207800F00400042807D11448406820F436
:10121000E060E168084311494860207800F0080068
:10122000082808D10D48406820F46050216940EA40
:10123000C1000A49486000F03FF808494968C1F315
:101240000311074A515CC840064908600648006817
:10125000FFF7BCFE002048E70020024000100240DB
:101260001C9D0008000000200800002001480068C4
:10127000704700000000002000B5FFF7F7FF0449A9
:101280004968C1F30221034A515CC84000BD000017
:10129000001002402C9D000800B5FFF7E7FF04494D
:1012A0004968C1F3C221034A515CC84000BD000037
:1012B000001002402C9D0008F0B585B00FF26C0CB8
:1012C0009CE8E01001A8A0E8E0101CA52D6800959E
:1012D00000210022002300240020194D696801F03C
:1012E0000C05F5B1042D02D0082D19D101E01548E7
:1012F00019E001ADC1F38346AC5D01F4803555B111
:101300000F4D6D68C5F340451DF805200D4D654333
:10131000B5FBF2F302E00C4D04FB05F3184602E0C6
:1013200000BF084800BF00BF05B0F0BD02030405C0
:10133000060708090A0B0C0D0E0F10100102000021
:101340000010024000127A0000093D00F8B5044682
:101350000CB90120F8BD207800F00100002878D0F9
:10136000F848406800F00C0004280CD0F5484068AC
:1013700000F00C00082811D1F248406800F48030D9
:10138000B0F5803F0AD1EF48006800F40030002833
:101390005FD0606800285CD10120DBE700BF606897
:1013A000B0F5803F06D1E748006840F48030E54959
:1013B000086028E0606858B9E248006820F480308E
:1013C000E04908600846006820F4802008601AE0C0
:1013D0006068B0F5A02F0BD1DA48006840F4802097
:1013E000D84908600846006840F4803008600AE088
:1013F000D448006820F48030D2490860084600686C
:1014000020F48020086000BF606888B1FFF7B8FD55
:10141000054606E0FFF7B4FD401B642801D9032010
:1014200098E7C848006800F400300028F2D010E0C7
:10143000FFF7A6FD054606E0FFF7A2FD401B642866
:1014400001D9032086E7BF48006800F40030002877
:10145000F2D1207800F00200022857D1B948406844
:1014600000F00C0050B1B748406800F00C000828AC
:1014700018D1B448406800F4803098B9B148006889
:1014800000F0020020B12069012801D0012061E7AD
:10149000AC48006820F0F800616940EAC100A94941
:1014A000086033E02069E8B10120A7490860FFF730
:1014B00067FD054606E0FFF763FD401B022801D9E2
:1014C000032047E79F48006800F002000028F2D0A0
:1014D0009C48006820F0F800616940EAC100994921
:1014E000086013E0002098490860FFF749FD0546B1
:1014F00006E0FFF745FD401B022801D9032029E73C
:101500009048006800F002000028F2D1207800F036
:10151000080008282DD1A069B8B101208B490860C6
:10152000FFF72EFD054606E0FFF72AFD401B0228C7
:1015300001D903200EE78348406A00F0020000282A
:10154000F2D0012002F0D2F813E000207F490860B9
:10155000FFF716FD054606E0FFF712FD401B0228C7
:1015600001D90320F6E67748406A00F0020000281F
:10157000F2D1207800F00400042873D100277148CC
:10158000C06900F0805070B900BF6E48C06940F07B
:1015900080506C49C8610846C06900F080500090D6
:1015A00000BF00BF01276A48006800F48070B0B92E
:1015B0006748006840F4807065490860FFF7E0FC08
:1015C000054606E0FFF7DCFC401B642801D9032038
:1015D000C0E65F48006800F480700028F2D000BFC9
:1015E000E068012806D15748006A40F001005549DB
:1015F000086227E0E06858B95248006A20F001000C
:10160000504908620846006A20F00400086219E0A8
:10161000E06805280BD14B48006A40F004004949B6
:1016200008620846006A40F0010008620AE0454886
:10163000006A20F00100434908620846006A20F071
:101640000400086200BFE068A0B1FFF799FC0546FE
:1016500009E0FFF795FC401B41F28831884202D92E
:10166000032077E622E03748006A00F002000028F5
:10167000EFD012E0FFF784FC054608E0FFF780FC9E
:10168000401B41F28831884201D9032062E62D488F
:10169000006A00F002000028F0D1012F05D129488E
:1016A000C06920F080502749C86100BFE069C8B315
:1016B0002448406800F00C00082860D0E069022847
:1016C00048D1002020490866FFF75AFC054606E08D
:1016D000FFF756FC401B022801D903203AE61948BF
:1016E000006800F000700028F2D1206AB0F5803F59
:1016F00007D11448406820F40030A168084311491C
:101700004860D4E9080108430E49496821F474117E
:1017100008430C49486001200B490866FFF730FC7C
:10172000054607E03DE0FFF72BFC401B022801D9EE
:1017300003200FE60348006800F000700028F2D094
:101740002FE00000001002400000424280044242AC
:1017500000700040002014490866FFF711FC0546A0
:1017600006E0FFF70DFC401B022801D90320F1E53C
:101770000E48006800F000700028F2D111E0E06926
:10178000012800D1E6E50948466806F48031206A60
:10179000814204D106F47011606A814201D00120B7
:1017A000D8E50020D6E500000000424200100240CB
:1017B00070B58AB004460D46032084F83400606C8E
:1017C000032820D0B5F5805F04D1A06B40F0805095
:1017D000A0631CE0B5F5006F07D1204602F0EAFDDA
:1017E0000646A06B3043A06311E03DB9204602F0ED
:1017F000ADFD0646A06B3043A06308E0A06B40F04F
:101800000060A06303E0A06B40F08050A063A06B79
:1018100038B1104821688863012084F834000AB088
:1018200070BD60680490A0680590E0680690079518
:1018300060690890A069099007A807C88DE80700AB
:10184000206804A90EC901F08AFF012084F8340041
:101850000020E4E7FF05400010B50246506E800FFF
:101860000870506EC0F383604870506EC0F3016022
:101870008870506E000CC870B2F86400000A0871DD
:1018800092F864004871906E000DC880906EC0F3AD
:10189000034008726820805AC0F3C0304872682044
:1018A000805AC0F3803088726820805AC0F340307C
:1018B000C8726820805AC0F3003008730020487353
:1018C000506C002836D16820805A8005030DD06EF8
:1018D00043EA90700861D06EC0F3C2600875D06EA4
:1018E000C0F302604875D06EC0F342508875D06E68
:1018F000C0F38240C875D06EC0F3C2300876086964
:10190000401C50650B7E506D03F007039B1C0124A7
:101910009C4060435065087A00F00F030120984016
:101920009065D2E915035B0A5843D0654FF4007304
:10193000136621E0506C012813D16820805C80067A
:10194000830AD06E43EA104008610869401C830294
:101950005365536DD3654FF400739365936D1366B0
:101960000AE02E4813689863906B40F080509063B3
:10197000012082F8340010BD6C20805AC0F3803002
:1019800001F8190F6C20805AC0F3C61048706C2003
:10199000805C00F07F008870106FC00FC870106FFF
:1019A000C0F341700871106FC0F382604871106F0E
:1019B000C0F383508871106FC0F34050C87100208D
:1019C0000872106FC0F3004048727020805AC0F354
:1019D000C03088727020805AC0F38030C872702086
:1019E000805AC0F3403008737020805AC0F3003032
:1019F00048737020805AC0F3812088737020805A09
:101A0000C0F30120C8737020805CC0F346000874E6
:101A10000120487419390020ADE70000FF0540009F
:101A20000246506C0860906C4860D06C8860106D05
:101A3000C860506D0861906D4861D06D8861106E0E
:101A4000C86100207047F8B5044600200090694640
:101A5000204602F063FC054615B1A06B2843A06345
:101A60000098C0F343263046F8BD10B504460CB9C3
:101A7000012010BD94F8340020B9002020772046C2
:101A800000F054F8032084F83400204600F00CF8ED
:101A900008B10120EDE70020A0632063012084F855
:101AA00034000020E5E7000070B58AB0044600204D
:101AB000049005900690079008907620099007A85A
:101AC00007C88DE80700206804A90EC901F047FE89
:101AD000064616B101200AB070BD00201249086008
:101AE000206801F056FE01200F49A039C1F8A0007E
:101AF000204602F083FB05463DB1012084F8340006
:101B0000A06B2843A0630120E5E7204602F0F4FA29
:101B100005463DB1012084F83400A06B2843A06342
:101B20000120D8E70020D6E7A000304210B586B0EB
:101B3000044600BF2448406940F48060224948615F
:101B40000846406900F48060019000BF00BF00BFFC
:101B50000846406940F0020048610846406900F0CC
:101B60000200019000BF00BF00BF0846806940F03E
:101B7000100088610846806900F01000019000BFE5
:101B800000BF00BF0846806940F020008861084619
:101B9000806900F02000019000BF00BF4FF4F850B2
:101BA000029002200390012004900320059002A9D6
:101BB0000648FFF737F80420029002A90448FFF70F
:101BC00031F806B010BD00000010024000100140C6
:101BD000001401402DE9F04F87B004468A46904634
:101BE0001E46DDF840900025FFF7CAF90090AB468D
:101BF0005746BAF1000F07D1A06B40F00060A06318
:101C0000012007B0BDE8F08F94F8340001287DD1A1
:101C10000020A06308EB0601E06D814205D9A06BAE
:101C200040F00070A0630120EBE7032084F834004B
:101C300000202168C862606C012801D04FEA482862
:101C40004FF40071206801F005FE05464DB1704863
:101C500021688863A06B2843A063012084F83400C6
:101C6000CFE74FF0FF300190700202909020039078
:101C700002200490002005900120069001A9206810
:101C800001F048FD012E07D902202063414620685B
:101C900001F048FE054606E0012020634146206829
:101CA00001F05CFE05464DB1594821688863A06B80
:101CB0002843A063012084F83400A2E729E02068CB
:101CC000406B00F4004068B14FF0000B06E0206864
:101CD00001F068FD47F82B000BF1010BBBF1080F79
:101CE000F5D32037B9F1000F05D0FFF749F9009976
:101CF000401A48450DD3464821688863A06B40F0E0
:101D00000040A063012084F8340000E079E0032063
:101D100077E72068406B40F22A3108400028CED097
:101D20002068406B00F4807098B1012E11D9606C6E
:101D300003280ED0206801F0D1FE05464DB134488D
:101D400021688863A06B2843A063012084F83400D5
:101D500057E72068406B00F0080050B12C4821681C
:101D60008863A06B40F00800A063012084F8340071
:101D700047E72068406B00F0020050B1244821681A
:101D80008863A06B40F00200A063012084F8340057
:101D900037E72068406B00F0200050B11C482168F4
:101DA0008863A06B40F02000A063012084F8340019
:101DB00027E718E0206801F0F5FC38603F1DB9F115
:101DC000000F05D0FFF7DCF80099401A48450AD308
:101DD0000F4821688863A06B40F00040A063012099
:101DE00084F834000DE72068406B00F400100028F0
:101DF000E0D1074821688863012084F8340000207E
:101E0000FFE6A06B40F00050A0630120F9E600005F
:101E1000FF0540002DE9F04F87B00446884617467D
:101E20001E46DDF840B00025FFF7AAF80090A9464D
:101E3000C246B8F1000F07D1A06B40F00060A0636C
:101E4000012007B0BDE8F08F94F8340001287BD161
:101E50000020A063B919E06D814205D9A06B40F064
:101E60000070A0630120ECE7032084F83400002018
:101E70002168C862606C012800D07F024FF40071B5
:101E8000206801F0E7FC05464DB15F482168886392
:101E9000A06B2843A063012084F83400D1E7012E11
:101EA00007D9202020633946206801F035FE054619
:101EB00006E0102020633946206801F049FE0546FF
:101EC0004DB1514821688863A06B2843A06301206D
:101ED00084F83400B5E74FF0FF30019070020290B3
:101EE000902003900020049005900120069001A905
:101EF000206801F00FFC28E02068406B00F480406F
:101F000070B14FF0000906E00AEB8901206801F08A
:101F100061FC09F10109B9F1080FF5D30AF1200AB2
:101F2000BBF1000F05D0FFF72BF80099401A584578
:101F30000BD3354821688863A06B2843A063012038
:101F400084F8340003207CE757E02068406B40F2BF
:101F50001A3108400028CFD02068406B00F4807010
:101F600098B1012E11D9606C03280ED0206801F0C1
:101F7000B5FD05464DB1244821688863A06B284310
:101F8000A063012084F834005BE72068406B00F018
:101F9000080050B11C4821688863A06B40F008001D
:101FA000A063012084F834004BE72068406B00F008
:101FB000020050B1144821688863A06B40F0020011
:101FC000A063012084F834003BE72068406B00F0F8
:101FD000100050B10C4821688863A06B40F01000DD
:101FE000A063012084F834002BE707482168886348
:101FF000012084F83400002023E7A06B40F000505B
:10200000A06301201DE70000FF05400010B5044655
:102010000CB9012010BD606A00B900BFA06AB0F51C
:10202000005F00D100BF94F8510028B9002084F867
:102030005000204600F038F8022084F85100206853
:10204000006820F0400021680860D4E901010843DD
:10205000E16808432169084361690843218B01F461
:1020600000710843E1690843216A0843A16A0843F3
:10207000216808600421A06901EA104021684860D5
:10208000A06AB0F5005F02D12168E06A08612068AB
:10209000C06920F400602168C861002060650120EB
:1020A00084F851000020B5E710B586B0044600BFA3
:1020B0001348806940F0040011498861084680692E
:1020C00000F00400019000BF00BF00BF0846806917
:1020D00040F4805088610846806900F48050019087
:1020E00000BF00BFE0200290022003900120049076
:1020F0000320059002A90348FEF794FD06B010BD29
:1021000000100240000801402DE9FF5F04468846A8
:1021100091461D460E9E012002900020019000BFB6
:1021200094F85000012803D1022004B0BDE8F09FCC
:10213000012084F8500000BFFEF722FF074694F804
:1021400051B060680390AA46BBF1010F0BD0039811
:10215000B0F5827F04D1A06810B9BBF1040F02D0A2
:10216000022001903DE1B8F1000F03D0B9F1000F5A
:1021700000D015B90120019033E194F851000428F2
:1021800002D0052084F8510000206065C4F8389022
:10219000E587A587C4F83080E586A586206460645D
:1021A000A06AB0F5005F0DD100BF2068006820F480
:1021B0000050216808602068006840F400502168E1
:1021C000086000BF2068006800F04000402805D08B
:1021D0002068006840F0400021680860E068B0F5C1
:1021E000006F56D1606810B1BAF1010F09D1206BB0
:1021F00000882168C860206B801C2063E08E401E30
:10220000E0863FE02068806800F0020002281CD1D0
:10221000E08ED0B10298012817D1206B0088216888
:10222000C860206B801C2063E08E401EE08600208A
:102230000290E08E48B9A06AB0F5005F05D1206831
:10224000006840F48050216808602068806800F0D1
:10225000010068B1E08F58B12068C068A16B0880A8
:10226000A06B801CA063E08F401EE08701200290DD
:10227000FEF786FEC01BB04204D3701C10B10320D1
:102280000190AEE0E08E0028BCD1E08F0028B9D1EB
:1022900056E0606810B1BAF1010F09D1206B0078E7
:1022A00021680873206B401C2063E08E401EE0868E
:1022B00040E02068806800F0020002281CD1E08E17
:1022C000D0B10298012817D1206B007821680873DB
:1022D000206B401C2063E08E401EE08600200290B0
:1022E000E08E48B9A06AB0F5005F05D120680068AB
:1022F00040F48050216808602068806800F0010088
:1023000068B1E08F58B12068C068A16B0870A06BFD
:10231000401CA063E08F401EE08701200290FEF782
:102320002FFEC01BB04201D3701C00B916B90320A8
:10233000019056E0E08E0028BBD1E08F0028B8D194
:10234000A06AB0F5005F10D1334601221146204645
:10235000009702F004F930B1606D40F00200606552
:10236000032001903DE02068C06820688068C0F3C9
:102370000010E8B1204602F0EFF8012814D1606D9A
:1023800040F00200606500BF2068006820F4005043
:10239000216808602068006840F4005021680860E7
:1023A00000BF0120019003E04FF6EF7021688860C4
:1023B0003A463146204602F0BBF820B10120019098
:1023C000202060650DE0A06850B900BF002000909B
:1023D0002068C068009020688068009000BF00BF3F
:1023E00000BF012084F8510000BF002084F8500095
:1023F00000BF019899E670B504460E4615460CB923
:10240000012070BD94F8410028B9002084F84000F4
:10241000204600F01FF804F108012068FEF750FA8A
:102420003146A2682068FEF783FA2946236BD4E977
:102430000102FEF723FAA168206850F8210040F05D
:102440000100A268216841F82200012084F84100BF
:102450000020D6E710B586B0044600BF3148806939
:1024600040F020002F4988610846806900F0200074
:10247000019000BF00BF00BF0846806940F04000E7
:1024800088610846806900F04000019000BF00BFED
:1024900000BF0846806940F0800088610846806976
:1024A00000F08000019000BF00BF00BF08468069B7
:1024B00040F4807088610846806900F48070019063
:1024C00000BF00BF00BF0846406940F4807048610B
:1024D0000846406900F48070019000BF00BF0120F1
:1024E00003900490032005908814029002A90E48DE
:1024F000FEF798FB0220029002A90C48FEF792FB1F
:10250000022003904CF6B370029002A90648FEF731
:1025100089FB4FF68070029002A90448FEF782FB07
:1025200006B010BD00100240001401400018014028
:10253000042808D14FF0E021096941F004014FF06F
:10254000E022116107E04FF0E021096921F0040168
:102550004FF0E0221161704770B504462546681EB1
:10256000B0F1807F01D301200FE0681E4FF0E02121
:1025700048610F214FF0FF3002F016FE00204FF0AF
:10258000E021886107200861002070BD10B5044675
:102590000CB9012010BD94F83D0028B9002084F842
:1025A0003C00204600F00CF8022084F83D00211D7C
:1025B000206802F00DFA012084F83D000020E9E7D0
:1025C000704701460868C06840F001000B68D86099
:1025D0000868806800F00702062A05D008680068CD
:1025E00040F001000B6818600020704770470146FA
:1025F0000022002391F8392091F83A3042EA030092
:10260000704700002DE9F0470446206805682068FF
:10261000C668206847694FF00008C14605F00F08FA
:10262000B8F1000F0AD105F0200038B106F0200003
:1026300020B1204602F072FABDE8F087B8F1000F31
:102640006DD007F0010018B906F49070002866D02C
:1026500005F0010030B106F4807018B1E06B40F075
:102660000100E06305F0040030B107F0010018B18B
:10267000E06B40F00200E06305F0020030B107F0CB
:10268000010018B1E06B40F00400E06305F00800C1
:1026900030B107F0010018B1E06B40F00800E063D2
:1026A000E06B68B305F0200028B106F0200010B1FF
:1026B000204602F033FA20684069C0F38019E06BCD
:1026C00000F0080010B9B9F1000F22D0204602F046
:1026D00005FA2068406900F04000B0B12068406908
:1026E00020F0400021684861606B50B11748616B71
:1026F0004863606BFEF7AEF910B1606B416B8847C1
:102700000CE02046FFF772FF08E02046FFF76EFF5F
:1027100004E02046FFF76AFF0020E0638CE705F045
:10272000800030B106F0800018B1204602F01AFB9C
:1027300082E705F0400030B106F0400018B12046B5
:1027400002F0DCF978E700BF76E70000C94A00082C
:1027500010B504460CB9012010BDA06900B100E01D
:1027600000BF94F8390028B9002084F838002046CA
:1027700000F028F8242084F839002068C06820F48C
:1027800000502168C860204602F01CFA20680069E9
:1027900020F49040216808612068406920F02A00F8
:1027A000216848612068C06840F400502168C86012
:1027B0000020E063202084F8390084F83A000020EB
:1027C000CAE7000010B586B0044625492068884253
:1027D00044D100BF2348806940F00400214988614A
:1027E0000846806900F00400019000BF00BF00BFF0
:1027F0000846806940F4804088610846806900F49A
:102800008040019000BF00BF00BF0846806940F0D3
:10281000010088610846806900F00100019000BF56
:1028200000BF48150290022003900120049003206D
:10283000059002A90C48FEF7F5F94FF4806002906C
:102840000020039002A90848FEF7ECF92520FEF7C6
:10285000E4FB032211462520FEF7EFFB06B010BD76
:1028600000380140001002400008014010B5034646
:1028700093F83A0020282FD101B10AB9012010BDE8
:1028800000BF93F83800012801D10220F7E70120AA
:1028900083F8380000BF99629A85DA850020D863F2
:1028A000222083F83A0000BF002083F8380000BFE0
:1028B0001868C06840F480701C68E060186840695F
:1028C00040F001001C6860611868C06840F020009A
:1028D0001C68E0600020D2E70220D0E71D4A0168B2
:1028E000914236D11C49098801F4004189BB1A493B
:1028F000098801F4804171B1184909780A2903D087
:102900000021154A118024E01349098841F400414F
:10291000114A11801DE0114909780D2906D10E498F
:10292000098841F480410C4A118012E00B49097872
:10293000094A1288C2F30D02094B995406490988C5
:10294000491C054A118011460988C72901DD00216B
:102950001180704700380140180000201A00002044
:102960009C010020704700BFFEE7000010B54FF447
:102970000030064908600120FEF740F902200349B3
:1029800008600120FEF73AF910BD00001018014060
:1029900072B6704762B6704700B585B000BF1A487E
:1029A000806940F00400184988610846806900F099
:1029B0000400009000BF00BF00BF0846806940F0DF
:1029C000400088610846806900F04000009000BF28
:1029D00000BF0120019000200290022003900320FC
:1029E000049001A90948FEF71DF918200190002064
:1029F0000290012003900320049001A90448FEF7EF
:102A000011F905B000BD00000010024000080140AF
:102A10000018014010B50446012C01D1234908706B
:102A20002248007858B310212148FEF79BFA50B194
:102A300008211F48FEF796FA28B101211D48FEF72C
:102A400091FA01281BD10A2002F020FF002017492B
:102A5000087010211648FEF785FA08B9012010BD4C
:102A600008211348FEF77EFA08B90220F7E7012192
:102A70001048FEF777FA012815D10320EFE710215F
:102A80000B48FEF76FFA01280DD108210848FEF720
:102A900069FA012807D101210648FEF763FA10B947
:102AA0000120024908700020D9E70000240000201E
:102AB000001801400008014070B50446002609488E
:102AC0000588408845430021084600F0FFFB00F0E0
:102AD000B9FD00BF02E004480480761CAE42FAD380
:102AE00070BD0000EC0200200000026010B504463A
:102AF0000F48847164B9F0200D4908804FF4A0702C
:102B000048802C2008812A2048812B2088810BE0D6
:102B10004FF4A07006490880F02048802C200881DE
:102B20002A2048812B208881032000F0E1FA10BD83
:102B3000EC02002030B504460D463848808845F246
:102B40001051884220D13549488900F06FFD20128C
:102B500000F060FD31494989491C88B200F066FDEA
:102B6000E0B200F057FD2D49888900F05FFD281282
:102B700000F050FD29498989491C88B200F056FDB2
:102B8000E8B200F047FD42E02448808841F6631136
:102B9000884228D12148807920B920480088401EE9
:102BA000001B84B21D49488900F040FD201200F04E
:102BB00031FDE0B200F02EFD201200F02BFDE0B25E
:102BC00000F028FD1549888900F030FD281200F03A
:102BD00021FDE8B200F01EFD281200F01BFDE8B256
:102BE00000F018FD13E00D49488900F01FFD201288
:102BF00000F010FDE0B200F00DFD0849888900F0FA
:102C000015FD281200F006FDE8B200F003FD0348B0
:102C1000008903490880881C028030BDEC02002036
:102C2000FEFF01602DE9F04F05460E461746984617
:102C3000DDF824A04FF0000B781B401C1FFA80FB2E
:102C4000344613E02146284600F040FB00F0FAFC31
:102C50004FF0000906E00748A0F800A009F10100C4
:102C60001FFA80F9D945F6DB601C84B24445E9DDE2
:102C7000BDE8F08F0000026000B58DB000BFFE48D7
:102C8000806940F00800FC4988610846806900F0CE
:102C90000800019000BF00BF8814099001200A902D
:102CA0000B9003200C9009A9F448FDF7BBFF4FF0EF
:102CB0002040F3490860F348486000208860002104
:102CC000EF48C1600821016110214161002181614B
:102CD000C16141624FF4805181620021C162016390
:102CE000416381630020029003900820049000203B
:102CF0000590069007904FF08050089002AA02A914
:102D0000DF48FFF778FB322002F0C0FDFFF72EFE10
:102D1000D32000F08BFC00F0E1F9DB49888000F063
:102D2000DDF9D949888000F0D9F9D749888008466B
:102D300080884FF6FF7101EA0020D349888000F0B7
:102D4000CDF9D14989880843CF49888008468088D1
:102D500049F2413188427DD0042000F067FC00F048
:102D6000BDF9C949888000F0B9F9C749888000F0E9
:102D7000B5F9C5498880084680884FF6FF7101EA99
:102D80000020C149888000F0A9F9BF49898808431B
:102D9000BD4988800846808848F25251884203D154
:102DA00047F28970B8498880B748808847F28971AE
:102DB0008842D0D0D42000F039FC00F08FF9B2491D
:102DC000888000F08BF9B049888000F087F9AE491F
:102DD0008880084680884FF6FF7101EA0020AA49E2
:102DE000888000F07BF9A84989880843A649888033
:102DF0000846808845F21031884262D055214FF450
:102E0000704000F029FCAA214FF2010000F024FCE0
:102E100052214FF2020000F01FFC08214FF2030084
:102E200000F01AFC01214FF2040000F015FC4FF4F1
:102E3000454000F0FBFB00F051F9934988800846BB
:102E400080884FF6FF7101EA00208F4988804CF29C
:102E5000015000E035E000F0E9FB00F03FF98A495D
:102E60008988084388498880322002F00FFD86480F
:102E7000808845F21051884223D0A12000F0D6FB73
:102E800000F02CF98049888000F028F97E4988807C
:102E9000084680884FF6FF7101EA00207A49888051
:102EA00000F01CF9784989880843774988800846EA
:102EB000808845F26171884203D141F663107249FE
:102EC00088807148818871A0FDF748FA6E48808833
:102ED00047F2897188427CD1112000F0A7FB78204D
:102EE00002F0D4FC362000F0A1FB002000F092FBA1
:102EF0003A2000F09BFB052000F08CFBB22000F094
:102F000095FB0C2000F086FB0C2000F083FB0020DA
:102F100000F080FB332000F07DFB332000F07AFBD3
:102F2000B72000F083FB352000F074FBBB2000F0DD
:102F30007DFB322000F06EFBC02000F077FB0C2000
:102F400000F068FBC22000F071FB012000F062FB82
:102F5000C32000F06BFB102000F05CFBC42000F0ED
:102F600065FB202000F056FBC62000F05FFB0F2021
:102F700000F050FBD02000F059FBA42000F04AFBE9
:102F8000A12000F047FBE02000F050FBD02000F033
:102F900041FB002000F03EFB022000F03BFB07203D
:102FA00000F038FB0A2000F035FB282000F032FB4F
:102FB000322000F02FFB442000F02CFB422000F0D8
:102FC00029FB062000F026FB0E2000F023FB122038
:102FD00000E068E000F01EFB142000F01BFB17204F
:102FE00000F018FBE12000F021FBD02000F012FBE4
:102FF000002000F00FFB022000F00CFB072000F087
:1030000009FB0A2000F006FB282000F003FB31201A
:1030100000F000FB542000F0FDFA472000F0FAFA1F
:103020000E2000F0F7FA1C2000F0F4FA172000F050
:10303000F1FA1B2000F0EEFA1E2000F0EBFA2A2035
:1030400000F0F4FA002000F0E5FA002000F0E2FAC7
:10305000002000F0DFFAEF2000F0DCFA2B2000F077
:10306000E5FA002000F0D6FA002000F0D3FA0120A3
:1030700000F0D0FA3F2011E000100240001401409F
:10308000A4020020040100A0EC020020204C4344D4
:103090002049443A25780D0A0000000000F0BAFAF1
:1030A000292000F0C3FA0020FFF720FD002004498A
:1030B00008604FF6FF70FFF7FFFC0DB000BD000089
:1030C000B081224210B50246012000E050430B1EA1
:1030D000A1F10104E1B2F9D110BD000008B5034827
:1030E00000880090BDF8000008BD000000000260EC
:1030F000F0B5064600240027082E1CD2DFE806F0B3
:103100000406090C0F12151800BF14E044F08004E7
:1031100011E044F040040EE044F0C0040BE044F041
:10312000200408E044F0600405E044F0A00402E05C
:1031300044F0E00400BF00BF6348808845F21051AE
:10314000884202D14FF4585700E036275E48808805
:1031500049F24131884205D05B48808847F2897145
:10316000884201D144F008042146384600F074FA40
:103170005548808841F6631188421DD004F0200034
:1031800068B15148008850494988884214DA4E484D
:10319000058840884C490880084645800CE04A482C
:1031A000008849494988884206DD474805884088A3
:1031B00045490880084645804348808845F21051BB
:1031C000884252D14049488900F030FA002000F08E
:1031D00021FA3D494989491C88B200F027FA0020AC
:1031E00000F018FA38494989891C88B200F01EFAA3
:1031F00035490988491EC1F30F2000F00BFA324906
:103200004989C91C88B200F011FA2F490978491E72
:10321000C8B200F0FFF92C49888900F007FA0020B5
:1032200000F0F8F928498989491C88B200F0FEF9B4
:10323000002000F0EFF924498989891C88B200F048
:10324000F5F921494988491EC1F30F2000F0E2F940
:103250001D498989C91C88B200F0E8F91A498978A2
:10326000491EC8B200F0D6F92DE01749488900F090
:10327000DDF9002000F0CEF9002000F0CBF9124972
:103280000988491EC1F30F2000F0C4F90E490978DE
:10329000491EC8B200F0BEF90B49888900F0C6F992
:1032A000002000F0B7F9002000F0B4F90649498881
:1032B000491EC1F30F2000F0ADF903498978491E7A
:1032C000C8B200F0A7F9F0BDEC02002010B502462C
:1032D0000C464548808841F66311884247D14248F0
:1032E0008079A8B940480088401E801A82B23E49C1
:1032F000488900F09BF9002000F08CF9002000F0D4
:1033000089F9101200F086F9D0B200F083F916E0C6
:103310003549488900F08AF9101200F07BF9D0B2E3
:1033200000F078F930490988491EC1F30F2000F0F8
:1033300071F92D490978491EC8B200F06BF92A4984
:10334000888900F073F9201200F064F9E0B200F00F
:1033500061F925494988491EC1F30F2000F05AF947
:1033600021498978491EC8B200F054F93AE01E4854
:10337000808845F21051884220D11B49488900F0CD
:1033800055F9101200F046F917494989491C88B2CD
:1033900000F04CF9D0B200F03DF91349888900F0F3
:1033A00045F9201200F036F90F498989491C88B285
:1033B00000F03CF9E0B200F02DF913E00A49488929
:1033C00000F034F9101200F025F9D0B200F022F923
:1033D0000549888900F02AF9201200F01BF9E0B2B3
:1033E00000F018F910BD0000EC0200202DE9F84FA4
:1033F00080460E4617461C46B3462046E31704EBAC
:103400005373DB1021464FEAE47C04EB5C7C4FEA0B
:10341000EC0CA4EBCC0CBCF1000F02D04FF0010C73
:1034200001E04FF0000C6344224604EBD27C4FEAEB
:103430006C0C03FB0CF3DBB20093A7F12000C7B2C6
:10344000002558E00C2C07D107EB47002C4901EB75
:10345000800010F8059013E0102C05D1294800EBEE
:10346000071010F805900BE0182C07D107EBC700E8
:10347000254901EB800010F8059001E0BDE8F88FC8
:103480004FF0000A31E009F0800038B11F48008891
:1034900082B231464046FFF74DFB08E00A9830B94A
:1034A0001B48008882B231464046FFF743FB4FEA93
:1034B00049604FEA1069701C86B216484088B042D5
:1034C00000DCDBE7A6EB0B00A0420AD15E4608F168
:1034D00001001FFA80F80F480088404500DCCDE766
:1034E00006E00AF1010000F0FF0ABAF1080FCADB9A
:1034F00000BF681CC5B200988542A3DB00BFBDE7D2
:10350000349D0008A8A1000898A700081C0000200E
:1035100020000020EC0200202DE9FF4F81B007467B
:1035200091461E460E9D4FF0000A002439E0301BE4
:10353000401EC1B20A20FFF7C5FDB9FBF0F00A2119
:10354000B0FBF1F201FB1208BAF1000F16D1701EA8
:10355000A04213DDB8F1000F0ED10020AB4605EB01
:10356000DB71491001FB0471009088B22B462022C8
:103570000299FFF73BFF12E04FF0010A0020AB4633
:1035800005EBDB71491001FB0471009088B208F172
:103590003001CAB22B460299FFF728FF00BF601C1A
:1035A000C4B2B442C3DB05B0BDE8F08F2DE9F847E3
:1035B00004460D4690469946DDE9096704F0FF0A86
:1035C00008EB04001FFA80F809EB05001FFA80F9E8
:1035D00016E0444502DB5446A81985B24D4500DB90
:1035E00014E0002000903A78334629462046FFF741
:1035F000FDFE304606EBD07104EB61018CB27F1CFE
:1036000038787E2802DC38782028E2DA00BFBDE86E
:10361000F887000001B5BDF800000090BDF800007B
:103620000149088008BD00000000026001B5BDF836
:1036300000000090BDF800000149088008BD0000AE
:10364000FEFF0160024800890249088070470000BF
:10365000EC020020FEFF0160024A1080921C1180E3
:1036600070470000FEFF016000B585B000BF1B4839
:10367000806940F00800194988610846806900F0B7
:103680000800009000BF00BF00BF0846806940F0FE
:10369000400088610846806900F04000009000BF4B
:1036A00000BF20200190012002900390032004908D
:1036B00001A90B48FDF7B6FA0120019001A90848BD
:1036C000FDF7B0FA012220210548FDF753FC012245
:1036D00011460348FDF74EFC05B000BD0010024046
:1036E000000C014000BFFEE77047704708B508496D
:1036F0000968C9084FF47A72B1FBF2F141430091B5
:1037000000BF00BF00994A1E00920029F9D108BDF0
:103710000000002010B50246002308685062486887
:103720009062D1E9020420430C6920434C69204394
:103730000343D06A20F0F7001843D062002010BD88
:1037400001460869C0B270470146086800F00300EE
:103750007047024602F114004318186870470FB40E
:1037600010B504460021DDE903021043059A104319
:10377000069A1043079A1043089A10430143606861
:1037800047F6FF62904308436060002010BC5DF87C
:1037900014FB10B50446032020600220FDF72EFA2A
:1037A000002010BD0146D1F88000704710B50246D8
:1037B000002308689060D1E901042043CC682043CD
:1037C0000C6920430343D0686FF30B001843D060AB
:1037D000002010BD02460868C2F880000020704733
:1037E00070B586B005460C46019437200290402003
:1037F0000390002004904FF48060059001A92846B2
:10380000FFF7D4FF41F288323721284600F0DCF977
:103810000646304606B070BD70B586B005460C460B
:103820000B48204301902920029040200390002063
:1038300004904FF48060059001A92846FFF7B6FF79
:10384000284600F0C9FA0646304606B070BD0000B2
:103850000000108070B586B005460C46019410201B
:10386000029040200390002004904FF48060059067
:1038700001A92846FFF79AFF41F288321021284615
:1038800000F0A2F90646304606B070BD70B586B0AD
:1038900005460C460194062002904020039000202B
:1038A00004904FF48060059001A92846FFF77EFF41
:1038B00041F288320621284600F086F90646304655
:1038C00006B070BD30B585B0044600200090019070
:1038D000029003904FF48060049069462046FFF701
:1038E00065FF204600F050F90546284605B030BD7A
:1038F00030B585B004464FF4D57000900820019093
:1039000040200290002003904FF4806004906946AC
:103910002046FFF74BFF204600F0E6FA0546284612
:1039200005B030BD70B586B005460C460194122036
:10393000029040200390002004904FF48060059096
:1039400001A92846FFF732FF41F2883212212846AA
:1039500000F03AF90646304606B070BD70B586B044
:1039600005460C460194112002904020039000204F
:1039700004904FF48060059001A92846FFF716FFD8
:1039800041F288321121284600F01EF906463046E1
:1039900006B070BDF0B585B0064614461D460094CD
:1039A0000720019040200290002003904FF4806097
:1039B000049069463046FFF7F9FE41F2883207214C
:1039C000304600F001F90746384605B0F0BD30B585
:1039D00085B004460020009002200190C020029093
:1039E000002003904FF48060049069462046FFF762
:1039F000DDFE204600F0BEF90546284605B030BD84
:103A000070B586B005460C46019409200290C0208E
:103A10000390002004904FF48060059001A928468F
:103A2000FFF7C4FE284600F0A5F90646304606B06A
:103A300070BD30B585B00446002000903320019061
:103A400040200290002003904FF48060049069466B
:103A50002046FFF7ABFE41F288323321204600F0CA
:103A6000B3F80546284605B030BD70B586B00546AA
:103A70000C4601940D2002904020039000200490F9
:103A80004FF48060059001A92846FFF78FFE41F2B0
:103A900088320D21284600F097F80646304606B0D9
:103AA00070BD70B586B005460C460020019003201D
:103AB000029040200390002004904FF48060059015
:103AC00001A92846FFF772FE22460321284600F08E
:103AD000AFF90646304606B070BD000030B585B07F
:103AE0000446002000900C2001904020029000200D
:103AF00003904FF48060049069462046FFF756FE1D
:103B0000044A0C21204600F05FF80546284605B01F
:103B100030BD000000E1F50570B586B005460C46E5
:103B200001941920029040200390002004904FF44B
:103B30008060059001A92846FFF738FE41F28832DF
:103B40001921284600F040F80646304606B070BD00
:103B500070B586B005460C460194182002904020AE
:103B60000390002004904FF48060059001A928463E
:103B7000FFF71CFE41F288321821284600F024F895
:103B80000646304606B070BD01460E480068C008C3
:103B90004FF47A73B0FBF3F041F2883300FB03F289
:103BA00000BF101EA2F1010202D14FF00040704789
:103BB000486B00F080000028F3D0C5208863002007
:103BC000F5E70000000000202DE9F04305460F4610
:103BD000904666480068C0084FF47A71B0FBF1F077
:103BE00000FB08F900BFB9F10000A9F1010903D1F8
:103BF0004FF00040BDE8F0836E6B06F045000028F2
:103C0000F1D006F400600028EDD1686B00F00400EC
:103C100010B10420A863EDE7686B00F0010010B15B
:103C20000120A863E6E7C520A8632846FFF788FDC2
:103C3000B84201D00120DDE700212846FFF789FDC9
:103C400004464B48204008B90020D3E704F0004068
:103C5000B0F1004F02D14FF00070CBE704F080408C
:103C6000B0F1804F01D14020C4E704F00050B0F122
:103C7000005F01D18020BDE704F08050B0F1805F8B
:103C800002D14FF48070B5E704F00060B0F1006F2E
:103C900002D14FF40070ADE704F08060B0F1806FA6
:103CA00002D14FF48060A5E704F08070B0F1807F0E
:103CB00002D14FF400609DE704F40000B0F5000F5E
:103CC00002D14FF4805095E704F48000B0F5800FE6
:103CD00002D14FF400508DE704F40010B0F5001F3E
:103CE00002D14FF4804085E704F48010B0F5801FC6
:103CF00002D14FF400407DE704F48020B0F5802F1E
:103D000002D14FF4003075E704F40030B0F5003F05
:103D100002D14FF480206DE704F48030B0F5803F8D
:103D200002D14FF4002065E704F40040B0F5004FE5
:103D300002D14FF480105DE704F48040B0F5804F6D
:103D400002D14FF4001055E704F40050B0F5005FC5
:103D500002D14FF480004DE704F00800082801D19B
:103D6000000547E74FF4803044E7000000000020E2
:103D700008E0FFFD10B5014616480068C0084FF482
:103D80007A74B0FBF4F041F2883400FB04F300BF16
:103D9000181EA3F1010302D14FF0004010BD4A6B81
:103DA00002F045000028F3D002F400600028EFD1B3
:103DB000486B00F0040010B104208863EEE7486B04
:103DC00000F0010010B101208863E7E7C520886397
:103DD0000020E3E70000002010B50146134800680A
:103DE000C0084FF47A74B0FBF4F041F2883400FB61
:103DF00004F300BF181EA3F1010302D14FF00040ED
:103E000010BD4A6B02F045000028F3D002F40060B8
:103E10000028EFD1486B00F0040010B10420886343
:103E2000EEE7C52088630020EAE7000000000020DC
:103E30002DE9F04304460F4690462A480068C00822
:103E40004FF47A71B0FBF1F041F2883100FB01F9D7
:103E500000BFB9F10000A9F1010903D14FF0004002
:103E6000BDE8F083666B06F045000028F1D006F44B
:103E700000600028EDD1606B00F0040010B1042058
:103E8000A063EDE7606B00F0010010B10120A063BA
:103E9000E6E72046FFF754FCB84201D00120DFE7F7
:103EA000C520A06300212046FFF753FC054605F41A
:103EB000604020B9280CA8F800000020D0E705F4E5
:103EC0008040B0F5804F02D14FF40050C8E705F4B0
:103ED0000040B0F5004F02D14FF48050C0E74FF4DE
:103EE0008030BDE70000002010B50146184800688A
:103EF000C0084FF47A74B0FBF4F041F2883400FB50
:103F000004F300BF181EA3F1010302D14FF00040DB
:103F100010BD4A6B02F045000028F3D002F40060A7
:103F20000028EFD1486B00F0040010B10420886332
:103F3000EEE7486B00F0010010B101208863E7E76D
:103F4000486B00F0400008B1402088630020DFE7A4
:103F5000000000202DE9F04389B004460F46FDF72C
:103F60000FF881464FF000080020019002903E4675
:103F700008212068FFF76EFC05461DB1284609B0F0
:103F8000BDE8F0835022125B11042068FFF728FC83
:103F900005460DB12846F2E74FF0FF3003900820A8
:103FA0000490302005900220069000200790012008
:103FB000089003A92068FFF7ADFB2068FFF739FDE3
:103FC00005460DB12846DAE715E02068406B00F49D
:103FD000001038B12068FFF7E5FB01A941F828007F
:103FE00008F10108FCF7CCFFA0EB0900401C10B958
:103FF0004FF00040C3E72068406B40F22A41084080
:104000000028E2D02068406B00F0080018B10820BA
:1040100021688863B3E72068406B00F0020018B1A4
:10402000022021688863AAE72068406B00F0200026
:1040300018B1202021688863A1E740F23A50216836
:10404000886302980006029901F47F4140EA01204A
:10405000029901F47F0140EA1120029940EA1160BF
:104060003060361D01980006019901F47F4140EA55
:104070000120019901F47F0140EA1120019940EAF1
:104080001160306000207AE710B50448FDF7DBFCD2
:10409000042801D0012010BD0020FCE744030020CB
:1040A00010B51248124908600020486000211048ED
:1040B0008160C16001614FF48041416104218161EF
:1040C000FDF7D3FC04460CB1012010BD0949084896
:1040D000FDF7A6FC4FF400610548FDF769FB0446B7
:1040E0000CB10220F1E70020EFE700000080014062
:1040F00044030020C803002030B58FB004460120DF
:1041000003902068FFF720FB18B94FF080600FB0D4
:1041100030BD606C03281BD02068FFF758FC0546B3
:104120000DB12846F3E700212068FFF712FB606716
:1041300004212068FFF70DFBA06708212068FFF726
:1041400008FBE0670C212068FFF703FB8021085182
:10415000606C032807D003A92068FFF7A2FC05467E
:104160000DB12846D3E7606C032820D0BDF80C10B1
:1041700021655022125B11042068FFF741FC0546BF
:104180000DB12846C3E700212068FFF7E2FA606618
:1041900004212068FFF7DDFAA06608212068FFF7F8
:1041A000D8FAE0660C212068FFF7D3FA20670421D3
:1041B0002068FFF7CEFA010DE16404A92046FDF75F
:1041C0004BFB10B14FF08050A1E75020005B010481
:1041D0000A4600232068FFF7DDFB05460DB128469F
:1041E00095E7D4E90412A069CDE90012029094E8A1
:1041F0000F00FFF7B4FA002089E70000F8B5044685
:1042000000200090002600272068FFF75BFB054692
:104210000DB12846F8BD2068FFF76AFB054645B199
:104220000021A1642068FFF74DFB05461DB128461B
:10423000F0E70121A164A06C012808D100212068C9
:10424000FFF7CEFA054615B14FF08050E2E71DE0CA
:1042500000212068FFF7C4FA05460DB12846D9E7CA
:1042600018492068FFF7D8FA054615B14FF080507D
:10427000D0E700212068FFF76CFA0646012080EAAB
:10428000D67080F001070098401C00904FF6FF7137
:104290000098884201D2002FDAD04FF6FF710098C3
:1042A000884202D34FF08070B4E706F08040B0F14E
:1042B000804F02D10120606401E000206064002092
:1042C000A8E70000000010C12DE9F84605460C469D
:1042D00016464FF00009DFF83CA02746FEF758FBD2
:1042E000504633463A46294600900B48FDF772FC8B
:1042F000814606E0BAF10000AAF1010A01D14FF0AF
:104300000109FFF7C1FE0028F4D1FEF743FB484640
:10431000BDE8F88600E1F5054403002070B50446C9
:104320000D4615B94FF0006070BD5022125B1104AC
:104330002068FFF79AFB06460EB13046F4E70021ED
:104340002068FFF706FA28600020EDE77CB50446F8
:1043500000200090019000212068FFF7FAF900F09A
:104360000070B0F1007F02D14FF400607CBD69465F
:104370002046FFF7EFFD05460DB12846F6E7019808
:1043800000F4803098B15022125B11042068FFF7CE
:1043900027FA05460DB12846E8E700212068FFF717
:1043A00075FA05460DB12846E0E70020DEE74FF03C
:1043B0008060DBE77CB5044600200090019000217E
:1043C0002068FFF7C6F900F00070B0F1007F02D15D
:1043D0004FF400607CBD69462046FFF7BBFD0546F3
:1043E0000DB12846F6E7019800F4802098B15022DC
:1043F000125B11042068FFF7F3F905460DB128465A
:10440000E8E702212068FFF741FA05460DB128468A
:10441000E0E70020DEE74FF08060DBE72DE9F846BB
:1044200005460C4616464FF00009DFF83CA027462B
:10443000FEF7AEFA504633463A46294600900B48FE
:10444000FDF7E8FC814606E0BAF10000AAF1010A96
:1044500001D14FF00109FFF717FE0028F4D1FEF754
:1044600099FA4846BDE8F88600E1F50544030020C6
:1044700010B51348134908604FF48270486000215A
:1044800010488160C160022101610121416149023E
:1044900081613821C161002101624162816207218D
:1044A000C162FDF7B3FD07480068006840F04000B6
:1044B000044909680860FF2000F006F810BD0000FC
:1044C000003001407006002001B582B04FF47A70D0
:1044D000012301AA02A900900248FDF715FE9DF8EC
:1044E00004000EBD7006002010490968096821F01B
:1044F00040010E4A126811600C49096809684FF6BC
:10450000C7721140094A12681160084909680968B0
:104510000143064A1268116004490968096841F0BC
:104520004001024A126811607047000070060020C6
:10453000F8B504460D4616462B460022802120463B
:10454000009600F00CF828B1606D40F02000606526
:104550000320F8BD0020FCE70146012070472DE94B
:10456000F04104460E4617461D46DDF818803EE031
:10457000681CD8B3FCF704FDA0EB0800A84200D2E9
:10458000A5BB2068406820F0E000216848606068B2
:10459000B0F5827F0DD1A068B0F5004F03D0A068C0
:1045A000B0F5806F05D12068006820F040002168D8
:1045B0000860A06AB0F5005F0DD100BF20680068F8
:1045C00020F40050216808602068006840F4005022
:1045D0002168086000BF012084F8510000BF00205E
:1045E00084F8500000BF0320BDE8F081FFE7206899
:1045F00080683040B04201D1012000E00020B84284
:10460000B6D10020F0E7000000B58DB000BF4648ED
:10461000406940F48070444948610846406900F4AC
:104620008070019000BF00BF00BF0846806940F065
:10463000200088610846806900F02000019000BFDA
:1046400000BF00BF0846806940F04000886108460E
:10465000806900F04000019000BF00BF00BF084625
:10466000806940F0800088610846806900F0800021
:10467000019000BF00BF00BF0846806940F4807011
:1046800088610846806900F48070019000BF00BF17
:104690004FF63370099002200A9001200B900320FE
:1046A0000C9009A92148FCF7BDFA4FF683700990D8
:1046B00009A91F48FCF7B6FA4FF23F00099009A973
:1046C0001C48FCF7AFFA40F23F40099009A91A488C
:1046D000FCF7A8FA4FF020401849086018484860D5
:1046E0000420886000211548C160016110214161EA
:1046F00000218161C16141624FF4805181620021DA
:10470000C162016341638163002002900390012034
:10471000049000200590089002AA02A90748FDF71E
:104720006AFE0DB000BD0000001002400014014000
:1047300000180140001C014000200140FC02002044
:10474000040100A0704700002DE9FF4F93B0074619
:104750000D461C46AA462046E21704EB5272D210C0
:104760002146E31704EB5373DB10A4EBC3030BB137
:10477000012300E000231A44624302F0FF0B0C2CDB
:1047800006D0102C04D0182C02D017B0BDE8F08F42
:10479000224601A91598FCF7EDF8002631E001A8A2
:1047A00010F806804FF0000925E008F0800038B1CD
:1047B0001648008882B229463846FEF7BBF908E061
:1047C000209830B91248008882B229463846FEF750
:1047D000B1F94FEA48604FEA1068681C85B2A5EB52
:1047E0000A00A04203D15546781C87B206E009F1C1
:1047F000010000F0FF09B9F1080FD6DB00BF701C03
:10480000C6B25E45CBDB00BFBFE700001C00002046
:10481000200000202DE9FE4F07460E4691469A469D
:10482000DDE90D4B0C9DB8460296002001904CE04E
:10483000019870BB2878802802DD0120019044E0B7
:1048400004EBD47108EB0902A2EB6101B94202DA70
:10485000301986B2474602985044001BB04200DA35
:1048600036E028780D2804D1301986B247466D1CF1
:1048700007E0CDF800B02A78234631463846FEF7E7
:10488000B5FD6D1C204604EBD07107EB61018FB2C2
:104890001BE0FFE70020019008EB0900001BB84275
:1048A00002DA301986B2474602985044001BB042E3
:1048B00000DA0DE023462A4631463846CDF800B0EE
:1048C000FFF742FFAD1C381987B228780028AFD116
:1048D00000BFBDE8FE8F30B58FB005460024012033
:1048E0000590000406900020079002200C90C10360
:1048F0000D910E9505A8FCF729FD04460CB100BFEB
:10490000FEE70F20009002200190002002904FF45B
:10491000806003900020049002216846FCF7E0FBD1
:1049200004460CB100BFFEE70FB030BD10B5FCF778
:104930002DFB10BD1148006840F001000F490860D0
:10494000084640680E4908400C494860084600681F
:104950000C490840094908600846006820F4802096
:1049600008600846406820F4FE0048604FF41F00CD
:104970008860C803044908607047000000100240C6
:104980000000FFF8FFFFF6FE08ED00E010B50E484E
:104990000068C06800F0010078B10C4908698047E0
:1049A000002009490968486200BF64200649096877
:1049B000C86264210448C16000BF6FF00100024971
:1049C0000968086110BD000004C10020A800002093
:1049D00010B50268204B98420ED0204B98420BD065
:1049E000B0F1804F08D01E4B984205D01D4B984225
:1049F00002D01D4B984203D122F070024B681A433B
:104A0000154B98420ED0154B98420BD0B0F1804F09
:104A100008D0134B984205D0124B984202D0124B4B
:104A2000984203D122F44072CB681A4322F08003EB
:104A30004C6943EA040202608B68C3620B688362BC
:104A4000054B984202D0054B984201D10B69036394
:104A50000123436110BD0000002C014000340140DF
:104A60000004004000080040000C004038B5044637
:104A70000D4600BF1148C06940F004000F49C861ED
:104A80000846C06900F00400009000BF00BF032288
:104A900011461E20FCF7D1FA1E20FCF7BEFA08488A
:104AA000084908600846456000218160C4600161D2
:104AB000FDF76CFD0348FDF784FD38BD0010024092
:104AC0000008004004C1002070B505466C6A002053
:104AD000E085E0842046FDF789FD70BD0168C96866
:104AE00021F490710268D1600168496921F00101E7
:104AF00002685161202180F83A10704710B50446D1
:104B00002068C06820F040002168C860202084F838
:104B100039002046FDF726FF002010BD70B5044681
:104B200094F83A0022284AD1A068B0F5805F13D1EA
:104B3000A56A206940B920684068C0F30800288051
:104B4000A06A801CA06219E020684068C0B228807A
:104B5000A06A401CA06211E0206938B92068406852
:104B6000C1B2A26A501CA062117007E020684068C0
:104B700000F07F01A26A501CA0621170E08D401EFF
:104B800080B2E085C8B92068C06820F020002168A4
:104B9000C8602068C06820F480702168C860206800
:104BA000406920F0010021684861202084F83A0023
:104BB0002046FDF793FE002070BD0020FCE7022098
:104BC000FAE7000070B504462168096921F44051F4
:104BD000E2681143226811612269A1681143626988
:104BE00041EA02052168C96841F20C6291432943F8
:104BF0002268D1602168496921F44071A26911439A
:104C000022685161564A2168914254D1FCF744FB15
:104C100000EBC00101EB001162689200B1FBF2F100
:104C200000EBC00202EB001263689B00B2FBF3F2E0
:104C30006423B2FBF3F202EBC20303EB0212A1EB1B
:104C40008201322202EB01116422B1FBF2F101F088
:104C5000F00100EBC00202EB001263689B00B2FBA4
:104C6000F3F26423B2FBF3F201EB021200EBC0019A
:104C700001EB001163689B00B1FBF3F100EBC00393
:104C800003EB00136668B600B3FBF6F36426B3FBD0
:104C9000F6F303EBC30606EB0313A1EB8301322308
:104CA00003EB01116423B1FBF3F101F00F01114497
:104CB0002268916053E0FCF7DFFA00EBC00101EBE2
:104CC000001162689200B1FBF2F100EBC00202EB4E
:104CD000001263689B00B2FBF3F26423B2FBF3F2B1
:104CE00002EBC20303EB0212A1EB8201322202EBC0
:104CF00001116422B1FBF2F101F0F00100EBC002FE
:104D000002EB001263689B00B2FBF3F26423B2FB78
:104D1000F3F201EB021200EBC00101EB001163683A
:104D20009B00B1FBF3F100EBC00303EB00136668DB
:104D3000B600B3FBF6F36426B3FBF6F303EBC3064E
:104D400006EB0313A1EB8301322303EB0111642370
:104D5000B1FBF3F101F00F0111442268916070BDC5
:104D600000380140014691F8390021282CD188688B
:104D7000B0F5805F0FD10A6A1088C0F308000B6895
:104D80005860086918B9086A801C086209E0086A56
:104D9000401C086205E00B6A581C086218780B6812
:104DA0005860C88C401E80B2C88458B90868C06872
:104DB00020F080000B68D8600868C06840F04000B0
:104DC0000B68D860002070470220FCE710B5002473
:104DD0000C48FDF717FC00BF01E0641C00BF094848
:104DE000FDF705FC2028F8D100BF002401E0641C79
:104DF00000BF012204490348FDF738FD0028F6D121
:104E000000BF10BD640200201A00002000BFFEE7B2
:104E100010B50446240300F055F900F0EDF8002029
:104E20000F4908602020FFF74FFB0E4800884EF620
:104E30001871884202D1200EFFF746FBC4F30740E9
:104E4000FFF742FBC4F30720FFF73EFBE0B2FFF79A
:104E50003BFB01200249086000F0CEF810BD0000C5
:104E6000800122422600002010B586B000BF1E48F7
:104E7000806940F010001C4988610846806900F094
:104E80001000019000BF00BF012002900390049029
:104E90000320059002A91548FBF7C4FE0120144920
:104EA0000860FFF7E5FA0020FFF71EFB00F058F856
:104EB00010490880084600884EF61871884210D1C3
:104EC000032000F071F8044604F0010048B9002006
:104ED00007490860B720FFF7F7FA01200649C1F833
:104EE000800106B010BD000000100240001001401B
:104EF0008001224226000020000022422DE9F041DC
:104F000006460C4617460020134908600320FFF7A9
:104F1000DBFA124800884EF61871884202D1200E42
:104F2000FFF7D2FAC4F30740FFF7CEFAC4F3072025
:104F3000FFF7CAFAE0B2FFF7C7FA002505E0FF2045
:104F4000FFF7C2FA7055681C85B2BD42F7DB01203D
:104F500001490860BDE8F08180012242260000205E
:104F600010B5002400200E4908609020FFF7ACFA2D
:104F70000020FFF7A9FA0020FFF7A6FA0020FFF7AC
:104F8000A3FAFF20FFF7A0FA44EA0024FF20FFF76E
:104F90009BFA044301200349C1F88001204610BD5B
:104FA000800122420000224270B5044600250026FE
:104FB000012C04D0022C04D0032C06D103E00526DA
:104FC00005E0352603E0152601E0052600BF00BFF9
:104FD0000020074908603046FFF776FAFF20FFF708
:104FE00073FA054601200349C1F88001284670BDC7
:104FF000800122420000224210B500BF0120FFF7CD
:10500000D3FF00F001000028F8D110BD2DE9F05FBA
:1050100081460F461646DFF8A8B04FEA1738C7F3A7
:105020000B0ACAF58054A64200DC344644E04FEA3D
:1050300008314FF480525846FFF760FF002508E022
:105040000AEB05001BF80000FF2800D003E0681CF5
:1050500085B2A542F4DB00BFA54216DA4046FFF751
:10506000D7FE002507E019F8050005EB0A010BF84B
:105070000100681C85B2A542F5DB4FEA08314FF408
:105080008052584600F02EF804E022463946484641
:1050900000F028F8A64200D10FE008F101084FF017
:1050A000000AA1442744301B86B2B6F5805F02DDBA
:1050B0004FF4805400E03446B9E700BFBDE8F09FEC
:1050C000C806002010B50020044908600620FFF73C
:1050D000FBF901200249C1F8800110BD8001224284
:1050E000000022422DE9F04107460E461446F0B278
:1050F000C0F58075AC4200DC254612E02A463146F8
:10510000384600F013F8AC4200D10BE02F442E4497
:10511000601B84B2B4F5807F02DD4FF4807500E03F
:105120002546EBE700BFBDE8F08100002DE9F04126
:1051300006460C461746FFF7C5FF002014490860D5
:105140000220FFF7C1F9134800884EF61871884213
:1051500002D1200EFFF7B8F9C4F30740FFF7B4F906
:10516000C4F30720FFF7B0F9E0B2FFF7ADF900256F
:1051700004E0705DFFF7A8F9681C85B2BD42F8DB5A
:10518000012003490860FFF737FFBDE8F081000008
:10519000800122422600002002480068C0F302205D
:1051A000704700000CED00E010B5002804DB0A0792
:1051B000130E054A135406E00A07140E034A00F0C2
:1051C0000F031B1FD45410BD00E400E018ED00E0F5
:1051D00030380A2801D2012070470020704700BFF4
:1051E00070472DE9F04704460D4690469946AD1E9E
:1051F000E06A00EB153AC5F3C80605F00701012087
:105200008840C7B200BF51460AF1010A204602F0A9
:1052100005FC10B10120BDE8F08700BF00BF04F11C
:105220003400805D384008B1012000E0002048458E
:1052300001D10220EFE704F13400805D784004F1F1
:10524000340188550120E070A8F10100B0F1000898
:1052500000D1E0E77806000E071EE0D10127701CA0
:105260000646B0F5007FD9D3CDE7000070B50446FF
:105270000D460020E070401E20632946204602F0C3
:10528000CDFB08B1042070BD04F2322002F0D2F848
:105290004AF65521884201D00320F4E704F16A0060
:1052A00002F08BF820F07F400D49884201D10020A8
:1052B000E9E704F1860002F080F820F07F40084919
:1052C000884201D10020DEE7082206A104F1370060
:1052D00002F07CFB08B90120D5E70220D3E70000EB
:1052E000464154004558464154202020000000000B
:1052F000024600E0521C107810B110788842F9D1B3
:10530000107870472DE9F84F824615461E46DAF8A8
:1053100000000090DAF8480000F104094FF4007230
:10532000002328463146FAF7A2FF07460098B0F856
:105330000AC0624600233846FAF799FF834600BF49
:1053400059F8044B14B90020BDE8F88FA34500D2EA
:1053500004E0ABEB040B09F10409F1E700BFD9F855
:1053600000005844F0E70246891E9069801E88427A
:1053700001D8002070475389D06A01FB0300F9E788
:105380002DE9F04780460C4604F11A0002F052F86D
:1053900010B10020BDE8F087207800F03F00401EEB
:1053A00000EB800101EBC0054FF00109002621E070
:1053B0001849895D081902F03DF80746B9F1000F58
:1053C00011D0FF2D0BD2384601F0FAFA8246294659
:1053D0006D1C38F8110001F0F3FA824501D000206D
:1053E000D8E7B94605E04FF6FF70874201D00020AC
:1053F000D0E7761C0D2EDBD3207800F0400038B1CA
:10540000B9F1000F04D038F8150008B10020C1E749
:105410000120BFE78CE400082DE9F04707468A46E3
:105420003C68BAF1000F06D1266916B1A069B042F6
:1054300017D8012615E05146384601F0C7FE8046D0
:10544000B8F1020F02D20120BDE8F08708F1010097
:1054500008B94046F8E7A069404501D94046F3E75E
:105460005646207804282ED101223146204601F0EC
:10547000DEFA05460DB1681C08B92846E4E70123A9
:105480001A4629462046FFF7ACFE8146B9F1020FC5
:1054900001D10120D8E7B9F1010F02D14FF0FF305F
:1054A000D2E7BAF1000F02D10220F8712CE0F879AE
:1054B000022829D1701C854226D0B868301AB861FC
:1054C0000320F87120E0354600BF6D1CA069A8429A
:1054D00004D80225B54201D90020B5E7294638464F
:1054E00001F074FE8046B8F1000F00D10BE0B8F176
:1054F000010F02D008F1010008B94046A4E7B54207
:10550000E3D10020A0E700BF2078042805D1F87976
:10551000022802D14FF0000912E04FF0FF32294675
:10552000204602F0D5FB8146B9F1000F08D1BAF14F
:10553000000F05D02A465146204602F0C9FB81469D
:10554000B9F1000F0DD12561D4E90510801E81420B
:1055500002D26069401E6061207940F00100207134
:1055600007E0B9F1010F02D14FF0FF3000E0012058
:105570000546284668E700002DE9F34F83B08146D1
:10558000049800680190D9F840A00020064605461E
:1055900000BF28466D1C01990C5C202C03DB2F2CCE
:1055A00001D05C2C0AD100E06D1C0198405D2F28D1
:1055B000FAD00198405D5C28F6D032E0FF2E03D38C
:1055C000062005B0BDE8F08FE4B2812C13DBE0B219
:1055D000FE2810DC28466D1C01990F5C07EB0420A7
:1055E00084B2402F01DB7E2F05DD802F01DBFE2FF3
:1055F00001DD0620E5E70121204601F087F9044698
:105600000CB90620DDE7802C06DA214671A0FFF7F1
:105610006FFE08B10620D4E73046761C2AF8104009
:10562000B7E700BF0198411904980160202C01DA06
:10563000042000E00020804608E0701E3AF8104088
:10564000202C02D02E2C00D002E0761E002EF4D1A9
:1056500000BF00202AF816000EB90620B1E70B2281
:105660002021D9F8380002F0D0F9002500E06D1CA7
:105670003AF815002028FAD03AF815002E28F6D06E
:105680000DB148F0030800E0761E26B1701E3AF80E
:1056900010002E28F8D10020074602904FF0080B8A
:1056A00000BF28466D1C3AF8104004B963E0202C76
:1056B00003D02E2C04D1B54202D048F00308F0E705
:1056C0000298584501D2B54214D1BBF10B0F02D15B
:1056D00048F003084FE0B54201D048F00308B54256
:1056E00000D948E03546082002904FF00B0BB80671
:1056F000070ED6E7802C09DB204601F061F9002176
:10570000009001F003F9044648F00208FF2C11DD77
:10571000ABF101000299884204D848F00308CDF8A3
:1057200008B0BEE72212D9F838300298411C029125
:105730001A5419E024B1214629A0FFF7D9FD18B168
:105740005F2448F003080FE0412C04DB5A2C02DCF4
:1057500047F0020708E0612C06DB7A2C04DC47F0F6
:105760000107A4F1200084B2D9F838300298411C16
:1057700002911C5495E700BFD9F838000078E5285D
:1057800003D10520D9F838100870BBF1080F01D1FA
:10579000B806070E07F00C000C2803D007F0030032
:1057A000032801D148F0020808F0020058B907F0B8
:1057B0000300012801D148F0100807F00C0004286C
:1057C00001D148F00808D9F8380080F80B80002093
:1057D000F7E60000222A3A3C3E3F7C7F00000000B2
:1057E0002B2C3B3D5B5D00002DE9F04704460E4647
:1057F00040220021204602F008F985202070C020B8
:1058000084F82000304604F061F88246514604F1E5
:10581000240002F013FC402500274FF001084FF050
:10582000010900BFC12228466D1C225400222846CF
:105830006D1C225400BFB9F1000F06D036F81700D6
:10584000B0F1000901D0781CC7B26019494602F0D6
:10585000F5FBAD1C05F01F000028ECD108F101009C
:1058600000F0FF0836F817000028DBD184F8237019
:1058700084F80180BDE8F08710B504460420FCF7E9
:1058800057FE0148046010BD1000002030B50446EA
:10589000002504E04FF47A7000F004F86D1CA54276
:1058A000F8D330BD70B5034600224FF0E02675698D
:1058B0000D4E366803FB06F44FF0E026B16910E0A8
:1058C0004FF0E026B06988420BD0884202D20E1A0F
:1058D000324402E02E1A0E4432440146A24200D362
:1058E00000E0EDE700BF70BD100000202DE9F041A1
:1058F00004460E46D4F800800021204600F01CFB30
:1059000005465DBB002700BF4046216B02F086F8CC
:10591000054605B121E098F80000042805D1606B28
:105920000078012121EAD01009E0606B0078E528B9
:1059300002D0606B007808B9012000E0002020B19F
:10594000781C0746B04201D107E00027012120461C
:1059500000F0DAF80546002DD6D000BF042D00D1A6
:1059600007252846BDE8F0812DE9F04F85B00446B3
:1059700026680021204600F0DFFA07461FB13846AE
:1059800005B0BDE8F08F307804284CD1206C03F0CE
:105990009DFF01903EE0F16801F1240001F04AFD15
:1059A0000199884200D035E0F06890F82300039018
:1059B0004FF0400A002002901FE00AF01F0008B9D3
:1059C0000AF1020AF16801EB0A0001F033FD0090D0
:1059D00000F0F6FF8346226C029932F8110000F0C5
:1059E000EFFF834500D00BE00398401EC0B2039048
:1059F0000AF1020A0298401C029003980028DCD1A8
:105A000000BF039828B9216C029831F8100000B942
:105A100006E000BF0021204600F006F9071EBAD0BC
:105A200000BF3846ACE74FF0FF09CDF810904FF0BB
:105A3000FF30E06300BF3046216B01F0EFFF074607
:105A400007B15EE0606B05780DB9042759E0606B23
:105A5000C07A00F03F0884F80680E52D05D008F0F4
:105A6000080040B1B8F10F0F05D04FF0FF094FF01B
:105A7000FF30E0633EE0B8F10F0F1FD1206C98B308
:105A800005F0400038B1606B407B049025F0400584
:105A9000A946A06AE0634D450CD1606B417B049838
:105AA000814207D1616B206CFFF76AFC10B1A9F14C
:105AB000010000E0FF2000F0FF091BE0B9F1000F3A
:105AC00006D1606B02F0F7FA0499884200D118E021
:105AD000A06BC07A00F0010038B90B22D4E90D01A7
